{"contracts/crowd_funding_gasless.sol":{"crowd_funding_gasless":{"abi":[{"inputs":[{"internalType":"address","name":"_trustedForwarder","type":"address"}],"stateMutability":"nonpayable","type":"constructor"},{"inputs":[{"internalType":"uint256","name":"amount","type":"uint256"}],"name":"InitiateVoting","outputs":[],"stateMutability":"nonpayable","type":"function"},{"inputs":[{"internalType":"string","name":"name","type":"string"}],"name":"RegisterContributor","outputs":[],"stateMutability":"nonpayable","type":"function"},{"inputs":[{"internalType":"string","name":"name","type":"string"},{"internalType":"string","name":"category","type":"string"},{"internalType":"uint256","name":"milestoneGoal","type":"uint256"}],"name":"RegisterCreator","outputs":[],"stateMutability":"nonpayable","type":"function"},{"inputs":[{"internalType":"string","name":"name","type":"string"}],"name":"UploadProject","outputs":[],"stateMutability":"nonpayable","type":"function"},{"inputs":[],"name":"claimAmount","outputs":[],"stateMutability":"payable","type":"function"},{"inputs":[],"name":"claimAmountForCreator","outputs":[],"stateMutability":"payable","type":"function"},{"inputs":[{"internalType":"address","name":"creatorAddress","type":"address"}],"name":"contribute","outputs":[],"stateMutability":"payable","type":"function"},{"inputs":[{"internalType":"uint256","name":"creatorId","type":"uint256"}],"name":"currentMilesoneNumber","outputs":[{"internalType":"uint256","name":"","type":"uint256"}],"stateMutability":"view","type":"function"},{"inputs":[],"name":"endVoting","outputs":[],"stateMutability":"nonpayable","type":"function"},{"inputs":[],"name":"getContributorClaimableBalance","outputs":[{"internalType":"uint256","name":"","type":"uint256"}],"stateMutability":"view","type":"function"},{"inputs":[{"internalType":"uint256","name":"creatorId","type":"uint256"}],"name":"getMemebershipStrength","outputs":[{"internalType":"uint256","name":"","type":"uint256"}],"stateMutability":"view","type":"function"},{"inputs":[{"internalType":"address","name":"creatorAddress","type":"address"}],"name":"getMilestoneDetails","outputs":[{"internalType":"uint256","name":"goal","type":"uint256"},{"internalType":"uint256","name":"fundsRaised","type":"uint256"},{"internalType":"uint256","name":"milestoneNo","type":"uint256"}],"stateMutability":"view","type":"function"},{"inputs":[],"name":"getTrustedForwarder","outputs":[{"internalType":"address","name":"forwarder","type":"address"}],"stateMutability":"view","type":"function"},{"inputs":[{"internalType":"address","name":"creatorAddress","type":"address"}],"name":"getVotingStatus","outputs":[{"internalType":"bool","name":"","type":"bool"},{"internalType":"uint256","name":"","type":"uint256"},{"internalType":"uint256","name":"","type":"uint256"},{"internalType":"uint256","name":"","type":"uint256"},{"internalType":"uint256","name":"","type":"uint256"},{"internalType":"bool","name":"","type":"bool"}],"stateMutability":"view","type":"function"},{"inputs":[{"internalType":"address","name":"forwarder","type":"address"}],"name":"isTrustedForwarder","outputs":[{"internalType":"bool","name":"","type":"bool"}],"stateMutability":"view","type":"function"},{"inputs":[{"internalType":"uint256","name":"newGoal","type":"uint256"}],"name":"setMilestoneGoal","outputs":[],"stateMutability":"nonpayable","type":"function"},{"inputs":[{"internalType":"address","name":"owner","type":"address"}],"name":"viewClaimAmount","outputs":[{"internalType":"uint256","name":"","type":"uint256"}],"stateMutability":"view","type":"function"},{"inputs":[{"internalType":"uint256","name":"creatorId","type":"uint256"}],"name":"viewCreatorInfo","outputs":[{"internalType":"uint256","name":"","type":"uint256"},{"internalType":"uint256","name":"","type":"uint256"},{"internalType":"uint256","name":"","type":"uint256"}],"stateMutability":"view","type":"function"},{"inputs":[{"internalType":"address","name":"creatorAddress","type":"address"},{"internalType":"bool","name":"isUpvote","type":"bool"}],"name":"vote","outputs":[],"stateMutability":"nonpayable","type":"function"}],"evm":{"bytecode":{"linkReferences":{},"object":"60806040526113886001556004805466ffffffffffffff1990811690915560078054909116905534801561003257600080fd5b506040516118b23803806118b283398101604081905261005191610072565b600080546001600160a01b0319166001600160a01b038316179055506100a2565b60006020828403121561008457600080fd5b81516001600160a01b038116811461009b57600080fd5b9392505050565b611801806100b16000396000f3fe6080604052600436106101145760003560e01c8063abff0333116100a0578063c3403ddf11610064578063c3403ddf14610388578063ce1b815f1461039d578063d867909a146103c5578063d96c8bb714610416578063ea722b731461041e57600080fd5b8063abff0333146102a5578063adda00e4146102c5578063b64ed3d914610318578063bd041c4d14610338578063c02d9e1a1461035857600080fd5b8063590a3143116100e7578063590a3143146101f257806373e888fd1461024a578063830953ab1461025d5780639bc1a95d14610265578063a99620db1461028557600080fd5b8063056206951461011957806322c4ec8d1461013b578063439efb9114610193578063572b6c05146101b3575b600080fd5b34801561012557600080fd5b5061013961013436600461140e565b610450565b005b34801561014757600080fd5b5061018061015636600461140e565b33600090815260056020818152604080842054845260068252808420948452939091019052205490565b6040519081526020015b60405180910390f35b34801561019f57600080fd5b506101396101ae36600461140e565b6105cd565b3480156101bf57600080fd5b506101e26101ce366004611443565b6000546001600160a01b0391821691161490565b604051901515815260200161018a565b3480156101fe57600080fd5b5061022f61020d36600461140e565b60009081526003602052604090206007810154600a8201546010909201549092565b6040805193845260208401929092529082015260600161018a565b610139610258366004611443565b61065f565b610139610b5c565b34801561027157600080fd5b50610180610280366004611443565b610c82565b34801561029157600080fd5b506101396102a03660046114ae565b610d30565b3480156102b157600080fd5b506101396102c0366004611522565b610e20565b3480156102d157600080fd5b5061022f6102e0366004611443565b6001600160a01b03166000908152600260209081526040808320548352600390915290206012810154600d820154600e909201549192565b34801561032457600080fd5b50610139610333366004611522565b610eb9565b34801561034457600080fd5b50610139610353366004611564565b610efa565b34801561036457600080fd5b5061018061037336600461140e565b60009081526003602052604090206012015490565b34801561039457600080fd5b5061013961110d565b3480156103a957600080fd5b506000546040516001600160a01b03909116815260200161018a565b3480156103d157600080fd5b506103e56103e0366004611443565b61122f565b60408051961515875260208701959095529385019290925260608401526080830152151560a082015260c00161018a565b6101396112fd565b34801561042a57600080fd5b503360009081526005602090815260408083205483526006909152902060020154610180565b33600090815260026020908152604080832054808452600390925290912060098101548084106104d75760405162461bcd60e51b815260206004820152602760248201527f596f7520646f6e6f74206861766520656e6f7567682072656465656d61626c6560448201526608185b5bdd5b9d60ca1b60648201526084015b60405180910390fd5b600582015460009081526004830160205260409020805460ff16156105645760405162461bcd60e51b815260206004820152603d60248201527f4120766f74696e672076656e7475726520697320616c7265616479206f6e206760448201527f6f696e67212043616e6e6f74206372656174652061206e6577206f6e6500000060648201526084016104ce565b600583018054600091600486019183918261057e836115b6565b9091555081526020810191909152604001600090812060068101979097556003870181905560048701819055426001808901919091556002880191909155865460ff1916179095555050505050565b3360009081526002602090815260408083205481519283015201604051602081830303815290604052511161063d5760405162461bcd60e51b815260206004820152601660248201527510dc99585d1bdc88191bd95cc81b9bdd08195e1a5cdd60521b60448201526064016104ce565b33600090815260026020908152604080832054835260039091529020600d0155565b600034116106995760405162461bcd60e51b81526020600482015260076024820152664761726565623f60c81b60448201526064016104ce565b336000908152600560209081526040808320546001600160a01b03851684526002835281842054818552600684528285208186526004810190945291842054349491939103610713576001808201805491820181556000908152602081209091018390556003820180549161070d836115b6565b91905055505b6000828152600482016020526040812080548692906107339084906115cf565b90915550506000828152600360205260408120600c810180549192879261075b9084906115cf565b925050819055508481600801600082825461077691906115cf565b909155506064905061078986605f6115e8565b61079391906115ff565b8160090160008282546107a691906115cf565b90915550606490506107b98660056115e8565b6107c391906115ff565b81600a0160008282546107d691906115cf565b9091555050600d81018054600e8301546107f19088906115cf565b1015610881578581600101600082825461080b91906115cf565b909155505060008581526004820160205260408120549003610856576002810180546001810182556000918252602082200186905560038201805491610850836115b6565b91905055505b6000858152600482016020526040812080548892906108769084906115cf565b90915550610b1f9050565b6001810154815460009161089491611621565b905060006108a28289611621565b9050818360010160008282546108b891906115cf565b9091555050600087815260048401602052604081205490036109035760028301805460018101825560009182526020822001889055600384018054916108fd836115b6565b91905055505b6000878152600484016020526040812080548492906109239084906115cf565b90915550600090505b83600301548110156109d357600084600201828154811061094f5761094f611634565b90600052602060002001549050606485600401600083815260200190815260200160002054600561098091906115e8565b61098a91906115ff565b600082815260066020526040812060020180549091906109ab9084906115cf565b90915550506000908152600485016020526040812055806109cb816115b6565b91505061092c565b5060408051600081526020810191829052516109f39160028601916113ae565b50600060038401819055600184018190558354610a1090836115ff565b610a1b9060016115cf565b905080856012016000828254610a3191906115cf565b909155505081610a475750505050505050505050565b600284018054600181810183556000928352602090922001899055845490610a6f9083611621565b610a7991906115e8565b610a839083611621565b6000898152600486016020526040902055610a9f600182611621565b8454610aab91906115e8565b610ab59083611621565b6001808601919091558454606491610acd9084611621565b610ad791906115e8565b610ae29060056115e8565b610aec91906115ff565b866002016000828254610aff91906115cf565b9091555050600384018054906000610b16836115b6565b91905055505050505b600c820154610b2e90876115e8565b600085815260058501602052604081208054909190610b4e9084906115cf565b909155505050505050505050565b33600090815260056020908152604080832054815192830152016040516020818303038152906040525111610bd35760405162461bcd60e51b815260206004820152601a60248201527f436f6e7472696275746f7220646f6573206e6f7420657869737400000000000060448201526064016104ce565b3360009081526005602090815260408083205480845260069092529091206002810154610c425760405162461bcd60e51b815260206004820152601860248201527f4e6f7420656e6f7567682066756e6420746f20636c61696d000000000000000060448201526064016104ce565b60028101546040513391829181156108fc0291906000818181858888f19350505050158015610c75573d6000803e3d6000fd5b5050600060029091015550565b6001600160a01b0381166000908152600560209081526040808320548151928301528291016040516020818303038152906040525111610d045760405162461bcd60e51b815260206004820152601a60248201527f436f6e7472696275746f7220646f6573206e6f7420657869737400000000000060448201526064016104ce565b506001600160a01b03166000908152600560209081526040808320548352600690915290206002015490565b6004805433600090815260026020526040812066ffffffffffffff9283169055825490926003928492169082610d6583611660565b91906101000a81548166ffffffffffffff021916908366ffffffffffffff16021790555066ffffffffffffff16815260200190815260200160002090508585826000019182610db592919061170b565b5060018101610dc584868361170b565b5060006003820181905560058201819055600782018190556008820181905560098201819055600a8201819055600b8201819055600c820181905560128201819055600d820192909255600e81018290556010015550505050565b6007805433600090815260056020526040812066ffffffffffffff9283169055825490926006928492169082610e5583611660565b91906101000a81548166ffffffffffffff021916908366ffffffffffffff16021790555066ffffffffffffff16815260200190815260200160002090508282826000019182610ea592919061170b565b506000600382018190556002909101555050565b33600090815260026020818152604080842054808552600380845282862090810154865293840190925290922080610ef285878361170b565b505050505050565b336000908152600560208181526040808420546001600160a01b0387168552600283528185205480865260039093529084209283015490939192600401908290610f4690600190611621565b81526020810191909152604001600020805490915060ff16610faa5760405162461bcd60e51b815260206004820152601c60248201527f566f74696e672056656e74757265206973206e6f74206163746976650000000060448201526064016104ce565b6000838152600660209081526040808320858452600501909152902054610fd057600080fd5b33600090815260058201602052604090205460ff1615610fef57600080fd5b600154816001015461100191906115cf565b421061100c57600080fd5b3360009081526005820160205260408120805460ff1916600117905560028201805491611038836115b6565b91905055508315611080576000838152600660209081526040808320858452600501909152812054600383018054919290916110759084906115cf565b909155506110b89050565b6000838152600660209081526040808320858452600501909152812054600483018054919290916110b29084906115cf565b90915550505b6000828152600360205260409020600c01546110d59060016115e8565b6000848152600660209081526040808320868452600501909152812080549091906111019084906115cf565b90915550505050505050565b33600090815260026020908152604080832054808452600390925282206005810154919290916004830190829061114690600190611621565b81526020810191909152604001600020805490915060ff1661119e5760405162461bcd60e51b81526020600482015260116024820152704e6f206163746976652076656e7475726560781b60448201526064016104ce565b600282600701546111af91906115ff565b8160020154116111f55760405162461bcd60e51b81526020600482015260116024820152704e6f7420656e6f75676820766f7465727360781b60448201526064016104ce565b80600401548160030154111561122357806006015482600b01600082825461121d91906115cf565b90915550505b805460ff191690555050565b6001600160a01b0381166000908152600260209081526040808320548084526003909252822060058101548392839283928392839290916112865760008060008060008097509750975097509750975050506112f4565b60008160040160006001846005015461129f9190611621565b815260208082019290925260409081016000908120805460028201546003830154600484015460068501543387526005909501909752949093205460ff9182169e50929c50929a509298509196501693505050505b91939550919395565b336000908152600260209081526040808320548084526003909252909120600b81015461136c5760405162461bcd60e51b815260206004820152601760248201527f4e6f20616d6f756e7420746f20626520636c61696d656400000000000000000060448201526064016104ce565b600b8101805460009182905560405190913391829184156108fc02918591818181858888f193505050501580156113a7573d6000803e3d6000fd5b5050505050565b8280548282559060005260206000209081019282156113e9579160200282015b828111156113e95782518255916020019190600101906113ce565b506113f59291506113f9565b5090565b5b808211156113f557600081556001016113fa565b60006020828403121561142057600080fd5b5035919050565b80356001600160a01b038116811461143e57600080fd5b919050565b60006020828403121561145557600080fd5b61145e82611427565b9392505050565b60008083601f84011261147757600080fd5b50813567ffffffffffffffff81111561148f57600080fd5b6020830191508360208285010111156114a757600080fd5b9250929050565b6000806000806000606086880312156114c657600080fd5b853567ffffffffffffffff808211156114de57600080fd5b6114ea89838a01611465565b9097509550602088013591508082111561150357600080fd5b5061151088828901611465565b96999598509660400135949350505050565b6000806020838503121561153557600080fd5b823567ffffffffffffffff81111561154c57600080fd5b61155885828601611465565b90969095509350505050565b6000806040838503121561157757600080fd5b61158083611427565b91506020830135801515811461159557600080fd5b809150509250929050565b634e487b7160e01b600052601160045260246000fd5b6000600182016115c8576115c86115a0565b5060010190565b808201808211156115e2576115e26115a0565b92915050565b80820281158282048414176115e2576115e26115a0565b60008261161c57634e487b7160e01b600052601260045260246000fd5b500490565b818103818111156115e2576115e26115a0565b634e487b7160e01b600052603260045260246000fd5b634e487b7160e01b600052604160045260246000fd5b600066ffffffffffffff80831681810361167c5761167c6115a0565b6001019392505050565b600181811c9082168061169a57607f821691505b6020821081036116ba57634e487b7160e01b600052602260045260246000fd5b50919050565b601f82111561170657600081815260208120601f850160051c810160208610156116e75750805b601f850160051c820191505b81811015610ef2578281556001016116f3565b505050565b67ffffffffffffffff8311156117235761172361164a565b611737836117318354611686565b836116c0565b6000601f84116001811461176b57600085156117535750838201355b600019600387901b1c1916600186901b1783556113a7565b600083815260209020601f19861690835b8281101561179c578685013582556020948501946001909201910161177c565b50868210156117b95760001960f88860031b161c19848701351681555b505060018560011b018355505050505056fea26469706673582212205ba7f81e5fc3559a1a454a84713d410a3c21f93f855e3e391dbc7ecbc718a75964736f6c63430008110033","opcodes":"PUSH1 0x80 PUSH1 0x40 MSTORE PUSH2 0x1388 PUSH1 0x1 SSTORE PUSH1 0x4 DUP1 SLOAD PUSH7 0xFFFFFFFFFFFFFF NOT SWAP1 DUP2 AND SWAP1 SWAP2 SSTORE PUSH1 0x7 DUP1 SLOAD SWAP1 SWAP2 AND SWAP1 SSTORE CALLVALUE DUP1 ISZERO PUSH2 0x32 JUMPI PUSH1 0x0 DUP1 REVERT JUMPDEST POP PUSH1 0x40 MLOAD PUSH2 0x18B2 CODESIZE SUB DUP1 PUSH2 0x18B2 DUP4 CODECOPY DUP2 ADD PUSH1 0x40 DUP2 SWAP1 MSTORE PUSH2 0x51 SWAP2 PUSH2 0x72 JUMP JUMPDEST PUSH1 0x0 DUP1 SLOAD PUSH1 0x1 PUSH1 0x1 PUSH1 0xA0 SHL SUB NOT AND PUSH1 0x1 PUSH1 0x1 PUSH1 0xA0 SHL SUB DUP4 AND OR SWAP1 SSTORE POP PUSH2 0xA2 JUMP JUMPDEST PUSH1 0x0 PUSH1 0x20 DUP3 DUP5 SUB SLT ISZERO PUSH2 0x84 JUMPI PUSH1 0x0 DUP1 REVERT JUMPDEST DUP2 MLOAD PUSH1 0x1 PUSH1 0x1 PUSH1 0xA0 SHL SUB DUP2 AND DUP2 EQ PUSH2 0x9B JUMPI PUSH1 0x0 DUP1 REVERT JUMPDEST SWAP4 SWAP3 POP POP POP JUMP JUMPDEST PUSH2 0x1801 DUP1 PUSH2 0xB1 PUSH1 0x0 CODECOPY PUSH1 0x0 RETURN INVALID PUSH1 0x80 PUSH1 0x40 MSTORE PUSH1 0x4 CALLDATASIZE LT PUSH2 0x114 JUMPI PUSH1 0x0 CALLDATALOAD PUSH1 0xE0 SHR DUP1 PUSH4 0xABFF0333 GT PUSH2 0xA0 JUMPI DUP1 PUSH4 0xC3403DDF GT PUSH2 0x64 JUMPI DUP1 PUSH4 0xC3403DDF EQ PUSH2 0x388 JUMPI DUP1 PUSH4 0xCE1B815F EQ PUSH2 0x39D JUMPI DUP1 PUSH4 0xD867909A EQ PUSH2 0x3C5 JUMPI DUP1 PUSH4 0xD96C8BB7 EQ PUSH2 0x416 JUMPI DUP1 PUSH4 0xEA722B73 EQ PUSH2 0x41E JUMPI PUSH1 0x0 DUP1 REVERT JUMPDEST DUP1 PUSH4 0xABFF0333 EQ PUSH2 0x2A5 JUMPI DUP1 PUSH4 0xADDA00E4 EQ PUSH2 0x2C5 JUMPI DUP1 PUSH4 0xB64ED3D9 EQ PUSH2 0x318 JUMPI DUP1 PUSH4 0xBD041C4D EQ PUSH2 0x338 JUMPI DUP1 PUSH4 0xC02D9E1A EQ PUSH2 0x358 JUMPI PUSH1 0x0 DUP1 REVERT JUMPDEST DUP1 PUSH4 0x590A3143 GT PUSH2 0xE7 JUMPI DUP1 PUSH4 0x590A3143 EQ PUSH2 0x1F2 JUMPI DUP1 PUSH4 0x73E888FD EQ PUSH2 0x24A JUMPI DUP1 PUSH4 0x830953AB EQ PUSH2 0x25D JUMPI DUP1 PUSH4 0x9BC1A95D EQ PUSH2 0x265 JUMPI DUP1 PUSH4 0xA99620DB EQ PUSH2 0x285 JUMPI PUSH1 0x0 DUP1 REVERT JUMPDEST DUP1 PUSH4 0x5620695 EQ PUSH2 0x119 JUMPI DUP1 PUSH4 0x22C4EC8D EQ PUSH2 0x13B JUMPI DUP1 PUSH4 0x439EFB91 EQ PUSH2 0x193 JUMPI DUP1 PUSH4 0x572B6C05 EQ PUSH2 0x1B3 JUMPI JUMPDEST PUSH1 0x0 DUP1 REVERT JUMPDEST CALLVALUE DUP1 ISZERO PUSH2 0x125 JUMPI PUSH1 0x0 DUP1 REVERT JUMPDEST POP PUSH2 0x139 PUSH2 0x134 CALLDATASIZE PUSH1 0x4 PUSH2 0x140E JUMP JUMPDEST PUSH2 0x450 JUMP JUMPDEST STOP JUMPDEST CALLVALUE DUP1 ISZERO PUSH2 0x147 JUMPI PUSH1 0x0 DUP1 REVERT JUMPDEST POP PUSH2 0x180 PUSH2 0x156 CALLDATASIZE PUSH1 0x4 PUSH2 0x140E JUMP JUMPDEST CALLER PUSH1 0x0 SWAP1 DUP2 MSTORE PUSH1 0x5 PUSH1 0x20 DUP2 DUP2 MSTORE PUSH1 0x40 DUP1 DUP5 KECCAK256 SLOAD DUP5 MSTORE PUSH1 0x6 DUP3 MSTORE DUP1 DUP5 KECCAK256 SWAP5 DUP5 MSTORE SWAP4 SWAP1 SWAP2 ADD SWAP1 MSTORE KECCAK256 SLOAD SWAP1 JUMP JUMPDEST PUSH1 0x40 MLOAD SWAP1 DUP2 MSTORE PUSH1 0x20 ADD JUMPDEST PUSH1 0x40 MLOAD DUP1 SWAP2 SUB SWAP1 RETURN JUMPDEST CALLVALUE DUP1 ISZERO PUSH2 0x19F JUMPI PUSH1 0x0 DUP1 REVERT JUMPDEST POP PUSH2 0x139 PUSH2 0x1AE CALLDATASIZE PUSH1 0x4 PUSH2 0x140E JUMP JUMPDEST PUSH2 0x5CD JUMP JUMPDEST CALLVALUE DUP1 ISZERO PUSH2 0x1BF JUMPI PUSH1 0x0 DUP1 REVERT JUMPDEST POP PUSH2 0x1E2 PUSH2 0x1CE CALLDATASIZE PUSH1 0x4 PUSH2 0x1443 JUMP JUMPDEST PUSH1 0x0 SLOAD PUSH1 0x1 PUSH1 0x1 PUSH1 0xA0 SHL SUB SWAP2 DUP3 AND SWAP2 AND EQ SWAP1 JUMP JUMPDEST PUSH1 0x40 MLOAD SWAP1 ISZERO ISZERO DUP2 MSTORE PUSH1 0x20 ADD PUSH2 0x18A JUMP JUMPDEST CALLVALUE DUP1 ISZERO PUSH2 0x1FE JUMPI PUSH1 0x0 DUP1 REVERT JUMPDEST POP PUSH2 0x22F PUSH2 0x20D CALLDATASIZE PUSH1 0x4 PUSH2 0x140E JUMP JUMPDEST PUSH1 0x0 SWAP1 DUP2 MSTORE PUSH1 0x3 PUSH1 0x20 MSTORE PUSH1 0x40 SWAP1 KECCAK256 PUSH1 0x7 DUP2 ADD SLOAD PUSH1 0xA DUP3 ADD SLOAD PUSH1 0x10 SWAP1 SWAP3 ADD SLOAD SWAP1 SWAP3 JUMP JUMPDEST PUSH1 0x40 DUP1 MLOAD SWAP4 DUP5 MSTORE PUSH1 0x20 DUP5 ADD SWAP3 SWAP1 SWAP3 MSTORE SWAP1 DUP3 ADD MSTORE PUSH1 0x60 ADD PUSH2 0x18A JUMP JUMPDEST PUSH2 0x139 PUSH2 0x258 CALLDATASIZE PUSH1 0x4 PUSH2 0x1443 JUMP JUMPDEST PUSH2 0x65F JUMP JUMPDEST PUSH2 0x139 PUSH2 0xB5C JUMP JUMPDEST CALLVALUE DUP1 ISZERO PUSH2 0x271 JUMPI PUSH1 0x0 DUP1 REVERT JUMPDEST POP PUSH2 0x180 PUSH2 0x280 CALLDATASIZE PUSH1 0x4 PUSH2 0x1443 JUMP JUMPDEST PUSH2 0xC82 JUMP JUMPDEST CALLVALUE DUP1 ISZERO PUSH2 0x291 JUMPI PUSH1 0x0 DUP1 REVERT JUMPDEST POP PUSH2 0x139 PUSH2 0x2A0 CALLDATASIZE PUSH1 0x4 PUSH2 0x14AE JUMP JUMPDEST PUSH2 0xD30 JUMP JUMPDEST CALLVALUE DUP1 ISZERO PUSH2 0x2B1 JUMPI PUSH1 0x0 DUP1 REVERT JUMPDEST POP PUSH2 0x139 PUSH2 0x2C0 CALLDATASIZE PUSH1 0x4 PUSH2 0x1522 JUMP JUMPDEST PUSH2 0xE20 JUMP JUMPDEST CALLVALUE DUP1 ISZERO PUSH2 0x2D1 JUMPI PUSH1 0x0 DUP1 REVERT JUMPDEST POP PUSH2 0x22F PUSH2 0x2E0 CALLDATASIZE PUSH1 0x4 PUSH2 0x1443 JUMP JUMPDEST PUSH1 0x1 PUSH1 0x1 PUSH1 0xA0 SHL SUB AND PUSH1 0x0 SWAP1 DUP2 MSTORE PUSH1 0x2 PUSH1 0x20 SWAP1 DUP2 MSTORE PUSH1 0x40 DUP1 DUP4 KECCAK256 SLOAD DUP4 MSTORE PUSH1 0x3 SWAP1 SWAP2 MSTORE SWAP1 KECCAK256 PUSH1 0x12 DUP2 ADD SLOAD PUSH1 0xD DUP3 ADD SLOAD PUSH1 0xE SWAP1 SWAP3 ADD SLOAD SWAP2 SWAP3 JUMP JUMPDEST CALLVALUE DUP1 ISZERO PUSH2 0x324 JUMPI PUSH1 0x0 DUP1 REVERT JUMPDEST POP PUSH2 0x139 PUSH2 0x333 CALLDATASIZE PUSH1 0x4 PUSH2 0x1522 JUMP JUMPDEST PUSH2 0xEB9 JUMP JUMPDEST CALLVALUE DUP1 ISZERO PUSH2 0x344 JUMPI PUSH1 0x0 DUP1 REVERT JUMPDEST POP PUSH2 0x139 PUSH2 0x353 CALLDATASIZE PUSH1 0x4 PUSH2 0x1564 JUMP JUMPDEST PUSH2 0xEFA JUMP JUMPDEST CALLVALUE DUP1 ISZERO PUSH2 0x364 JUMPI PUSH1 0x0 DUP1 REVERT JUMPDEST POP PUSH2 0x180 PUSH2 0x373 CALLDATASIZE PUSH1 0x4 PUSH2 0x140E JUMP JUMPDEST PUSH1 0x0 SWAP1 DUP2 MSTORE PUSH1 0x3 PUSH1 0x20 MSTORE PUSH1 0x40 SWAP1 KECCAK256 PUSH1 0x12 ADD SLOAD SWAP1 JUMP JUMPDEST CALLVALUE DUP1 ISZERO PUSH2 0x394 JUMPI PUSH1 0x0 DUP1 REVERT JUMPDEST POP PUSH2 0x139 PUSH2 0x110D JUMP JUMPDEST CALLVALUE DUP1 ISZERO PUSH2 0x3A9 JUMPI PUSH1 0x0 DUP1 REVERT JUMPDEST POP PUSH1 0x0 SLOAD PUSH1 0x40 MLOAD PUSH1 0x1 PUSH1 0x1 PUSH1 0xA0 SHL SUB SWAP1 SWAP2 AND DUP2 MSTORE PUSH1 0x20 ADD PUSH2 0x18A JUMP JUMPDEST CALLVALUE DUP1 ISZERO PUSH2 0x3D1 JUMPI PUSH1 0x0 DUP1 REVERT JUMPDEST POP PUSH2 0x3E5 PUSH2 0x3E0 CALLDATASIZE PUSH1 0x4 PUSH2 0x1443 JUMP JUMPDEST PUSH2 0x122F JUMP JUMPDEST PUSH1 0x40 DUP1 MLOAD SWAP7 ISZERO ISZERO DUP8 MSTORE PUSH1 0x20 DUP8 ADD SWAP6 SWAP1 SWAP6 MSTORE SWAP4 DUP6 ADD SWAP3 SWAP1 SWAP3 MSTORE PUSH1 0x60 DUP5 ADD MSTORE PUSH1 0x80 DUP4 ADD MSTORE ISZERO ISZERO PUSH1 0xA0 DUP3 ADD MSTORE PUSH1 0xC0 ADD PUSH2 0x18A JUMP JUMPDEST PUSH2 0x139 PUSH2 0x12FD JUMP JUMPDEST CALLVALUE DUP1 ISZERO PUSH2 0x42A JUMPI PUSH1 0x0 DUP1 REVERT JUMPDEST POP CALLER PUSH1 0x0 SWAP1 DUP2 MSTORE PUSH1 0x5 PUSH1 0x20 SWAP1 DUP2 MSTORE PUSH1 0x40 DUP1 DUP4 KECCAK256 SLOAD DUP4 MSTORE PUSH1 0x6 SWAP1 SWAP2 MSTORE SWAP1 KECCAK256 PUSH1 0x2 ADD SLOAD PUSH2 0x180 JUMP JUMPDEST CALLER PUSH1 0x0 SWAP1 DUP2 MSTORE PUSH1 0x2 PUSH1 0x20 SWAP1 DUP2 MSTORE PUSH1 0x40 DUP1 DUP4 KECCAK256 SLOAD DUP1 DUP5 MSTORE PUSH1 0x3 SWAP1 SWAP3 MSTORE SWAP1 SWAP2 KECCAK256 PUSH1 0x9 DUP2 ADD SLOAD DUP1 DUP5 LT PUSH2 0x4D7 JUMPI PUSH1 0x40 MLOAD PUSH3 0x461BCD PUSH1 0xE5 SHL DUP2 MSTORE PUSH1 0x20 PUSH1 0x4 DUP3 ADD MSTORE PUSH1 0x27 PUSH1 0x24 DUP3 ADD MSTORE PUSH32 0x596F7520646F6E6F74206861766520656E6F7567682072656465656D61626C65 PUSH1 0x44 DUP3 ADD MSTORE PUSH7 0x8185B5BDD5B9D PUSH1 0xCA SHL PUSH1 0x64 DUP3 ADD MSTORE PUSH1 0x84 ADD JUMPDEST PUSH1 0x40 MLOAD DUP1 SWAP2 SUB SWAP1 REVERT JUMPDEST PUSH1 0x5 DUP3 ADD SLOAD PUSH1 0x0 SWAP1 DUP2 MSTORE PUSH1 0x4 DUP4 ADD PUSH1 0x20 MSTORE PUSH1 0x40 SWAP1 KECCAK256 DUP1 SLOAD PUSH1 0xFF AND ISZERO PUSH2 0x564 JUMPI PUSH1 0x40 MLOAD PUSH3 0x461BCD PUSH1 0xE5 SHL DUP2 MSTORE PUSH1 0x20 PUSH1 0x4 DUP3 ADD MSTORE PUSH1 0x3D PUSH1 0x24 DUP3 ADD MSTORE PUSH32 0x4120766F74696E672076656E7475726520697320616C7265616479206F6E2067 PUSH1 0x44 DUP3 ADD MSTORE PUSH32 0x6F696E67212043616E6E6F74206372656174652061206E6577206F6E65000000 PUSH1 0x64 DUP3 ADD MSTORE PUSH1 0x84 ADD PUSH2 0x4CE JUMP JUMPDEST PUSH1 0x5 DUP4 ADD DUP1 SLOAD PUSH1 0x0 SWAP2 PUSH1 0x4 DUP7 ADD SWAP2 DUP4 SWAP2 DUP3 PUSH2 0x57E DUP4 PUSH2 0x15B6 JUMP JUMPDEST SWAP1 SWAP2 SSTORE POP DUP2 MSTORE PUSH1 0x20 DUP2 ADD SWAP2 SWAP1 SWAP2 MSTORE PUSH1 0x40 ADD PUSH1 0x0 SWAP1 DUP2 KECCAK256 PUSH1 0x6 DUP2 ADD SWAP8 SWAP1 SWAP8 SSTORE PUSH1 0x3 DUP8 ADD DUP2 SWAP1 SSTORE PUSH1 0x4 DUP8 ADD DUP2 SWAP1 SSTORE TIMESTAMP PUSH1 0x1 DUP1 DUP10 ADD SWAP2 SWAP1 SWAP2 SSTORE PUSH1 0x2 DUP9 ADD SWAP2 SWAP1 SWAP2 SSTORE DUP7 SLOAD PUSH1 0xFF NOT AND OR SWAP1 SWAP6 SSTORE POP POP POP POP POP JUMP JUMPDEST CALLER PUSH1 0x0 SWAP1 DUP2 MSTORE PUSH1 0x2 PUSH1 0x20 SWAP1 DUP2 MSTORE PUSH1 0x40 DUP1 DUP4 KECCAK256 SLOAD DUP2 MLOAD SWAP3 DUP4 ADD MSTORE ADD PUSH1 0x40 MLOAD PUSH1 0x20 DUP2 DUP4 SUB SUB DUP2 MSTORE SWAP1 PUSH1 0x40 MSTORE MLOAD GT PUSH2 0x63D JUMPI PUSH1 0x40 MLOAD PUSH3 0x461BCD PUSH1 0xE5 SHL DUP2 MSTORE PUSH1 0x20 PUSH1 0x4 DUP3 ADD MSTORE PUSH1 0x16 PUSH1 0x24 DUP3 ADD MSTORE PUSH22 0x10DC99585D1BDC88191BD95CC81B9BDD08195E1A5CDD PUSH1 0x52 SHL PUSH1 0x44 DUP3 ADD MSTORE PUSH1 0x64 ADD PUSH2 0x4CE JUMP JUMPDEST CALLER PUSH1 0x0 SWAP1 DUP2 MSTORE PUSH1 0x2 PUSH1 0x20 SWAP1 DUP2 MSTORE PUSH1 0x40 DUP1 DUP4 KECCAK256 SLOAD DUP4 MSTORE PUSH1 0x3 SWAP1 SWAP2 MSTORE SWAP1 KECCAK256 PUSH1 0xD ADD SSTORE JUMP JUMPDEST PUSH1 0x0 CALLVALUE GT PUSH2 0x699 JUMPI PUSH1 0x40 MLOAD PUSH3 0x461BCD PUSH1 0xE5 SHL DUP2 MSTORE PUSH1 0x20 PUSH1 0x4 DUP3 ADD MSTORE PUSH1 0x7 PUSH1 0x24 DUP3 ADD MSTORE PUSH7 0x4761726565623F PUSH1 0xC8 SHL PUSH1 0x44 DUP3 ADD MSTORE PUSH1 0x64 ADD PUSH2 0x4CE JUMP JUMPDEST CALLER PUSH1 0x0 SWAP1 DUP2 MSTORE PUSH1 0x5 PUSH1 0x20 SWAP1 DUP2 MSTORE PUSH1 0x40 DUP1 DUP4 KECCAK256 SLOAD PUSH1 0x1 PUSH1 0x1 PUSH1 0xA0 SHL SUB DUP6 AND DUP5 MSTORE PUSH1 0x2 DUP4 MSTORE DUP2 DUP5 KECCAK256 SLOAD DUP2 DUP6 MSTORE PUSH1 0x6 DUP5 MSTORE DUP3 DUP6 KECCAK256 DUP2 DUP7 MSTORE PUSH1 0x4 DUP2 ADD SWAP1 SWAP5 MSTORE SWAP2 DUP5 KECCAK256 SLOAD CALLVALUE SWAP5 SWAP2 SWAP4 SWAP2 SUB PUSH2 0x713 JUMPI PUSH1 0x1 DUP1 DUP3 ADD DUP1 SLOAD SWAP2 DUP3 ADD DUP2 SSTORE PUSH1 0x0 SWAP1 DUP2 MSTORE PUSH1 0x20 DUP2 KECCAK256 SWAP1 SWAP2 ADD DUP4 SWAP1 SSTORE PUSH1 0x3 DUP3 ADD DUP1 SLOAD SWAP2 PUSH2 0x70D DUP4 PUSH2 0x15B6 JUMP JUMPDEST SWAP2 SWAP1 POP SSTORE POP JUMPDEST PUSH1 0x0 DUP3 DUP2 MSTORE PUSH1 0x4 DUP3 ADD PUSH1 0x20 MSTORE PUSH1 0x40 DUP2 KECCAK256 DUP1 SLOAD DUP7 SWAP3 SWAP1 PUSH2 0x733 SWAP1 DUP5 SWAP1 PUSH2 0x15CF JUMP JUMPDEST SWAP1 SWAP2 SSTORE POP POP PUSH1 0x0 DUP3 DUP2 MSTORE PUSH1 0x3 PUSH1 0x20 MSTORE PUSH1 0x40 DUP2 KECCAK256 PUSH1 0xC DUP2 ADD DUP1 SLOAD SWAP2 SWAP3 DUP8 SWAP3 PUSH2 0x75B SWAP1 DUP5 SWAP1 PUSH2 0x15CF JUMP JUMPDEST SWAP3 POP POP DUP2 SWAP1 SSTORE POP DUP5 DUP2 PUSH1 0x8 ADD PUSH1 0x0 DUP3 DUP3 SLOAD PUSH2 0x776 SWAP2 SWAP1 PUSH2 0x15CF JUMP JUMPDEST SWAP1 SWAP2 SSTORE POP PUSH1 0x64 SWAP1 POP PUSH2 0x789 DUP7 PUSH1 0x5F PUSH2 0x15E8 JUMP JUMPDEST PUSH2 0x793 SWAP2 SWAP1 PUSH2 0x15FF JUMP JUMPDEST DUP2 PUSH1 0x9 ADD PUSH1 0x0 DUP3 DUP3 SLOAD PUSH2 0x7A6 SWAP2 SWAP1 PUSH2 0x15CF JUMP JUMPDEST SWAP1 SWAP2 SSTORE POP PUSH1 0x64 SWAP1 POP PUSH2 0x7B9 DUP7 PUSH1 0x5 PUSH2 0x15E8 JUMP JUMPDEST PUSH2 0x7C3 SWAP2 SWAP1 PUSH2 0x15FF JUMP JUMPDEST DUP2 PUSH1 0xA ADD PUSH1 0x0 DUP3 DUP3 SLOAD PUSH2 0x7D6 SWAP2 SWAP1 PUSH2 0x15CF JUMP JUMPDEST SWAP1 SWAP2 SSTORE POP POP PUSH1 0xD DUP2 ADD DUP1 SLOAD PUSH1 0xE DUP4 ADD SLOAD PUSH2 0x7F1 SWAP1 DUP9 SWAP1 PUSH2 0x15CF JUMP JUMPDEST LT ISZERO PUSH2 0x881 JUMPI DUP6 DUP2 PUSH1 0x1 ADD PUSH1 0x0 DUP3 DUP3 SLOAD PUSH2 0x80B SWAP2 SWAP1 PUSH2 0x15CF JUMP JUMPDEST SWAP1 SWAP2 SSTORE POP POP PUSH1 0x0 DUP6 DUP2 MSTORE PUSH1 0x4 DUP3 ADD PUSH1 0x20 MSTORE PUSH1 0x40 DUP2 KECCAK256 SLOAD SWAP1 SUB PUSH2 0x856 JUMPI PUSH1 0x2 DUP2 ADD DUP1 SLOAD PUSH1 0x1 DUP2 ADD DUP3 SSTORE PUSH1 0x0 SWAP2 DUP3 MSTORE PUSH1 0x20 DUP3 KECCAK256 ADD DUP7 SWAP1 SSTORE PUSH1 0x3 DUP3 ADD DUP1 SLOAD SWAP2 PUSH2 0x850 DUP4 PUSH2 0x15B6 JUMP JUMPDEST SWAP2 SWAP1 POP SSTORE POP JUMPDEST PUSH1 0x0 DUP6 DUP2 MSTORE PUSH1 0x4 DUP3 ADD PUSH1 0x20 MSTORE PUSH1 0x40 DUP2 KECCAK256 DUP1 SLOAD DUP9 SWAP3 SWAP1 PUSH2 0x876 SWAP1 DUP5 SWAP1 PUSH2 0x15CF JUMP JUMPDEST SWAP1 SWAP2 SSTORE POP PUSH2 0xB1F SWAP1 POP JUMP JUMPDEST PUSH1 0x1 DUP2 ADD SLOAD DUP2 SLOAD PUSH1 0x0 SWAP2 PUSH2 0x894 SWAP2 PUSH2 0x1621 JUMP JUMPDEST SWAP1 POP PUSH1 0x0 PUSH2 0x8A2 DUP3 DUP10 PUSH2 0x1621 JUMP JUMPDEST SWAP1 POP DUP2 DUP4 PUSH1 0x1 ADD PUSH1 0x0 DUP3 DUP3 SLOAD PUSH2 0x8B8 SWAP2 SWAP1 PUSH2 0x15CF JUMP JUMPDEST SWAP1 SWAP2 SSTORE POP POP PUSH1 0x0 DUP8 DUP2 MSTORE PUSH1 0x4 DUP5 ADD PUSH1 0x20 MSTORE PUSH1 0x40 DUP2 KECCAK256 SLOAD SWAP1 SUB PUSH2 0x903 JUMPI PUSH1 0x2 DUP4 ADD DUP1 SLOAD PUSH1 0x1 DUP2 ADD DUP3 SSTORE PUSH1 0x0 SWAP2 DUP3 MSTORE PUSH1 0x20 DUP3 KECCAK256 ADD DUP9 SWAP1 SSTORE PUSH1 0x3 DUP5 ADD DUP1 SLOAD SWAP2 PUSH2 0x8FD DUP4 PUSH2 0x15B6 JUMP JUMPDEST SWAP2 SWAP1 POP SSTORE POP JUMPDEST PUSH1 0x0 DUP8 DUP2 MSTORE PUSH1 0x4 DUP5 ADD PUSH1 0x20 MSTORE PUSH1 0x40 DUP2 KECCAK256 DUP1 SLOAD DUP5 SWAP3 SWAP1 PUSH2 0x923 SWAP1 DUP5 SWAP1 PUSH2 0x15CF JUMP JUMPDEST SWAP1 SWAP2 SSTORE POP PUSH1 0x0 SWAP1 POP JUMPDEST DUP4 PUSH1 0x3 ADD SLOAD DUP2 LT ISZERO PUSH2 0x9D3 JUMPI PUSH1 0x0 DUP5 PUSH1 0x2 ADD DUP3 DUP2 SLOAD DUP2 LT PUSH2 0x94F JUMPI PUSH2 0x94F PUSH2 0x1634 JUMP JUMPDEST SWAP1 PUSH1 0x0 MSTORE PUSH1 0x20 PUSH1 0x0 KECCAK256 ADD SLOAD SWAP1 POP PUSH1 0x64 DUP6 PUSH1 0x4 ADD PUSH1 0x0 DUP4 DUP2 MSTORE PUSH1 0x20 ADD SWAP1 DUP2 MSTORE PUSH1 0x20 ADD PUSH1 0x0 KECCAK256 SLOAD PUSH1 0x5 PUSH2 0x980 SWAP2 SWAP1 PUSH2 0x15E8 JUMP JUMPDEST PUSH2 0x98A SWAP2 SWAP1 PUSH2 0x15FF JUMP JUMPDEST PUSH1 0x0 DUP3 DUP2 MSTORE PUSH1 0x6 PUSH1 0x20 MSTORE PUSH1 0x40 DUP2 KECCAK256 PUSH1 0x2 ADD DUP1 SLOAD SWAP1 SWAP2 SWAP1 PUSH2 0x9AB SWAP1 DUP5 SWAP1 PUSH2 0x15CF JUMP JUMPDEST SWAP1 SWAP2 SSTORE POP POP PUSH1 0x0 SWAP1 DUP2 MSTORE PUSH1 0x4 DUP6 ADD PUSH1 0x20 MSTORE PUSH1 0x40 DUP2 KECCAK256 SSTORE DUP1 PUSH2 0x9CB DUP2 PUSH2 0x15B6 JUMP JUMPDEST SWAP2 POP POP PUSH2 0x92C JUMP JUMPDEST POP PUSH1 0x40 DUP1 MLOAD PUSH1 0x0 DUP2 MSTORE PUSH1 0x20 DUP2 ADD SWAP2 DUP3 SWAP1 MSTORE MLOAD PUSH2 0x9F3 SWAP2 PUSH1 0x2 DUP7 ADD SWAP2 PUSH2 0x13AE JUMP JUMPDEST POP PUSH1 0x0 PUSH1 0x3 DUP5 ADD DUP2 SWAP1 SSTORE PUSH1 0x1 DUP5 ADD DUP2 SWAP1 SSTORE DUP4 SLOAD PUSH2 0xA10 SWAP1 DUP4 PUSH2 0x15FF JUMP JUMPDEST PUSH2 0xA1B SWAP1 PUSH1 0x1 PUSH2 0x15CF JUMP JUMPDEST SWAP1 POP DUP1 DUP6 PUSH1 0x12 ADD PUSH1 0x0 DUP3 DUP3 SLOAD PUSH2 0xA31 SWAP2 SWAP1 PUSH2 0x15CF JUMP JUMPDEST SWAP1 SWAP2 SSTORE POP POP DUP2 PUSH2 0xA47 JUMPI POP POP POP POP POP POP POP POP POP POP JUMP JUMPDEST PUSH1 0x2 DUP5 ADD DUP1 SLOAD PUSH1 0x1 DUP2 DUP2 ADD DUP4 SSTORE PUSH1 0x0 SWAP3 DUP4 MSTORE PUSH1 0x20 SWAP1 SWAP3 KECCAK256 ADD DUP10 SWAP1 SSTORE DUP5 SLOAD SWAP1 PUSH2 0xA6F SWAP1 DUP4 PUSH2 0x1621 JUMP JUMPDEST PUSH2 0xA79 SWAP2 SWAP1 PUSH2 0x15E8 JUMP JUMPDEST PUSH2 0xA83 SWAP1 DUP4 PUSH2 0x1621 JUMP JUMPDEST PUSH1 0x0 DUP10 DUP2 MSTORE PUSH1 0x4 DUP7 ADD PUSH1 0x20 MSTORE PUSH1 0x40 SWAP1 KECCAK256 SSTORE PUSH2 0xA9F PUSH1 0x1 DUP3 PUSH2 0x1621 JUMP JUMPDEST DUP5 SLOAD PUSH2 0xAAB SWAP2 SWAP1 PUSH2 0x15E8 JUMP JUMPDEST PUSH2 0xAB5 SWAP1 DUP4 PUSH2 0x1621 JUMP JUMPDEST PUSH1 0x1 DUP1 DUP7 ADD SWAP2 SWAP1 SWAP2 SSTORE DUP5 SLOAD PUSH1 0x64 SWAP2 PUSH2 0xACD SWAP1 DUP5 PUSH2 0x1621 JUMP JUMPDEST PUSH2 0xAD7 SWAP2 SWAP1 PUSH2 0x15E8 JUMP JUMPDEST PUSH2 0xAE2 SWAP1 PUSH1 0x5 PUSH2 0x15E8 JUMP JUMPDEST PUSH2 0xAEC SWAP2 SWAP1 PUSH2 0x15FF JUMP JUMPDEST DUP7 PUSH1 0x2 ADD PUSH1 0x0 DUP3 DUP3 SLOAD PUSH2 0xAFF SWAP2 SWAP1 PUSH2 0x15CF JUMP JUMPDEST SWAP1 SWAP2 SSTORE POP POP PUSH1 0x3 DUP5 ADD DUP1 SLOAD SWAP1 PUSH1 0x0 PUSH2 0xB16 DUP4 PUSH2 0x15B6 JUMP JUMPDEST SWAP2 SWAP1 POP SSTORE POP POP POP POP JUMPDEST PUSH1 0xC DUP3 ADD SLOAD PUSH2 0xB2E SWAP1 DUP8 PUSH2 0x15E8 JUMP JUMPDEST PUSH1 0x0 DUP6 DUP2 MSTORE PUSH1 0x5 DUP6 ADD PUSH1 0x20 MSTORE PUSH1 0x40 DUP2 KECCAK256 DUP1 SLOAD SWAP1 SWAP2 SWAP1 PUSH2 0xB4E SWAP1 DUP5 SWAP1 PUSH2 0x15CF JUMP JUMPDEST SWAP1 SWAP2 SSTORE POP POP POP POP POP POP POP POP POP JUMP JUMPDEST CALLER PUSH1 0x0 SWAP1 DUP2 MSTORE PUSH1 0x5 PUSH1 0x20 SWAP1 DUP2 MSTORE PUSH1 0x40 DUP1 DUP4 KECCAK256 SLOAD DUP2 MLOAD SWAP3 DUP4 ADD MSTORE ADD PUSH1 0x40 MLOAD PUSH1 0x20 DUP2 DUP4 SUB SUB DUP2 MSTORE SWAP1 PUSH1 0x40 MSTORE MLOAD GT PUSH2 0xBD3 JUMPI PUSH1 0x40 MLOAD PUSH3 0x461BCD PUSH1 0xE5 SHL DUP2 MSTORE PUSH1 0x20 PUSH1 0x4 DUP3 ADD MSTORE PUSH1 0x1A PUSH1 0x24 DUP3 ADD MSTORE PUSH32 0x436F6E7472696275746F7220646F6573206E6F74206578697374000000000000 PUSH1 0x44 DUP3 ADD MSTORE PUSH1 0x64 ADD PUSH2 0x4CE JUMP JUMPDEST CALLER PUSH1 0x0 SWAP1 DUP2 MSTORE PUSH1 0x5 PUSH1 0x20 SWAP1 DUP2 MSTORE PUSH1 0x40 DUP1 DUP4 KECCAK256 SLOAD DUP1 DUP5 MSTORE PUSH1 0x6 SWAP1 SWAP3 MSTORE SWAP1 SWAP2 KECCAK256 PUSH1 0x2 DUP2 ADD SLOAD PUSH2 0xC42 JUMPI PUSH1 0x40 MLOAD PUSH3 0x461BCD PUSH1 0xE5 SHL DUP2 MSTORE PUSH1 0x20 PUSH1 0x4 DUP3 ADD MSTORE PUSH1 0x18 PUSH1 0x24 DUP3 ADD MSTORE PUSH32 0x4E6F7420656E6F7567682066756E6420746F20636C61696D0000000000000000 PUSH1 0x44 DUP3 ADD MSTORE PUSH1 0x64 ADD PUSH2 0x4CE JUMP JUMPDEST PUSH1 0x2 DUP2 ADD SLOAD PUSH1 0x40 MLOAD CALLER SWAP2 DUP3 SWAP2 DUP2 ISZERO PUSH2 0x8FC MUL SWAP2 SWAP1 PUSH1 0x0 DUP2 DUP2 DUP2 DUP6 DUP9 DUP9 CALL SWAP4 POP POP POP POP ISZERO DUP1 ISZERO PUSH2 0xC75 JUMPI RETURNDATASIZE PUSH1 0x0 DUP1 RETURNDATACOPY RETURNDATASIZE PUSH1 0x0 REVERT JUMPDEST POP POP PUSH1 0x0 PUSH1 0x2 SWAP1 SWAP2 ADD SSTORE POP JUMP JUMPDEST PUSH1 0x1 PUSH1 0x1 PUSH1 0xA0 SHL SUB DUP2 AND PUSH1 0x0 SWAP1 DUP2 MSTORE PUSH1 0x5 PUSH1 0x20 SWAP1 DUP2 MSTORE PUSH1 0x40 DUP1 DUP4 KECCAK256 SLOAD DUP2 MLOAD SWAP3 DUP4 ADD MSTORE DUP3 SWAP2 ADD PUSH1 0x40 MLOAD PUSH1 0x20 DUP2 DUP4 SUB SUB DUP2 MSTORE SWAP1 PUSH1 0x40 MSTORE MLOAD GT PUSH2 0xD04 JUMPI PUSH1 0x40 MLOAD PUSH3 0x461BCD PUSH1 0xE5 SHL DUP2 MSTORE PUSH1 0x20 PUSH1 0x4 DUP3 ADD MSTORE PUSH1 0x1A PUSH1 0x24 DUP3 ADD MSTORE PUSH32 0x436F6E7472696275746F7220646F6573206E6F74206578697374000000000000 PUSH1 0x44 DUP3 ADD MSTORE PUSH1 0x64 ADD PUSH2 0x4CE JUMP JUMPDEST POP PUSH1 0x1 PUSH1 0x1 PUSH1 0xA0 SHL SUB AND PUSH1 0x0 SWAP1 DUP2 MSTORE PUSH1 0x5 PUSH1 0x20 SWAP1 DUP2 MSTORE PUSH1 0x40 DUP1 DUP4 KECCAK256 SLOAD DUP4 MSTORE PUSH1 0x6 SWAP1 SWAP2 MSTORE SWAP1 KECCAK256 PUSH1 0x2 ADD SLOAD SWAP1 JUMP JUMPDEST PUSH1 0x4 DUP1 SLOAD CALLER PUSH1 0x0 SWAP1 DUP2 MSTORE PUSH1 0x2 PUSH1 0x20 MSTORE PUSH1 0x40 DUP2 KECCAK256 PUSH7 0xFFFFFFFFFFFFFF SWAP3 DUP4 AND SWAP1 SSTORE DUP3 SLOAD SWAP1 SWAP3 PUSH1 0x3 SWAP3 DUP5 SWAP3 AND SWAP1 DUP3 PUSH2 0xD65 DUP4 PUSH2 0x1660 JUMP JUMPDEST SWAP2 SWAP1 PUSH2 0x100 EXP DUP2 SLOAD DUP2 PUSH7 0xFFFFFFFFFFFFFF MUL NOT AND SWAP1 DUP4 PUSH7 0xFFFFFFFFFFFFFF AND MUL OR SWAP1 SSTORE POP PUSH7 0xFFFFFFFFFFFFFF AND DUP2 MSTORE PUSH1 0x20 ADD SWAP1 DUP2 MSTORE PUSH1 0x20 ADD PUSH1 0x0 KECCAK256 SWAP1 POP DUP6 DUP6 DUP3 PUSH1 0x0 ADD SWAP2 DUP3 PUSH2 0xDB5 SWAP3 SWAP2 SWAP1 PUSH2 0x170B JUMP JUMPDEST POP PUSH1 0x1 DUP2 ADD PUSH2 0xDC5 DUP5 DUP7 DUP4 PUSH2 0x170B JUMP JUMPDEST POP PUSH1 0x0 PUSH1 0x3 DUP3 ADD DUP2 SWAP1 SSTORE PUSH1 0x5 DUP3 ADD DUP2 SWAP1 SSTORE PUSH1 0x7 DUP3 ADD DUP2 SWAP1 SSTORE PUSH1 0x8 DUP3 ADD DUP2 SWAP1 SSTORE PUSH1 0x9 DUP3 ADD DUP2 SWAP1 SSTORE PUSH1 0xA DUP3 ADD DUP2 SWAP1 SSTORE PUSH1 0xB DUP3 ADD DUP2 SWAP1 SSTORE PUSH1 0xC DUP3 ADD DUP2 SWAP1 SSTORE PUSH1 0x12 DUP3 ADD DUP2 SWAP1 SSTORE PUSH1 0xD DUP3 ADD SWAP3 SWAP1 SWAP3 SSTORE PUSH1 0xE DUP2 ADD DUP3 SWAP1 SSTORE PUSH1 0x10 ADD SSTORE POP POP POP POP JUMP JUMPDEST PUSH1 0x7 DUP1 SLOAD CALLER PUSH1 0x0 SWAP1 DUP2 MSTORE PUSH1 0x5 PUSH1 0x20 MSTORE PUSH1 0x40 DUP2 KECCAK256 PUSH7 0xFFFFFFFFFFFFFF SWAP3 DUP4 AND SWAP1 SSTORE DUP3 SLOAD SWAP1 SWAP3 PUSH1 0x6 SWAP3 DUP5 SWAP3 AND SWAP1 DUP3 PUSH2 0xE55 DUP4 PUSH2 0x1660 JUMP JUMPDEST SWAP2 SWAP1 PUSH2 0x100 EXP DUP2 SLOAD DUP2 PUSH7 0xFFFFFFFFFFFFFF MUL NOT AND SWAP1 DUP4 PUSH7 0xFFFFFFFFFFFFFF AND MUL OR SWAP1 SSTORE POP PUSH7 0xFFFFFFFFFFFFFF AND DUP2 MSTORE PUSH1 0x20 ADD SWAP1 DUP2 MSTORE PUSH1 0x20 ADD PUSH1 0x0 KECCAK256 SWAP1 POP DUP3 DUP3 DUP3 PUSH1 0x0 ADD SWAP2 DUP3 PUSH2 0xEA5 SWAP3 SWAP2 SWAP1 PUSH2 0x170B JUMP JUMPDEST POP PUSH1 0x0 PUSH1 0x3 DUP3 ADD DUP2 SWAP1 SSTORE PUSH1 0x2 SWAP1 SWAP2 ADD SSTORE POP POP JUMP JUMPDEST CALLER PUSH1 0x0 SWAP1 DUP2 MSTORE PUSH1 0x2 PUSH1 0x20 DUP2 DUP2 MSTORE PUSH1 0x40 DUP1 DUP5 KECCAK256 SLOAD DUP1 DUP6 MSTORE PUSH1 0x3 DUP1 DUP5 MSTORE DUP3 DUP7 KECCAK256 SWAP1 DUP2 ADD SLOAD DUP7 MSTORE SWAP4 DUP5 ADD SWAP1 SWAP3 MSTORE SWAP1 SWAP3 KECCAK256 DUP1 PUSH2 0xEF2 DUP6 DUP8 DUP4 PUSH2 0x170B JUMP JUMPDEST POP POP POP POP POP POP JUMP JUMPDEST CALLER PUSH1 0x0 SWAP1 DUP2 MSTORE PUSH1 0x5 PUSH1 0x20 DUP2 DUP2 MSTORE PUSH1 0x40 DUP1 DUP5 KECCAK256 SLOAD PUSH1 0x1 PUSH1 0x1 PUSH1 0xA0 SHL SUB DUP8 AND DUP6 MSTORE PUSH1 0x2 DUP4 MSTORE DUP2 DUP6 KECCAK256 SLOAD DUP1 DUP7 MSTORE PUSH1 0x3 SWAP1 SWAP4 MSTORE SWAP1 DUP5 KECCAK256 SWAP3 DUP4 ADD SLOAD SWAP1 SWAP4 SWAP2 SWAP3 PUSH1 0x4 ADD SWAP1 DUP3 SWAP1 PUSH2 0xF46 SWAP1 PUSH1 0x1 SWAP1 PUSH2 0x1621 JUMP JUMPDEST DUP2 MSTORE PUSH1 0x20 DUP2 ADD SWAP2 SWAP1 SWAP2 MSTORE PUSH1 0x40 ADD PUSH1 0x0 KECCAK256 DUP1 SLOAD SWAP1 SWAP2 POP PUSH1 0xFF AND PUSH2 0xFAA JUMPI PUSH1 0x40 MLOAD PUSH3 0x461BCD PUSH1 0xE5 SHL DUP2 MSTORE PUSH1 0x20 PUSH1 0x4 DUP3 ADD MSTORE PUSH1 0x1C PUSH1 0x24 DUP3 ADD MSTORE PUSH32 0x566F74696E672056656E74757265206973206E6F742061637469766500000000 PUSH1 0x44 DUP3 ADD MSTORE PUSH1 0x64 ADD PUSH2 0x4CE JUMP JUMPDEST PUSH1 0x0 DUP4 DUP2 MSTORE PUSH1 0x6 PUSH1 0x20 SWAP1 DUP2 MSTORE PUSH1 0x40 DUP1 DUP4 KECCAK256 DUP6 DUP5 MSTORE PUSH1 0x5 ADD SWAP1 SWAP2 MSTORE SWAP1 KECCAK256 SLOAD PUSH2 0xFD0 JUMPI PUSH1 0x0 DUP1 REVERT JUMPDEST CALLER PUSH1 0x0 SWAP1 DUP2 MSTORE PUSH1 0x5 DUP3 ADD PUSH1 0x20 MSTORE PUSH1 0x40 SWAP1 KECCAK256 SLOAD PUSH1 0xFF AND ISZERO PUSH2 0xFEF JUMPI PUSH1 0x0 DUP1 REVERT JUMPDEST PUSH1 0x1 SLOAD DUP2 PUSH1 0x1 ADD SLOAD PUSH2 0x1001 SWAP2 SWAP1 PUSH2 0x15CF JUMP JUMPDEST TIMESTAMP LT PUSH2 0x100C JUMPI PUSH1 0x0 DUP1 REVERT JUMPDEST CALLER PUSH1 0x0 SWAP1 DUP2 MSTORE PUSH1 0x5 DUP3 ADD PUSH1 0x20 MSTORE PUSH1 0x40 DUP2 KECCAK256 DUP1 SLOAD PUSH1 0xFF NOT AND PUSH1 0x1 OR SWAP1 SSTORE PUSH1 0x2 DUP3 ADD DUP1 SLOAD SWAP2 PUSH2 0x1038 DUP4 PUSH2 0x15B6 JUMP JUMPDEST SWAP2 SWAP1 POP SSTORE POP DUP4 ISZERO PUSH2 0x1080 JUMPI PUSH1 0x0 DUP4 DUP2 MSTORE PUSH1 0x6 PUSH1 0x20 SWAP1 DUP2 MSTORE PUSH1 0x40 DUP1 DUP4 KECCAK256 DUP6 DUP5 MSTORE PUSH1 0x5 ADD SWAP1 SWAP2 MSTORE DUP2 KECCAK256 SLOAD PUSH1 0x3 DUP4 ADD DUP1 SLOAD SWAP2 SWAP3 SWAP1 SWAP2 PUSH2 0x1075 SWAP1 DUP5 SWAP1 PUSH2 0x15CF JUMP JUMPDEST SWAP1 SWAP2 SSTORE POP PUSH2 0x10B8 SWAP1 POP JUMP JUMPDEST PUSH1 0x0 DUP4 DUP2 MSTORE PUSH1 0x6 PUSH1 0x20 SWAP1 DUP2 MSTORE PUSH1 0x40 DUP1 DUP4 KECCAK256 DUP6 DUP5 MSTORE PUSH1 0x5 ADD SWAP1 SWAP2 MSTORE DUP2 KECCAK256 SLOAD PUSH1 0x4 DUP4 ADD DUP1 SLOAD SWAP2 SWAP3 SWAP1 SWAP2 PUSH2 0x10B2 SWAP1 DUP5 SWAP1 PUSH2 0x15CF JUMP JUMPDEST SWAP1 SWAP2 SSTORE POP POP JUMPDEST PUSH1 0x0 DUP3 DUP2 MSTORE PUSH1 0x3 PUSH1 0x20 MSTORE PUSH1 0x40 SWAP1 KECCAK256 PUSH1 0xC ADD SLOAD PUSH2 0x10D5 SWAP1 PUSH1 0x1 PUSH2 0x15E8 JUMP JUMPDEST PUSH1 0x0 DUP5 DUP2 MSTORE PUSH1 0x6 PUSH1 0x20 SWAP1 DUP2 MSTORE PUSH1 0x40 DUP1 DUP4 KECCAK256 DUP7 DUP5 MSTORE PUSH1 0x5 ADD SWAP1 SWAP2 MSTORE DUP2 KECCAK256 DUP1 SLOAD SWAP1 SWAP2 SWAP1 PUSH2 0x1101 SWAP1 DUP5 SWAP1 PUSH2 0x15CF JUMP JUMPDEST SWAP1 SWAP2 SSTORE POP POP POP POP POP POP POP JUMP JUMPDEST CALLER PUSH1 0x0 SWAP1 DUP2 MSTORE PUSH1 0x2 PUSH1 0x20 SWAP1 DUP2 MSTORE PUSH1 0x40 DUP1 DUP4 KECCAK256 SLOAD DUP1 DUP5 MSTORE PUSH1 0x3 SWAP1 SWAP3 MSTORE DUP3 KECCAK256 PUSH1 0x5 DUP2 ADD SLOAD SWAP2 SWAP3 SWAP1 SWAP2 PUSH1 0x4 DUP4 ADD SWAP1 DUP3 SWAP1 PUSH2 0x1146 SWAP1 PUSH1 0x1 SWAP1 PUSH2 0x1621 JUMP JUMPDEST DUP2 MSTORE PUSH1 0x20 DUP2 ADD SWAP2 SWAP1 SWAP2 MSTORE PUSH1 0x40 ADD PUSH1 0x0 KECCAK256 DUP1 SLOAD SWAP1 SWAP2 POP PUSH1 0xFF AND PUSH2 0x119E JUMPI PUSH1 0x40 MLOAD PUSH3 0x461BCD PUSH1 0xE5 SHL DUP2 MSTORE PUSH1 0x20 PUSH1 0x4 DUP3 ADD MSTORE PUSH1 0x11 PUSH1 0x24 DUP3 ADD MSTORE PUSH17 0x4E6F206163746976652076656E74757265 PUSH1 0x78 SHL PUSH1 0x44 DUP3 ADD MSTORE PUSH1 0x64 ADD PUSH2 0x4CE JUMP JUMPDEST PUSH1 0x2 DUP3 PUSH1 0x7 ADD SLOAD PUSH2 0x11AF SWAP2 SWAP1 PUSH2 0x15FF JUMP JUMPDEST DUP2 PUSH1 0x2 ADD SLOAD GT PUSH2 0x11F5 JUMPI PUSH1 0x40 MLOAD PUSH3 0x461BCD PUSH1 0xE5 SHL DUP2 MSTORE PUSH1 0x20 PUSH1 0x4 DUP3 ADD MSTORE PUSH1 0x11 PUSH1 0x24 DUP3 ADD MSTORE PUSH17 0x4E6F7420656E6F75676820766F74657273 PUSH1 0x78 SHL PUSH1 0x44 DUP3 ADD MSTORE PUSH1 0x64 ADD PUSH2 0x4CE JUMP JUMPDEST DUP1 PUSH1 0x4 ADD SLOAD DUP2 PUSH1 0x3 ADD SLOAD GT ISZERO PUSH2 0x1223 JUMPI DUP1 PUSH1 0x6 ADD SLOAD DUP3 PUSH1 0xB ADD PUSH1 0x0 DUP3 DUP3 SLOAD PUSH2 0x121D SWAP2 SWAP1 PUSH2 0x15CF JUMP JUMPDEST SWAP1 SWAP2 SSTORE POP POP JUMPDEST DUP1 SLOAD PUSH1 0xFF NOT AND SWAP1 SSTORE POP POP JUMP JUMPDEST PUSH1 0x1 PUSH1 0x1 PUSH1 0xA0 SHL SUB DUP2 AND PUSH1 0x0 SWAP1 DUP2 MSTORE PUSH1 0x2 PUSH1 0x20 SWAP1 DUP2 MSTORE PUSH1 0x40 DUP1 DUP4 KECCAK256 SLOAD DUP1 DUP5 MSTORE PUSH1 0x3 SWAP1 SWAP3 MSTORE DUP3 KECCAK256 PUSH1 0x5 DUP2 ADD SLOAD DUP4 SWAP3 DUP4 SWAP3 DUP4 SWAP3 DUP4 SWAP3 DUP4 SWAP3 SWAP1 SWAP2 PUSH2 0x1286 JUMPI PUSH1 0x0 DUP1 PUSH1 0x0 DUP1 PUSH1 0x0 DUP1 SWAP8 POP SWAP8 POP SWAP8 POP SWAP8 POP SWAP8 POP SWAP8 POP POP POP PUSH2 0x12F4 JUMP JUMPDEST PUSH1 0x0 DUP2 PUSH1 0x4 ADD PUSH1 0x0 PUSH1 0x1 DUP5 PUSH1 0x5 ADD SLOAD PUSH2 0x129F SWAP2 SWAP1 PUSH2 0x1621 JUMP JUMPDEST DUP2 MSTORE PUSH1 0x20 DUP1 DUP3 ADD SWAP3 SWAP1 SWAP3 MSTORE PUSH1 0x40 SWAP1 DUP2 ADD PUSH1 0x0 SWAP1 DUP2 KECCAK256 DUP1 SLOAD PUSH1 0x2 DUP3 ADD SLOAD PUSH1 0x3 DUP4 ADD SLOAD PUSH1 0x4 DUP5 ADD SLOAD PUSH1 0x6 DUP6 ADD SLOAD CALLER DUP8 MSTORE PUSH1 0x5 SWAP1 SWAP6 ADD SWAP1 SWAP8 MSTORE SWAP5 SWAP1 SWAP4 KECCAK256 SLOAD PUSH1 0xFF SWAP2 DUP3 AND SWAP15 POP SWAP3 SWAP13 POP SWAP3 SWAP11 POP SWAP3 SWAP9 POP SWAP2 SWAP7 POP AND SWAP4 POP POP POP POP JUMPDEST SWAP2 SWAP4 SWAP6 POP SWAP2 SWAP4 SWAP6 JUMP JUMPDEST CALLER PUSH1 0x0 SWAP1 DUP2 MSTORE PUSH1 0x2 PUSH1 0x20 SWAP1 DUP2 MSTORE PUSH1 0x40 DUP1 DUP4 KECCAK256 SLOAD DUP1 DUP5 MSTORE PUSH1 0x3 SWAP1 SWAP3 MSTORE SWAP1 SWAP2 KECCAK256 PUSH1 0xB DUP2 ADD SLOAD PUSH2 0x136C JUMPI PUSH1 0x40 MLOAD PUSH3 0x461BCD PUSH1 0xE5 SHL DUP2 MSTORE PUSH1 0x20 PUSH1 0x4 DUP3 ADD MSTORE PUSH1 0x17 PUSH1 0x24 DUP3 ADD MSTORE PUSH32 0x4E6F20616D6F756E7420746F20626520636C61696D6564000000000000000000 PUSH1 0x44 DUP3 ADD MSTORE PUSH1 0x64 ADD PUSH2 0x4CE JUMP JUMPDEST PUSH1 0xB DUP2 ADD DUP1 SLOAD PUSH1 0x0 SWAP2 DUP3 SWAP1 SSTORE PUSH1 0x40 MLOAD SWAP1 SWAP2 CALLER SWAP2 DUP3 SWAP2 DUP5 ISZERO PUSH2 0x8FC MUL SWAP2 DUP6 SWAP2 DUP2 DUP2 DUP2 DUP6 DUP9 DUP9 CALL SWAP4 POP POP POP POP ISZERO DUP1 ISZERO PUSH2 0x13A7 JUMPI RETURNDATASIZE PUSH1 0x0 DUP1 RETURNDATACOPY RETURNDATASIZE PUSH1 0x0 REVERT JUMPDEST POP POP POP POP POP JUMP JUMPDEST DUP3 DUP1 SLOAD DUP3 DUP3 SSTORE SWAP1 PUSH1 0x0 MSTORE PUSH1 0x20 PUSH1 0x0 KECCAK256 SWAP1 DUP2 ADD SWAP3 DUP3 ISZERO PUSH2 0x13E9 JUMPI SWAP2 PUSH1 0x20 MUL DUP3 ADD JUMPDEST DUP3 DUP2 GT ISZERO PUSH2 0x13E9 JUMPI DUP3 MLOAD DUP3 SSTORE SWAP2 PUSH1 0x20 ADD SWAP2 SWAP1 PUSH1 0x1 ADD SWAP1 PUSH2 0x13CE JUMP JUMPDEST POP PUSH2 0x13F5 SWAP3 SWAP2 POP PUSH2 0x13F9 JUMP JUMPDEST POP SWAP1 JUMP JUMPDEST JUMPDEST DUP1 DUP3 GT ISZERO PUSH2 0x13F5 JUMPI PUSH1 0x0 DUP2 SSTORE PUSH1 0x1 ADD PUSH2 0x13FA JUMP JUMPDEST PUSH1 0x0 PUSH1 0x20 DUP3 DUP5 SUB SLT ISZERO PUSH2 0x1420 JUMPI PUSH1 0x0 DUP1 REVERT JUMPDEST POP CALLDATALOAD SWAP2 SWAP1 POP JUMP JUMPDEST DUP1 CALLDATALOAD PUSH1 0x1 PUSH1 0x1 PUSH1 0xA0 SHL SUB DUP2 AND DUP2 EQ PUSH2 0x143E JUMPI PUSH1 0x0 DUP1 REVERT JUMPDEST SWAP2 SWAP1 POP JUMP JUMPDEST PUSH1 0x0 PUSH1 0x20 DUP3 DUP5 SUB SLT ISZERO PUSH2 0x1455 JUMPI PUSH1 0x0 DUP1 REVERT JUMPDEST PUSH2 0x145E DUP3 PUSH2 0x1427 JUMP JUMPDEST SWAP4 SWAP3 POP POP POP JUMP JUMPDEST PUSH1 0x0 DUP1 DUP4 PUSH1 0x1F DUP5 ADD SLT PUSH2 0x1477 JUMPI PUSH1 0x0 DUP1 REVERT JUMPDEST POP DUP2 CALLDATALOAD PUSH8 0xFFFFFFFFFFFFFFFF DUP2 GT ISZERO PUSH2 0x148F JUMPI PUSH1 0x0 DUP1 REVERT JUMPDEST PUSH1 0x20 DUP4 ADD SWAP2 POP DUP4 PUSH1 0x20 DUP3 DUP6 ADD ADD GT ISZERO PUSH2 0x14A7 JUMPI PUSH1 0x0 DUP1 REVERT JUMPDEST SWAP3 POP SWAP3 SWAP1 POP JUMP JUMPDEST PUSH1 0x0 DUP1 PUSH1 0x0 DUP1 PUSH1 0x0 PUSH1 0x60 DUP7 DUP9 SUB SLT ISZERO PUSH2 0x14C6 JUMPI PUSH1 0x0 DUP1 REVERT JUMPDEST DUP6 CALLDATALOAD PUSH8 0xFFFFFFFFFFFFFFFF DUP1 DUP3 GT ISZERO PUSH2 0x14DE JUMPI PUSH1 0x0 DUP1 REVERT JUMPDEST PUSH2 0x14EA DUP10 DUP4 DUP11 ADD PUSH2 0x1465 JUMP JUMPDEST SWAP1 SWAP8 POP SWAP6 POP PUSH1 0x20 DUP9 ADD CALLDATALOAD SWAP2 POP DUP1 DUP3 GT ISZERO PUSH2 0x1503 JUMPI PUSH1 0x0 DUP1 REVERT JUMPDEST POP PUSH2 0x1510 DUP9 DUP3 DUP10 ADD PUSH2 0x1465 JUMP JUMPDEST SWAP7 SWAP10 SWAP6 SWAP9 POP SWAP7 PUSH1 0x40 ADD CALLDATALOAD SWAP5 SWAP4 POP POP POP POP JUMP JUMPDEST PUSH1 0x0 DUP1 PUSH1 0x20 DUP4 DUP6 SUB SLT ISZERO PUSH2 0x1535 JUMPI PUSH1 0x0 DUP1 REVERT JUMPDEST DUP3 CALLDATALOAD PUSH8 0xFFFFFFFFFFFFFFFF DUP2 GT ISZERO PUSH2 0x154C JUMPI PUSH1 0x0 DUP1 REVERT JUMPDEST PUSH2 0x1558 DUP6 DUP3 DUP7 ADD PUSH2 0x1465 JUMP JUMPDEST SWAP1 SWAP7 SWAP1 SWAP6 POP SWAP4 POP POP POP POP JUMP JUMPDEST PUSH1 0x0 DUP1 PUSH1 0x40 DUP4 DUP6 SUB SLT ISZERO PUSH2 0x1577 JUMPI PUSH1 0x0 DUP1 REVERT JUMPDEST PUSH2 0x1580 DUP4 PUSH2 0x1427 JUMP JUMPDEST SWAP2 POP PUSH1 0x20 DUP4 ADD CALLDATALOAD DUP1 ISZERO ISZERO DUP2 EQ PUSH2 0x1595 JUMPI PUSH1 0x0 DUP1 REVERT JUMPDEST DUP1 SWAP2 POP POP SWAP3 POP SWAP3 SWAP1 POP JUMP JUMPDEST PUSH4 0x4E487B71 PUSH1 0xE0 SHL PUSH1 0x0 MSTORE PUSH1 0x11 PUSH1 0x4 MSTORE PUSH1 0x24 PUSH1 0x0 REVERT JUMPDEST PUSH1 0x0 PUSH1 0x1 DUP3 ADD PUSH2 0x15C8 JUMPI PUSH2 0x15C8 PUSH2 0x15A0 JUMP JUMPDEST POP PUSH1 0x1 ADD SWAP1 JUMP JUMPDEST DUP1 DUP3 ADD DUP1 DUP3 GT ISZERO PUSH2 0x15E2 JUMPI PUSH2 0x15E2 PUSH2 0x15A0 JUMP JUMPDEST SWAP3 SWAP2 POP POP JUMP JUMPDEST DUP1 DUP3 MUL DUP2 ISZERO DUP3 DUP3 DIV DUP5 EQ OR PUSH2 0x15E2 JUMPI PUSH2 0x15E2 PUSH2 0x15A0 JUMP JUMPDEST PUSH1 0x0 DUP3 PUSH2 0x161C JUMPI PUSH4 0x4E487B71 PUSH1 0xE0 SHL PUSH1 0x0 MSTORE PUSH1 0x12 PUSH1 0x4 MSTORE PUSH1 0x24 PUSH1 0x0 REVERT JUMPDEST POP DIV SWAP1 JUMP JUMPDEST DUP2 DUP2 SUB DUP2 DUP2 GT ISZERO PUSH2 0x15E2 JUMPI PUSH2 0x15E2 PUSH2 0x15A0 JUMP JUMPDEST PUSH4 0x4E487B71 PUSH1 0xE0 SHL PUSH1 0x0 MSTORE PUSH1 0x32 PUSH1 0x4 MSTORE PUSH1 0x24 PUSH1 0x0 REVERT JUMPDEST PUSH4 0x4E487B71 PUSH1 0xE0 SHL PUSH1 0x0 MSTORE PUSH1 0x41 PUSH1 0x4 MSTORE PUSH1 0x24 PUSH1 0x0 REVERT JUMPDEST PUSH1 0x0 PUSH7 0xFFFFFFFFFFFFFF DUP1 DUP4 AND DUP2 DUP2 SUB PUSH2 0x167C JUMPI PUSH2 0x167C PUSH2 0x15A0 JUMP JUMPDEST PUSH1 0x1 ADD SWAP4 SWAP3 POP POP POP JUMP JUMPDEST PUSH1 0x1 DUP2 DUP2 SHR SWAP1 DUP3 AND DUP1 PUSH2 0x169A JUMPI PUSH1 0x7F DUP3 AND SWAP2 POP JUMPDEST PUSH1 0x20 DUP3 LT DUP2 SUB PUSH2 0x16BA JUMPI PUSH4 0x4E487B71 PUSH1 0xE0 SHL PUSH1 0x0 MSTORE PUSH1 0x22 PUSH1 0x4 MSTORE PUSH1 0x24 PUSH1 0x0 REVERT JUMPDEST POP SWAP2 SWAP1 POP JUMP JUMPDEST PUSH1 0x1F DUP3 GT ISZERO PUSH2 0x1706 JUMPI PUSH1 0x0 DUP2 DUP2 MSTORE PUSH1 0x20 DUP2 KECCAK256 PUSH1 0x1F DUP6 ADD PUSH1 0x5 SHR DUP2 ADD PUSH1 0x20 DUP7 LT ISZERO PUSH2 0x16E7 JUMPI POP DUP1 JUMPDEST PUSH1 0x1F DUP6 ADD PUSH1 0x5 SHR DUP3 ADD SWAP2 POP JUMPDEST DUP2 DUP2 LT ISZERO PUSH2 0xEF2 JUMPI DUP3 DUP2 SSTORE PUSH1 0x1 ADD PUSH2 0x16F3 JUMP JUMPDEST POP POP POP JUMP JUMPDEST PUSH8 0xFFFFFFFFFFFFFFFF DUP4 GT ISZERO PUSH2 0x1723 JUMPI PUSH2 0x1723 PUSH2 0x164A JUMP JUMPDEST PUSH2 0x1737 DUP4 PUSH2 0x1731 DUP4 SLOAD PUSH2 0x1686 JUMP JUMPDEST DUP4 PUSH2 0x16C0 JUMP JUMPDEST PUSH1 0x0 PUSH1 0x1F DUP5 GT PUSH1 0x1 DUP2 EQ PUSH2 0x176B JUMPI PUSH1 0x0 DUP6 ISZERO PUSH2 0x1753 JUMPI POP DUP4 DUP3 ADD CALLDATALOAD JUMPDEST PUSH1 0x0 NOT PUSH1 0x3 DUP8 SWAP1 SHL SHR NOT AND PUSH1 0x1 DUP7 SWAP1 SHL OR DUP4 SSTORE PUSH2 0x13A7 JUMP JUMPDEST PUSH1 0x0 DUP4 DUP2 MSTORE PUSH1 0x20 SWAP1 KECCAK256 PUSH1 0x1F NOT DUP7 AND SWAP1 DUP4 JUMPDEST DUP3 DUP2 LT ISZERO PUSH2 0x179C JUMPI DUP7 DUP6 ADD CALLDATALOAD DUP3 SSTORE PUSH1 0x20 SWAP5 DUP6 ADD SWAP5 PUSH1 0x1 SWAP1 SWAP3 ADD SWAP2 ADD PUSH2 0x177C JUMP JUMPDEST POP DUP7 DUP3 LT ISZERO PUSH2 0x17B9 JUMPI PUSH1 0x0 NOT PUSH1 0xF8 DUP9 PUSH1 0x3 SHL AND SHR NOT DUP5 DUP8 ADD CALLDATALOAD AND DUP2 SSTORE JUMPDEST POP POP PUSH1 0x1 DUP6 PUSH1 0x1 SHL ADD DUP4 SSTORE POP POP POP POP POP JUMP INVALID LOG2 PUSH5 0x6970667358 0x22 SLT KECCAK256 JUMPDEST 0xA7 0xF8 0x1E 0x5F 0xC3 SSTORE SWAP11 BYTE GASLIMIT 0x4A DUP5 PUSH18 0x3D410A3C21F93F855E3E391DBC7ECBC718A7 MSIZE PUSH5 0x736F6C6343 STOP ADDMOD GT STOP CALLER "},"methodIdentifiers":{"InitiateVoting(uint256)":"05620695","RegisterContributor(string)":"abff0333","RegisterCreator(string,string,uint256)":"a99620db","UploadProject(string)":"b64ed3d9","claimAmount()":"830953ab","claimAmountForCreator()":"d96c8bb7","contribute(address)":"73e888fd","currentMilesoneNumber(uint256)":"c02d9e1a","endVoting()":"c3403ddf","getContributorClaimableBalance()":"ea722b73","getMemebershipStrength(uint256)":"22c4ec8d","getMilestoneDetails(address)":"adda00e4","getTrustedForwarder()":"ce1b815f","getVotingStatus(address)":"d867909a","isTrustedForwarder(address)":"572b6c05","setMilestoneGoal(uint256)":"439efb91","viewClaimAmount(address)":"9bc1a95d","viewCreatorInfo(uint256)":"590a3143","vote(address,bool)":"bd041c4d"}}}}}