{"contracts/crowd_funding.sol":{"crowd_funding":{"abi":[{"inputs":[{"internalType":"uint256","name":"amount","type":"uint256"}],"name":"InitiateVoting","outputs":[],"stateMutability":"nonpayable","type":"function"},{"inputs":[{"internalType":"string","name":"name","type":"string"}],"name":"RegisterContributor","outputs":[],"stateMutability":"nonpayable","type":"function"},{"inputs":[{"internalType":"string","name":"name","type":"string"},{"internalType":"string","name":"category","type":"string"},{"internalType":"uint256","name":"milestoneGoal","type":"uint256"}],"name":"RegisterCreator","outputs":[],"stateMutability":"nonpayable","type":"function"},{"inputs":[{"internalType":"string","name":"name","type":"string"}],"name":"UploadProject","outputs":[],"stateMutability":"nonpayable","type":"function"},{"inputs":[],"name":"claimAmount","outputs":[],"stateMutability":"payable","type":"function"},{"inputs":[],"name":"claimAmountForCreator","outputs":[],"stateMutability":"payable","type":"function"},{"inputs":[{"internalType":"address","name":"creatorAddress","type":"address"}],"name":"contribute","outputs":[],"stateMutability":"payable","type":"function"},{"inputs":[{"internalType":"uint256","name":"creatorId","type":"uint256"}],"name":"currentMilesoneNumber","outputs":[{"internalType":"uint256","name":"","type":"uint256"}],"stateMutability":"view","type":"function"},{"inputs":[],"name":"endVoting","outputs":[],"stateMutability":"nonpayable","type":"function"},{"inputs":[],"name":"getContributorClaimableBalance","outputs":[{"internalType":"uint256","name":"","type":"uint256"}],"stateMutability":"view","type":"function"},{"inputs":[{"internalType":"uint256","name":"creatorId","type":"uint256"}],"name":"getMemebershipStrength","outputs":[{"internalType":"uint256","name":"","type":"uint256"}],"stateMutability":"view","type":"function"},{"inputs":[{"internalType":"address","name":"creatorAddress","type":"address"}],"name":"getMilestoneDetails","outputs":[{"internalType":"uint256","name":"goal","type":"uint256"},{"internalType":"uint256","name":"fundsRaised","type":"uint256"},{"internalType":"uint256","name":"milestoneNo","type":"uint256"}],"stateMutability":"view","type":"function"},{"inputs":[],"name":"getSubscriberList","outputs":[{"internalType":"uint256[]","name":"","type":"uint256[]"},{"internalType":"address[]","name":"","type":"address[]"}],"stateMutability":"view","type":"function"},{"inputs":[{"internalType":"address","name":"creatorAddress","type":"address"}],"name":"getVotingStatus","outputs":[{"internalType":"bool","name":"","type":"bool"},{"internalType":"uint256","name":"","type":"uint256"},{"internalType":"uint256","name":"","type":"uint256"},{"internalType":"uint256","name":"","type":"uint256"},{"internalType":"uint256","name":"","type":"uint256"},{"internalType":"bool","name":"","type":"bool"}],"stateMutability":"view","type":"function"},{"inputs":[{"internalType":"uint256","name":"newGoal","type":"uint256"}],"name":"setMilestoneGoal","outputs":[],"stateMutability":"nonpayable","type":"function"},{"inputs":[{"internalType":"address","name":"owner","type":"address"}],"name":"viewClaimAmount","outputs":[{"internalType":"uint256","name":"","type":"uint256"}],"stateMutability":"view","type":"function"},{"inputs":[{"internalType":"address","name":"creatorAddress","type":"address"}],"name":"viewCreatorInfo","outputs":[{"internalType":"uint256","name":"","type":"uint256"},{"internalType":"uint256","name":"","type":"uint256"},{"internalType":"uint256","name":"","type":"uint256"},{"internalType":"uint256","name":"","type":"uint256"}],"stateMutability":"view","type":"function"},{"inputs":[{"internalType":"address","name":"creatorAddress","type":"address"},{"internalType":"bool","name":"isUpvote","type":"bool"}],"name":"vote","outputs":[],"stateMutability":"nonpayable","type":"function"}],"evm":{"bytecode":{"linkReferences":{},"object":"608060405261138860009081556003556006805466ffffffffffffff1916905534801561002b57600080fd5b506119e88061003b6000396000f3fe6080604052600436106101095760003560e01c8063abff033311610095578063c02d9e1a11610064578063c02d9e1a14610371578063c3403ddf146103a1578063d867909a146103b6578063d96c8bb714610407578063ea722b731461040f57600080fd5b8063abff0333146102a3578063adda00e4146102c3578063b64ed3d914610331578063bd041c4d1461035157600080fd5b806373e888fd116100dc57806373e888fd146101cc578063830953ab146101df5780638c6f8f3a146101e75780639bc1a95d14610263578063a99620db1461028357600080fd5b8063056206951461010e57806322c4ec8d14610130578063439efb911461018957806351d5d80d146101a9575b600080fd5b34801561011a57600080fd5b5061012e610129366004611571565b610441565b005b34801561013c57600080fd5b5061017661014b366004611571565b3360009081526004602090815260408083205483526005808352818420948452939093019052205490565b6040519081526020015b60405180910390f35b34801561019557600080fd5b5061012e6101a4366004611571565b6105be565b3480156101b557600080fd5b506101be610650565b60405161018092919061158a565b61012e6101da36600461162a565b6107ad565b61012e610cce565b3480156101f357600080fd5b5061024361020236600461162a565b6001600160a01b03166000908152600160209081526040808320548352600290915290206008810154600a820154600b830154601190930154919390929190565b604080519485526020850193909352918301526060820152608001610180565b34801561026f57600080fd5b5061017661027e36600461162a565b610df4565b34801561028f57600080fd5b5061012e61029e366004611695565b610ea2565b3480156102af57600080fd5b5061012e6102be366004611709565b610f69565b3480156102cf57600080fd5b506103166102de36600461162a565b6001600160a01b03166000908152600160209081526040808320548352600290915290206013810154600e820154600f909201549192565b60408051938452602084019290925290820152606001610180565b34801561033d57600080fd5b5061012e61034c366004611709565b611002565b34801561035d57600080fd5b5061012e61036c36600461174b565b611043565b34801561037d57600080fd5b5061017661038c366004611571565b60009081526002602052604090206013015490565b3480156103ad57600080fd5b5061012e611252565b3480156103c257600080fd5b506103d66103d136600461162a565b611392565b60408051961515875260208701959095529385019290925260608401526080830152151560a082015260c001610180565b61012e611460565b34801561041b57600080fd5b503360009081526004602090815260408083205483526005909152902060020154610176565b336000908152600160209081526040808320548084526002909252909120600a8101548084106104c85760405162461bcd60e51b815260206004820152602760248201527f596f7520646f6e6f74206861766520656e6f7567682072656465656d61626c6560448201526608185b5bdd5b9d60ca1b60648201526084015b60405180910390fd5b600682015460009081526005830160205260409020805460ff16156105555760405162461bcd60e51b815260206004820152603d60248201527f4120766f74696e672076656e7475726520697320616c7265616479206f6e206760448201527f6f696e67212043616e6e6f74206372656174652061206e6577206f6e6500000060648201526084016104bf565b600683018054600091600586019183918261056f8361179d565b9091555081526020810191909152604001600090812060068101979097556003870181905560048701819055426001808901919091556002880191909155865460ff1916179095555050505050565b3360009081526001602090815260408083205481519283015201604051602081830303815290604052511161062e5760405162461bcd60e51b815260206004820152601660248201527510dc99585d1bdc88191bd95cc81b9bdd08195e1a5cdd60521b60448201526064016104bf565b33600090815260016020908152604080832054835260029091529020600e0155565b33600090815260046020908152604080832054808452600590925282206003546060938493929167ffffffffffffffff81111561068f5761068f6117b6565b6040519080825280602002602001820160405280156106b8578160200160208202803683370190505b509050600060035467ffffffffffffffff8111156106d8576106d86117b6565b604051908082528060200260200182016040528015610701578160200160208202803683370190505b50905060005b6003548110156107a15760008181526004850160205260409020548351849083908110610736576107366117cc565b60209081029190910181019190915260008281526002909152604090206001015482516001600160a01b0390911690839083908110610777576107776117cc565b6001600160a01b0390921660209283029190910190910152806107998161179d565b915050610707565b50909590945092505050565b600034116107e75760405162461bcd60e51b81526020600482015260076024820152664761726565623f60c81b60448201526064016104bf565b336000908152600460208181526040808420546001600160a01b038616855260018352818520548186526005845282862081875294850190935290842054349491939103610860576001808201805491820181556000908152602081209091018390556003820180549161085a8361179d565b91905055505b6000828152600482016020526040812080548692906108809084906117e2565b90915550506000828152600260205260408120600d81018054919287926108a89084906117e2565b92505081905550848160090160008282546108c391906117e2565b90915550606490506108d686605f6117fb565b6108e09190611812565b81600a0160008282546108f391906117e2565b90915550606490506109068660056117fb565b6109109190611812565b81600b01600082825461092391906117e2565b9091555050600e81018054600f83015461093e9088906117e2565b10156109ce578581600101600082825461095891906117e2565b9091555050600085815260048201602052604081205490036109a357600281018054600181018255600091825260208220018690556003820180549161099d8361179d565b91905055505b6000858152600482016020526040812080548892906109c39084906117e2565b90915550610c919050565b600181015481546000916109e191611834565b905060006109ef8289611834565b905081836001016000828254610a0591906117e2565b909155505060008781526004840160205260408120549003610a50576002830180546001810182556000918252602082200188905560038401805491610a4a8361179d565b91905055505b600087815260048401602052604081208054849290610a709084906117e2565b90915550600090505b8360030154811015610b45576000846002018281548110610a9c57610a9c6117cc565b9060005260206000200154905060006064866004016000848152602001908152602001600020546005610acf91906117fb565b610ad99190611812565b905080600560008481526020019081526020016000206002016000828254610b0191906117e2565b9250508190555080876009016000828254610b1c9190611834565b909155505050600090815260048501602052604081205580610b3d8161179d565b915050610a79565b506040805160008152602081019182905251610b65916002860191611511565b50600060038401819055600184018190558354610b829083611812565b610b8d9060016117e2565b905080856013016000828254610ba391906117e2565b909155505081610bb95750505050505050505050565b600284018054600181810183556000928352602090922001899055845490610be19083611834565b610beb91906117fb565b610bf59083611834565b6000898152600486016020526040902055610c11600182611834565b8454610c1d91906117fb565b610c279083611834565b6001808601919091558454606491610c3f9084611834565b610c4991906117fb565b610c549060056117fb565b610c5e9190611812565b866002016000828254610c7191906117e2565b9091555050600384018054906000610c888361179d565b91905055505050505b600d820154610ca090876117fb565b600085815260058501602052604081208054909190610cc09084906117e2565b909155505050505050505050565b33600090815260046020908152604080832054815192830152016040516020818303038152906040525111610d455760405162461bcd60e51b815260206004820152601a60248201527f436f6e7472696275746f7220646f6573206e6f7420657869737400000000000060448201526064016104bf565b3360009081526004602090815260408083205480845260059092529091206002810154610db45760405162461bcd60e51b815260206004820152601860248201527f4e6f7420656e6f7567682066756e6420746f20636c61696d000000000000000060448201526064016104bf565b60028101546040513391829181156108fc0291906000818181858888f19350505050158015610de7573d6000803e3d6000fd5b5050600060029091015550565b6001600160a01b0381166000908152600460209081526040808320548151928301528291016040516020818303038152906040525111610e765760405162461bcd60e51b815260206004820152601a60248201527f436f6e7472696275746f7220646f6573206e6f7420657869737400000000000060448201526064016104bf565b506001600160a01b03166000908152600460209081526040808320548352600590915290206002015490565b6003805433600090815260016020526040812082905591600291839182610ec88361179d565b9091555081526020810191909152604001600020905080610eea8688836118cc565b5060028101610efa8486836118cc565b506001810180546001600160a01b03191633179055600060048201819055600682018190556008820181905560098201819055600a8201819055600b8201819055600c8201819055600d820181905560138201819055600e820192909255600f81018290556011015550505050565b6006805433600090815260046020526040812066ffffffffffffff9283169055825490926005928492169082610f9e8361198c565b91906101000a81548166ffffffffffffff021916908366ffffffffffffff16021790555066ffffffffffffff16815260200190815260200160002090508282826000019182610fee9291906118cc565b506000600382018190556002909101555050565b3360009081526001602090815260408083205480845260028352818420600481015485526003810190935292208061103b8587836118cc565b505050505050565b336000908152600460209081526040808320546001600160a01b038616845260018084528285205480865260029094529184206006810154919492600590910191839161108f91611834565b81526020810191909152604001600020805490915060ff166110f35760405162461bcd60e51b815260206004820152601c60248201527f566f74696e672056656e74757265206973206e6f74206163746976650000000060448201526064016104bf565b6000838152600560208181526040808420868552909201905290205461111857600080fd5b33600090815260058201602052604090205460ff161561113757600080fd5b600054816001015461114991906117e2565b421061115457600080fd5b3360009081526005820160205260408120805460ff19166001179055600282018054916111808361179d565b919050555083156111c75760008381526005602081815260408084208685529092019052812054600383018054919290916111bc9084906117e2565b909155506111fe9050565b60008381526005602081815260408084208685529092019052812054600483018054919290916111f89084906117e2565b90915550505b6000828152600260205260409020600d015461121b9060016117fb565b60008481526005602081815260408084208785529092019052812080549091906112469084906117e2565b90915550505050505050565b336000908152600160208181526040808420548085526002909252832060068101549193909290916005840191839161128b9190611834565b81526020810191909152604001600020805490915060ff166112e35760405162461bcd60e51b81526020600482015260116024820152704e6f206163746976652076656e7475726560781b60448201526064016104bf565b600282600801546112f49190611812565b81600201541161133a5760405162461bcd60e51b81526020600482015260116024820152704e6f7420656e6f75676820766f7465727360781b60448201526064016104bf565b80600401548160030154111561138657806006015482600c01600082825461136291906117e2565b90915550506006810154600a83018054600090611380908490611834565b90915550505b805460ff191690555050565b6001600160a01b0381166000908152600160209081526040808320548084526002909252822060068101548392839283928392839290916113e9576000806000806000809750975097509750975097505050611457565b6000816005016000600184600601546114029190611834565b815260208082019290925260409081016000908120805460028201546003830154600484015460068501543387526005909501909752949093205460ff9182169e50929c50929a509298509196501693505050505b91939550919395565b336000908152600160209081526040808320548084526002909252909120600c8101546114cf5760405162461bcd60e51b815260206004820152601760248201527f4e6f20616d6f756e7420746f20626520636c61696d656400000000000000000060448201526064016104bf565b600c8101805460009182905560405190913391829184156108fc02918591818181858888f1935050505015801561150a573d6000803e3d6000fd5b5050505050565b82805482825590600052602060002090810192821561154c579160200282015b8281111561154c578251825591602001919060010190611531565b5061155892915061155c565b5090565b5b80821115611558576000815560010161155d565b60006020828403121561158357600080fd5b5035919050565b604080825283519082018190526000906020906060840190828701845b828110156115c3578151845292840192908401906001016115a7565b5050508381038285015284518082528583019183019060005b818110156116015783516001600160a01b0316835292840192918401916001016115dc565b5090979650505050505050565b80356001600160a01b038116811461162557600080fd5b919050565b60006020828403121561163c57600080fd5b6116458261160e565b9392505050565b60008083601f84011261165e57600080fd5b50813567ffffffffffffffff81111561167657600080fd5b60208301915083602082850101111561168e57600080fd5b9250929050565b6000806000806000606086880312156116ad57600080fd5b853567ffffffffffffffff808211156116c557600080fd5b6116d189838a0161164c565b909750955060208801359150808211156116ea57600080fd5b506116f78882890161164c565b96999598509660400135949350505050565b6000806020838503121561171c57600080fd5b823567ffffffffffffffff81111561173357600080fd5b61173f8582860161164c565b90969095509350505050565b6000806040838503121561175e57600080fd5b6117678361160e565b91506020830135801515811461177c57600080fd5b809150509250929050565b634e487b7160e01b600052601160045260246000fd5b6000600182016117af576117af611787565b5060010190565b634e487b7160e01b600052604160045260246000fd5b634e487b7160e01b600052603260045260246000fd5b808201808211156117f5576117f5611787565b92915050565b80820281158282048414176117f5576117f5611787565b60008261182f57634e487b7160e01b600052601260045260246000fd5b500490565b818103818111156117f5576117f5611787565b600181811c9082168061185b57607f821691505b60208210810361187b57634e487b7160e01b600052602260045260246000fd5b50919050565b601f8211156118c757600081815260208120601f850160051c810160208610156118a85750805b601f850160051c820191505b8181101561103b578281556001016118b4565b505050565b67ffffffffffffffff8311156118e4576118e46117b6565b6118f8836118f28354611847565b83611881565b6000601f84116001811461192c57600085156119145750838201355b600019600387901b1c1916600186901b17835561150a565b600083815260209020601f19861690835b8281101561195d578685013582556020948501946001909201910161193d565b508682101561197a5760001960f88860031b161c19848701351681555b505060018560011b0183555050505050565b600066ffffffffffffff8083168181036119a8576119a8611787565b600101939250505056fea2646970667358221220ce8463752bcd266c5a16cfdc685aafc6a7a692c1c1dfee1467b981bb825c196d64736f6c63430008110033","opcodes":"PUSH1 0x80 PUSH1 0x40 MSTORE PUSH2 0x1388 PUSH1 0x0 SWAP1 DUP2 SSTORE PUSH1 0x3 SSTORE PUSH1 0x6 DUP1 SLOAD PUSH7 0xFFFFFFFFFFFFFF NOT AND SWAP1 SSTORE CALLVALUE DUP1 ISZERO PUSH2 0x2B JUMPI PUSH1 0x0 DUP1 REVERT JUMPDEST POP PUSH2 0x19E8 DUP1 PUSH2 0x3B PUSH1 0x0 CODECOPY PUSH1 0x0 RETURN INVALID PUSH1 0x80 PUSH1 0x40 MSTORE PUSH1 0x4 CALLDATASIZE LT PUSH2 0x109 JUMPI PUSH1 0x0 CALLDATALOAD PUSH1 0xE0 SHR DUP1 PUSH4 0xABFF0333 GT PUSH2 0x95 JUMPI DUP1 PUSH4 0xC02D9E1A GT PUSH2 0x64 JUMPI DUP1 PUSH4 0xC02D9E1A EQ PUSH2 0x371 JUMPI DUP1 PUSH4 0xC3403DDF EQ PUSH2 0x3A1 JUMPI DUP1 PUSH4 0xD867909A EQ PUSH2 0x3B6 JUMPI DUP1 PUSH4 0xD96C8BB7 EQ PUSH2 0x407 JUMPI DUP1 PUSH4 0xEA722B73 EQ PUSH2 0x40F JUMPI PUSH1 0x0 DUP1 REVERT JUMPDEST DUP1 PUSH4 0xABFF0333 EQ PUSH2 0x2A3 JUMPI DUP1 PUSH4 0xADDA00E4 EQ PUSH2 0x2C3 JUMPI DUP1 PUSH4 0xB64ED3D9 EQ PUSH2 0x331 JUMPI DUP1 PUSH4 0xBD041C4D EQ PUSH2 0x351 JUMPI PUSH1 0x0 DUP1 REVERT JUMPDEST DUP1 PUSH4 0x73E888FD GT PUSH2 0xDC JUMPI DUP1 PUSH4 0x73E888FD EQ PUSH2 0x1CC JUMPI DUP1 PUSH4 0x830953AB EQ PUSH2 0x1DF JUMPI DUP1 PUSH4 0x8C6F8F3A EQ PUSH2 0x1E7 JUMPI DUP1 PUSH4 0x9BC1A95D EQ PUSH2 0x263 JUMPI DUP1 PUSH4 0xA99620DB EQ PUSH2 0x283 JUMPI PUSH1 0x0 DUP1 REVERT JUMPDEST DUP1 PUSH4 0x5620695 EQ PUSH2 0x10E JUMPI DUP1 PUSH4 0x22C4EC8D EQ PUSH2 0x130 JUMPI DUP1 PUSH4 0x439EFB91 EQ PUSH2 0x189 JUMPI DUP1 PUSH4 0x51D5D80D EQ PUSH2 0x1A9 JUMPI JUMPDEST PUSH1 0x0 DUP1 REVERT JUMPDEST CALLVALUE DUP1 ISZERO PUSH2 0x11A JUMPI PUSH1 0x0 DUP1 REVERT JUMPDEST POP PUSH2 0x12E PUSH2 0x129 CALLDATASIZE PUSH1 0x4 PUSH2 0x1571 JUMP JUMPDEST PUSH2 0x441 JUMP JUMPDEST STOP JUMPDEST CALLVALUE DUP1 ISZERO PUSH2 0x13C JUMPI PUSH1 0x0 DUP1 REVERT JUMPDEST POP PUSH2 0x176 PUSH2 0x14B CALLDATASIZE PUSH1 0x4 PUSH2 0x1571 JUMP JUMPDEST CALLER PUSH1 0x0 SWAP1 DUP2 MSTORE PUSH1 0x4 PUSH1 0x20 SWAP1 DUP2 MSTORE PUSH1 0x40 DUP1 DUP4 KECCAK256 SLOAD DUP4 MSTORE PUSH1 0x5 DUP1 DUP4 MSTORE DUP2 DUP5 KECCAK256 SWAP5 DUP5 MSTORE SWAP4 SWAP1 SWAP4 ADD SWAP1 MSTORE KECCAK256 SLOAD SWAP1 JUMP JUMPDEST PUSH1 0x40 MLOAD SWAP1 DUP2 MSTORE PUSH1 0x20 ADD JUMPDEST PUSH1 0x40 MLOAD DUP1 SWAP2 SUB SWAP1 RETURN JUMPDEST CALLVALUE DUP1 ISZERO PUSH2 0x195 JUMPI PUSH1 0x0 DUP1 REVERT JUMPDEST POP PUSH2 0x12E PUSH2 0x1A4 CALLDATASIZE PUSH1 0x4 PUSH2 0x1571 JUMP JUMPDEST PUSH2 0x5BE JUMP JUMPDEST CALLVALUE DUP1 ISZERO PUSH2 0x1B5 JUMPI PUSH1 0x0 DUP1 REVERT JUMPDEST POP PUSH2 0x1BE PUSH2 0x650 JUMP JUMPDEST PUSH1 0x40 MLOAD PUSH2 0x180 SWAP3 SWAP2 SWAP1 PUSH2 0x158A JUMP JUMPDEST PUSH2 0x12E PUSH2 0x1DA CALLDATASIZE PUSH1 0x4 PUSH2 0x162A JUMP JUMPDEST PUSH2 0x7AD JUMP JUMPDEST PUSH2 0x12E PUSH2 0xCCE JUMP JUMPDEST CALLVALUE DUP1 ISZERO PUSH2 0x1F3 JUMPI PUSH1 0x0 DUP1 REVERT JUMPDEST POP PUSH2 0x243 PUSH2 0x202 CALLDATASIZE PUSH1 0x4 PUSH2 0x162A JUMP JUMPDEST PUSH1 0x1 PUSH1 0x1 PUSH1 0xA0 SHL SUB AND PUSH1 0x0 SWAP1 DUP2 MSTORE PUSH1 0x1 PUSH1 0x20 SWAP1 DUP2 MSTORE PUSH1 0x40 DUP1 DUP4 KECCAK256 SLOAD DUP4 MSTORE PUSH1 0x2 SWAP1 SWAP2 MSTORE SWAP1 KECCAK256 PUSH1 0x8 DUP2 ADD SLOAD PUSH1 0xA DUP3 ADD SLOAD PUSH1 0xB DUP4 ADD SLOAD PUSH1 0x11 SWAP1 SWAP4 ADD SLOAD SWAP2 SWAP4 SWAP1 SWAP3 SWAP2 SWAP1 JUMP JUMPDEST PUSH1 0x40 DUP1 MLOAD SWAP5 DUP6 MSTORE PUSH1 0x20 DUP6 ADD SWAP4 SWAP1 SWAP4 MSTORE SWAP2 DUP4 ADD MSTORE PUSH1 0x60 DUP3 ADD MSTORE PUSH1 0x80 ADD PUSH2 0x180 JUMP JUMPDEST CALLVALUE DUP1 ISZERO PUSH2 0x26F JUMPI PUSH1 0x0 DUP1 REVERT JUMPDEST POP PUSH2 0x176 PUSH2 0x27E CALLDATASIZE PUSH1 0x4 PUSH2 0x162A JUMP JUMPDEST PUSH2 0xDF4 JUMP JUMPDEST CALLVALUE DUP1 ISZERO PUSH2 0x28F JUMPI PUSH1 0x0 DUP1 REVERT JUMPDEST POP PUSH2 0x12E PUSH2 0x29E CALLDATASIZE PUSH1 0x4 PUSH2 0x1695 JUMP JUMPDEST PUSH2 0xEA2 JUMP JUMPDEST CALLVALUE DUP1 ISZERO PUSH2 0x2AF JUMPI PUSH1 0x0 DUP1 REVERT JUMPDEST POP PUSH2 0x12E PUSH2 0x2BE CALLDATASIZE PUSH1 0x4 PUSH2 0x1709 JUMP JUMPDEST PUSH2 0xF69 JUMP JUMPDEST CALLVALUE DUP1 ISZERO PUSH2 0x2CF JUMPI PUSH1 0x0 DUP1 REVERT JUMPDEST POP PUSH2 0x316 PUSH2 0x2DE CALLDATASIZE PUSH1 0x4 PUSH2 0x162A JUMP JUMPDEST PUSH1 0x1 PUSH1 0x1 PUSH1 0xA0 SHL SUB AND PUSH1 0x0 SWAP1 DUP2 MSTORE PUSH1 0x1 PUSH1 0x20 SWAP1 DUP2 MSTORE PUSH1 0x40 DUP1 DUP4 KECCAK256 SLOAD DUP4 MSTORE PUSH1 0x2 SWAP1 SWAP2 MSTORE SWAP1 KECCAK256 PUSH1 0x13 DUP2 ADD SLOAD PUSH1 0xE DUP3 ADD SLOAD PUSH1 0xF SWAP1 SWAP3 ADD SLOAD SWAP2 SWAP3 JUMP JUMPDEST PUSH1 0x40 DUP1 MLOAD SWAP4 DUP5 MSTORE PUSH1 0x20 DUP5 ADD SWAP3 SWAP1 SWAP3 MSTORE SWAP1 DUP3 ADD MSTORE PUSH1 0x60 ADD PUSH2 0x180 JUMP JUMPDEST CALLVALUE DUP1 ISZERO PUSH2 0x33D JUMPI PUSH1 0x0 DUP1 REVERT JUMPDEST POP PUSH2 0x12E PUSH2 0x34C CALLDATASIZE PUSH1 0x4 PUSH2 0x1709 JUMP JUMPDEST PUSH2 0x1002 JUMP JUMPDEST CALLVALUE DUP1 ISZERO PUSH2 0x35D JUMPI PUSH1 0x0 DUP1 REVERT JUMPDEST POP PUSH2 0x12E PUSH2 0x36C CALLDATASIZE PUSH1 0x4 PUSH2 0x174B JUMP JUMPDEST PUSH2 0x1043 JUMP JUMPDEST CALLVALUE DUP1 ISZERO PUSH2 0x37D JUMPI PUSH1 0x0 DUP1 REVERT JUMPDEST POP PUSH2 0x176 PUSH2 0x38C CALLDATASIZE PUSH1 0x4 PUSH2 0x1571 JUMP JUMPDEST PUSH1 0x0 SWAP1 DUP2 MSTORE PUSH1 0x2 PUSH1 0x20 MSTORE PUSH1 0x40 SWAP1 KECCAK256 PUSH1 0x13 ADD SLOAD SWAP1 JUMP JUMPDEST CALLVALUE DUP1 ISZERO PUSH2 0x3AD JUMPI PUSH1 0x0 DUP1 REVERT JUMPDEST POP PUSH2 0x12E PUSH2 0x1252 JUMP JUMPDEST CALLVALUE DUP1 ISZERO PUSH2 0x3C2 JUMPI PUSH1 0x0 DUP1 REVERT JUMPDEST POP PUSH2 0x3D6 PUSH2 0x3D1 CALLDATASIZE PUSH1 0x4 PUSH2 0x162A JUMP JUMPDEST PUSH2 0x1392 JUMP JUMPDEST PUSH1 0x40 DUP1 MLOAD SWAP7 ISZERO ISZERO DUP8 MSTORE PUSH1 0x20 DUP8 ADD SWAP6 SWAP1 SWAP6 MSTORE SWAP4 DUP6 ADD SWAP3 SWAP1 SWAP3 MSTORE PUSH1 0x60 DUP5 ADD MSTORE PUSH1 0x80 DUP4 ADD MSTORE ISZERO ISZERO PUSH1 0xA0 DUP3 ADD MSTORE PUSH1 0xC0 ADD PUSH2 0x180 JUMP JUMPDEST PUSH2 0x12E PUSH2 0x1460 JUMP JUMPDEST CALLVALUE DUP1 ISZERO PUSH2 0x41B JUMPI PUSH1 0x0 DUP1 REVERT JUMPDEST POP CALLER PUSH1 0x0 SWAP1 DUP2 MSTORE PUSH1 0x4 PUSH1 0x20 SWAP1 DUP2 MSTORE PUSH1 0x40 DUP1 DUP4 KECCAK256 SLOAD DUP4 MSTORE PUSH1 0x5 SWAP1 SWAP2 MSTORE SWAP1 KECCAK256 PUSH1 0x2 ADD SLOAD PUSH2 0x176 JUMP JUMPDEST CALLER PUSH1 0x0 SWAP1 DUP2 MSTORE PUSH1 0x1 PUSH1 0x20 SWAP1 DUP2 MSTORE PUSH1 0x40 DUP1 DUP4 KECCAK256 SLOAD DUP1 DUP5 MSTORE PUSH1 0x2 SWAP1 SWAP3 MSTORE SWAP1 SWAP2 KECCAK256 PUSH1 0xA DUP2 ADD SLOAD DUP1 DUP5 LT PUSH2 0x4C8 JUMPI PUSH1 0x40 MLOAD PUSH3 0x461BCD PUSH1 0xE5 SHL DUP2 MSTORE PUSH1 0x20 PUSH1 0x4 DUP3 ADD MSTORE PUSH1 0x27 PUSH1 0x24 DUP3 ADD MSTORE PUSH32 0x596F7520646F6E6F74206861766520656E6F7567682072656465656D61626C65 PUSH1 0x44 DUP3 ADD MSTORE PUSH7 0x8185B5BDD5B9D PUSH1 0xCA SHL PUSH1 0x64 DUP3 ADD MSTORE PUSH1 0x84 ADD JUMPDEST PUSH1 0x40 MLOAD DUP1 SWAP2 SUB SWAP1 REVERT JUMPDEST PUSH1 0x6 DUP3 ADD SLOAD PUSH1 0x0 SWAP1 DUP2 MSTORE PUSH1 0x5 DUP4 ADD PUSH1 0x20 MSTORE PUSH1 0x40 SWAP1 KECCAK256 DUP1 SLOAD PUSH1 0xFF AND ISZERO PUSH2 0x555 JUMPI PUSH1 0x40 MLOAD PUSH3 0x461BCD PUSH1 0xE5 SHL DUP2 MSTORE PUSH1 0x20 PUSH1 0x4 DUP3 ADD MSTORE PUSH1 0x3D PUSH1 0x24 DUP3 ADD MSTORE PUSH32 0x4120766F74696E672076656E7475726520697320616C7265616479206F6E2067 PUSH1 0x44 DUP3 ADD MSTORE PUSH32 0x6F696E67212043616E6E6F74206372656174652061206E6577206F6E65000000 PUSH1 0x64 DUP3 ADD MSTORE PUSH1 0x84 ADD PUSH2 0x4BF JUMP JUMPDEST PUSH1 0x6 DUP4 ADD DUP1 SLOAD PUSH1 0x0 SWAP2 PUSH1 0x5 DUP7 ADD SWAP2 DUP4 SWAP2 DUP3 PUSH2 0x56F DUP4 PUSH2 0x179D JUMP JUMPDEST SWAP1 SWAP2 SSTORE POP DUP2 MSTORE PUSH1 0x20 DUP2 ADD SWAP2 SWAP1 SWAP2 MSTORE PUSH1 0x40 ADD PUSH1 0x0 SWAP1 DUP2 KECCAK256 PUSH1 0x6 DUP2 ADD SWAP8 SWAP1 SWAP8 SSTORE PUSH1 0x3 DUP8 ADD DUP2 SWAP1 SSTORE PUSH1 0x4 DUP8 ADD DUP2 SWAP1 SSTORE TIMESTAMP PUSH1 0x1 DUP1 DUP10 ADD SWAP2 SWAP1 SWAP2 SSTORE PUSH1 0x2 DUP9 ADD SWAP2 SWAP1 SWAP2 SSTORE DUP7 SLOAD PUSH1 0xFF NOT AND OR SWAP1 SWAP6 SSTORE POP POP POP POP POP JUMP JUMPDEST CALLER PUSH1 0x0 SWAP1 DUP2 MSTORE PUSH1 0x1 PUSH1 0x20 SWAP1 DUP2 MSTORE PUSH1 0x40 DUP1 DUP4 KECCAK256 SLOAD DUP2 MLOAD SWAP3 DUP4 ADD MSTORE ADD PUSH1 0x40 MLOAD PUSH1 0x20 DUP2 DUP4 SUB SUB DUP2 MSTORE SWAP1 PUSH1 0x40 MSTORE MLOAD GT PUSH2 0x62E JUMPI PUSH1 0x40 MLOAD PUSH3 0x461BCD PUSH1 0xE5 SHL DUP2 MSTORE PUSH1 0x20 PUSH1 0x4 DUP3 ADD MSTORE PUSH1 0x16 PUSH1 0x24 DUP3 ADD MSTORE PUSH22 0x10DC99585D1BDC88191BD95CC81B9BDD08195E1A5CDD PUSH1 0x52 SHL PUSH1 0x44 DUP3 ADD MSTORE PUSH1 0x64 ADD PUSH2 0x4BF JUMP JUMPDEST CALLER PUSH1 0x0 SWAP1 DUP2 MSTORE PUSH1 0x1 PUSH1 0x20 SWAP1 DUP2 MSTORE PUSH1 0x40 DUP1 DUP4 KECCAK256 SLOAD DUP4 MSTORE PUSH1 0x2 SWAP1 SWAP2 MSTORE SWAP1 KECCAK256 PUSH1 0xE ADD SSTORE JUMP JUMPDEST CALLER PUSH1 0x0 SWAP1 DUP2 MSTORE PUSH1 0x4 PUSH1 0x20 SWAP1 DUP2 MSTORE PUSH1 0x40 DUP1 DUP4 KECCAK256 SLOAD DUP1 DUP5 MSTORE PUSH1 0x5 SWAP1 SWAP3 MSTORE DUP3 KECCAK256 PUSH1 0x3 SLOAD PUSH1 0x60 SWAP4 DUP5 SWAP4 SWAP3 SWAP2 PUSH8 0xFFFFFFFFFFFFFFFF DUP2 GT ISZERO PUSH2 0x68F JUMPI PUSH2 0x68F PUSH2 0x17B6 JUMP JUMPDEST PUSH1 0x40 MLOAD SWAP1 DUP1 DUP3 MSTORE DUP1 PUSH1 0x20 MUL PUSH1 0x20 ADD DUP3 ADD PUSH1 0x40 MSTORE DUP1 ISZERO PUSH2 0x6B8 JUMPI DUP2 PUSH1 0x20 ADD PUSH1 0x20 DUP3 MUL DUP1 CALLDATASIZE DUP4 CALLDATACOPY ADD SWAP1 POP JUMPDEST POP SWAP1 POP PUSH1 0x0 PUSH1 0x3 SLOAD PUSH8 0xFFFFFFFFFFFFFFFF DUP2 GT ISZERO PUSH2 0x6D8 JUMPI PUSH2 0x6D8 PUSH2 0x17B6 JUMP JUMPDEST PUSH1 0x40 MLOAD SWAP1 DUP1 DUP3 MSTORE DUP1 PUSH1 0x20 MUL PUSH1 0x20 ADD DUP3 ADD PUSH1 0x40 MSTORE DUP1 ISZERO PUSH2 0x701 JUMPI DUP2 PUSH1 0x20 ADD PUSH1 0x20 DUP3 MUL DUP1 CALLDATASIZE DUP4 CALLDATACOPY ADD SWAP1 POP JUMPDEST POP SWAP1 POP PUSH1 0x0 JUMPDEST PUSH1 0x3 SLOAD DUP2 LT ISZERO PUSH2 0x7A1 JUMPI PUSH1 0x0 DUP2 DUP2 MSTORE PUSH1 0x4 DUP6 ADD PUSH1 0x20 MSTORE PUSH1 0x40 SWAP1 KECCAK256 SLOAD DUP4 MLOAD DUP5 SWAP1 DUP4 SWAP1 DUP2 LT PUSH2 0x736 JUMPI PUSH2 0x736 PUSH2 0x17CC JUMP JUMPDEST PUSH1 0x20 SWAP1 DUP2 MUL SWAP2 SWAP1 SWAP2 ADD DUP2 ADD SWAP2 SWAP1 SWAP2 MSTORE PUSH1 0x0 DUP3 DUP2 MSTORE PUSH1 0x2 SWAP1 SWAP2 MSTORE PUSH1 0x40 SWAP1 KECCAK256 PUSH1 0x1 ADD SLOAD DUP3 MLOAD PUSH1 0x1 PUSH1 0x1 PUSH1 0xA0 SHL SUB SWAP1 SWAP2 AND SWAP1 DUP4 SWAP1 DUP4 SWAP1 DUP2 LT PUSH2 0x777 JUMPI PUSH2 0x777 PUSH2 0x17CC JUMP JUMPDEST PUSH1 0x1 PUSH1 0x1 PUSH1 0xA0 SHL SUB SWAP1 SWAP3 AND PUSH1 0x20 SWAP3 DUP4 MUL SWAP2 SWAP1 SWAP2 ADD SWAP1 SWAP2 ADD MSTORE DUP1 PUSH2 0x799 DUP2 PUSH2 0x179D JUMP JUMPDEST SWAP2 POP POP PUSH2 0x707 JUMP JUMPDEST POP SWAP1 SWAP6 SWAP1 SWAP5 POP SWAP3 POP POP POP JUMP JUMPDEST PUSH1 0x0 CALLVALUE GT PUSH2 0x7E7 JUMPI PUSH1 0x40 MLOAD PUSH3 0x461BCD PUSH1 0xE5 SHL DUP2 MSTORE PUSH1 0x20 PUSH1 0x4 DUP3 ADD MSTORE PUSH1 0x7 PUSH1 0x24 DUP3 ADD MSTORE PUSH7 0x4761726565623F PUSH1 0xC8 SHL PUSH1 0x44 DUP3 ADD MSTORE PUSH1 0x64 ADD PUSH2 0x4BF JUMP JUMPDEST CALLER PUSH1 0x0 SWAP1 DUP2 MSTORE PUSH1 0x4 PUSH1 0x20 DUP2 DUP2 MSTORE PUSH1 0x40 DUP1 DUP5 KECCAK256 SLOAD PUSH1 0x1 PUSH1 0x1 PUSH1 0xA0 SHL SUB DUP7 AND DUP6 MSTORE PUSH1 0x1 DUP4 MSTORE DUP2 DUP6 KECCAK256 SLOAD DUP2 DUP7 MSTORE PUSH1 0x5 DUP5 MSTORE DUP3 DUP7 KECCAK256 DUP2 DUP8 MSTORE SWAP5 DUP6 ADD SWAP1 SWAP4 MSTORE SWAP1 DUP5 KECCAK256 SLOAD CALLVALUE SWAP5 SWAP2 SWAP4 SWAP2 SUB PUSH2 0x860 JUMPI PUSH1 0x1 DUP1 DUP3 ADD DUP1 SLOAD SWAP2 DUP3 ADD DUP2 SSTORE PUSH1 0x0 SWAP1 DUP2 MSTORE PUSH1 0x20 DUP2 KECCAK256 SWAP1 SWAP2 ADD DUP4 SWAP1 SSTORE PUSH1 0x3 DUP3 ADD DUP1 SLOAD SWAP2 PUSH2 0x85A DUP4 PUSH2 0x179D JUMP JUMPDEST SWAP2 SWAP1 POP SSTORE POP JUMPDEST PUSH1 0x0 DUP3 DUP2 MSTORE PUSH1 0x4 DUP3 ADD PUSH1 0x20 MSTORE PUSH1 0x40 DUP2 KECCAK256 DUP1 SLOAD DUP7 SWAP3 SWAP1 PUSH2 0x880 SWAP1 DUP5 SWAP1 PUSH2 0x17E2 JUMP JUMPDEST SWAP1 SWAP2 SSTORE POP POP PUSH1 0x0 DUP3 DUP2 MSTORE PUSH1 0x2 PUSH1 0x20 MSTORE PUSH1 0x40 DUP2 KECCAK256 PUSH1 0xD DUP2 ADD DUP1 SLOAD SWAP2 SWAP3 DUP8 SWAP3 PUSH2 0x8A8 SWAP1 DUP5 SWAP1 PUSH2 0x17E2 JUMP JUMPDEST SWAP3 POP POP DUP2 SWAP1 SSTORE POP DUP5 DUP2 PUSH1 0x9 ADD PUSH1 0x0 DUP3 DUP3 SLOAD PUSH2 0x8C3 SWAP2 SWAP1 PUSH2 0x17E2 JUMP JUMPDEST SWAP1 SWAP2 SSTORE POP PUSH1 0x64 SWAP1 POP PUSH2 0x8D6 DUP7 PUSH1 0x5F PUSH2 0x17FB JUMP JUMPDEST PUSH2 0x8E0 SWAP2 SWAP1 PUSH2 0x1812 JUMP JUMPDEST DUP2 PUSH1 0xA ADD PUSH1 0x0 DUP3 DUP3 SLOAD PUSH2 0x8F3 SWAP2 SWAP1 PUSH2 0x17E2 JUMP JUMPDEST SWAP1 SWAP2 SSTORE POP PUSH1 0x64 SWAP1 POP PUSH2 0x906 DUP7 PUSH1 0x5 PUSH2 0x17FB JUMP JUMPDEST PUSH2 0x910 SWAP2 SWAP1 PUSH2 0x1812 JUMP JUMPDEST DUP2 PUSH1 0xB ADD PUSH1 0x0 DUP3 DUP3 SLOAD PUSH2 0x923 SWAP2 SWAP1 PUSH2 0x17E2 JUMP JUMPDEST SWAP1 SWAP2 SSTORE POP POP PUSH1 0xE DUP2 ADD DUP1 SLOAD PUSH1 0xF DUP4 ADD SLOAD PUSH2 0x93E SWAP1 DUP9 SWAP1 PUSH2 0x17E2 JUMP JUMPDEST LT ISZERO PUSH2 0x9CE JUMPI DUP6 DUP2 PUSH1 0x1 ADD PUSH1 0x0 DUP3 DUP3 SLOAD PUSH2 0x958 SWAP2 SWAP1 PUSH2 0x17E2 JUMP JUMPDEST SWAP1 SWAP2 SSTORE POP POP PUSH1 0x0 DUP6 DUP2 MSTORE PUSH1 0x4 DUP3 ADD PUSH1 0x20 MSTORE PUSH1 0x40 DUP2 KECCAK256 SLOAD SWAP1 SUB PUSH2 0x9A3 JUMPI PUSH1 0x2 DUP2 ADD DUP1 SLOAD PUSH1 0x1 DUP2 ADD DUP3 SSTORE PUSH1 0x0 SWAP2 DUP3 MSTORE PUSH1 0x20 DUP3 KECCAK256 ADD DUP7 SWAP1 SSTORE PUSH1 0x3 DUP3 ADD DUP1 SLOAD SWAP2 PUSH2 0x99D DUP4 PUSH2 0x179D JUMP JUMPDEST SWAP2 SWAP1 POP SSTORE POP JUMPDEST PUSH1 0x0 DUP6 DUP2 MSTORE PUSH1 0x4 DUP3 ADD PUSH1 0x20 MSTORE PUSH1 0x40 DUP2 KECCAK256 DUP1 SLOAD DUP9 SWAP3 SWAP1 PUSH2 0x9C3 SWAP1 DUP5 SWAP1 PUSH2 0x17E2 JUMP JUMPDEST SWAP1 SWAP2 SSTORE POP PUSH2 0xC91 SWAP1 POP JUMP JUMPDEST PUSH1 0x1 DUP2 ADD SLOAD DUP2 SLOAD PUSH1 0x0 SWAP2 PUSH2 0x9E1 SWAP2 PUSH2 0x1834 JUMP JUMPDEST SWAP1 POP PUSH1 0x0 PUSH2 0x9EF DUP3 DUP10 PUSH2 0x1834 JUMP JUMPDEST SWAP1 POP DUP2 DUP4 PUSH1 0x1 ADD PUSH1 0x0 DUP3 DUP3 SLOAD PUSH2 0xA05 SWAP2 SWAP1 PUSH2 0x17E2 JUMP JUMPDEST SWAP1 SWAP2 SSTORE POP POP PUSH1 0x0 DUP8 DUP2 MSTORE PUSH1 0x4 DUP5 ADD PUSH1 0x20 MSTORE PUSH1 0x40 DUP2 KECCAK256 SLOAD SWAP1 SUB PUSH2 0xA50 JUMPI PUSH1 0x2 DUP4 ADD DUP1 SLOAD PUSH1 0x1 DUP2 ADD DUP3 SSTORE PUSH1 0x0 SWAP2 DUP3 MSTORE PUSH1 0x20 DUP3 KECCAK256 ADD DUP9 SWAP1 SSTORE PUSH1 0x3 DUP5 ADD DUP1 SLOAD SWAP2 PUSH2 0xA4A DUP4 PUSH2 0x179D JUMP JUMPDEST SWAP2 SWAP1 POP SSTORE POP JUMPDEST PUSH1 0x0 DUP8 DUP2 MSTORE PUSH1 0x4 DUP5 ADD PUSH1 0x20 MSTORE PUSH1 0x40 DUP2 KECCAK256 DUP1 SLOAD DUP5 SWAP3 SWAP1 PUSH2 0xA70 SWAP1 DUP5 SWAP1 PUSH2 0x17E2 JUMP JUMPDEST SWAP1 SWAP2 SSTORE POP PUSH1 0x0 SWAP1 POP JUMPDEST DUP4 PUSH1 0x3 ADD SLOAD DUP2 LT ISZERO PUSH2 0xB45 JUMPI PUSH1 0x0 DUP5 PUSH1 0x2 ADD DUP3 DUP2 SLOAD DUP2 LT PUSH2 0xA9C JUMPI PUSH2 0xA9C PUSH2 0x17CC JUMP JUMPDEST SWAP1 PUSH1 0x0 MSTORE PUSH1 0x20 PUSH1 0x0 KECCAK256 ADD SLOAD SWAP1 POP PUSH1 0x0 PUSH1 0x64 DUP7 PUSH1 0x4 ADD PUSH1 0x0 DUP5 DUP2 MSTORE PUSH1 0x20 ADD SWAP1 DUP2 MSTORE PUSH1 0x20 ADD PUSH1 0x0 KECCAK256 SLOAD PUSH1 0x5 PUSH2 0xACF SWAP2 SWAP1 PUSH2 0x17FB JUMP JUMPDEST PUSH2 0xAD9 SWAP2 SWAP1 PUSH2 0x1812 JUMP JUMPDEST SWAP1 POP DUP1 PUSH1 0x5 PUSH1 0x0 DUP5 DUP2 MSTORE PUSH1 0x20 ADD SWAP1 DUP2 MSTORE PUSH1 0x20 ADD PUSH1 0x0 KECCAK256 PUSH1 0x2 ADD PUSH1 0x0 DUP3 DUP3 SLOAD PUSH2 0xB01 SWAP2 SWAP1 PUSH2 0x17E2 JUMP JUMPDEST SWAP3 POP POP DUP2 SWAP1 SSTORE POP DUP1 DUP8 PUSH1 0x9 ADD PUSH1 0x0 DUP3 DUP3 SLOAD PUSH2 0xB1C SWAP2 SWAP1 PUSH2 0x1834 JUMP JUMPDEST SWAP1 SWAP2 SSTORE POP POP POP PUSH1 0x0 SWAP1 DUP2 MSTORE PUSH1 0x4 DUP6 ADD PUSH1 0x20 MSTORE PUSH1 0x40 DUP2 KECCAK256 SSTORE DUP1 PUSH2 0xB3D DUP2 PUSH2 0x179D JUMP JUMPDEST SWAP2 POP POP PUSH2 0xA79 JUMP JUMPDEST POP PUSH1 0x40 DUP1 MLOAD PUSH1 0x0 DUP2 MSTORE PUSH1 0x20 DUP2 ADD SWAP2 DUP3 SWAP1 MSTORE MLOAD PUSH2 0xB65 SWAP2 PUSH1 0x2 DUP7 ADD SWAP2 PUSH2 0x1511 JUMP JUMPDEST POP PUSH1 0x0 PUSH1 0x3 DUP5 ADD DUP2 SWAP1 SSTORE PUSH1 0x1 DUP5 ADD DUP2 SWAP1 SSTORE DUP4 SLOAD PUSH2 0xB82 SWAP1 DUP4 PUSH2 0x1812 JUMP JUMPDEST PUSH2 0xB8D SWAP1 PUSH1 0x1 PUSH2 0x17E2 JUMP JUMPDEST SWAP1 POP DUP1 DUP6 PUSH1 0x13 ADD PUSH1 0x0 DUP3 DUP3 SLOAD PUSH2 0xBA3 SWAP2 SWAP1 PUSH2 0x17E2 JUMP JUMPDEST SWAP1 SWAP2 SSTORE POP POP DUP2 PUSH2 0xBB9 JUMPI POP POP POP POP POP POP POP POP POP POP JUMP JUMPDEST PUSH1 0x2 DUP5 ADD DUP1 SLOAD PUSH1 0x1 DUP2 DUP2 ADD DUP4 SSTORE PUSH1 0x0 SWAP3 DUP4 MSTORE PUSH1 0x20 SWAP1 SWAP3 KECCAK256 ADD DUP10 SWAP1 SSTORE DUP5 SLOAD SWAP1 PUSH2 0xBE1 SWAP1 DUP4 PUSH2 0x1834 JUMP JUMPDEST PUSH2 0xBEB SWAP2 SWAP1 PUSH2 0x17FB JUMP JUMPDEST PUSH2 0xBF5 SWAP1 DUP4 PUSH2 0x1834 JUMP JUMPDEST PUSH1 0x0 DUP10 DUP2 MSTORE PUSH1 0x4 DUP7 ADD PUSH1 0x20 MSTORE PUSH1 0x40 SWAP1 KECCAK256 SSTORE PUSH2 0xC11 PUSH1 0x1 DUP3 PUSH2 0x1834 JUMP JUMPDEST DUP5 SLOAD PUSH2 0xC1D SWAP2 SWAP1 PUSH2 0x17FB JUMP JUMPDEST PUSH2 0xC27 SWAP1 DUP4 PUSH2 0x1834 JUMP JUMPDEST PUSH1 0x1 DUP1 DUP7 ADD SWAP2 SWAP1 SWAP2 SSTORE DUP5 SLOAD PUSH1 0x64 SWAP2 PUSH2 0xC3F SWAP1 DUP5 PUSH2 0x1834 JUMP JUMPDEST PUSH2 0xC49 SWAP2 SWAP1 PUSH2 0x17FB JUMP JUMPDEST PUSH2 0xC54 SWAP1 PUSH1 0x5 PUSH2 0x17FB JUMP JUMPDEST PUSH2 0xC5E SWAP2 SWAP1 PUSH2 0x1812 JUMP JUMPDEST DUP7 PUSH1 0x2 ADD PUSH1 0x0 DUP3 DUP3 SLOAD PUSH2 0xC71 SWAP2 SWAP1 PUSH2 0x17E2 JUMP JUMPDEST SWAP1 SWAP2 SSTORE POP POP PUSH1 0x3 DUP5 ADD DUP1 SLOAD SWAP1 PUSH1 0x0 PUSH2 0xC88 DUP4 PUSH2 0x179D JUMP JUMPDEST SWAP2 SWAP1 POP SSTORE POP POP POP POP JUMPDEST PUSH1 0xD DUP3 ADD SLOAD PUSH2 0xCA0 SWAP1 DUP8 PUSH2 0x17FB JUMP JUMPDEST PUSH1 0x0 DUP6 DUP2 MSTORE PUSH1 0x5 DUP6 ADD PUSH1 0x20 MSTORE PUSH1 0x40 DUP2 KECCAK256 DUP1 SLOAD SWAP1 SWAP2 SWAP1 PUSH2 0xCC0 SWAP1 DUP5 SWAP1 PUSH2 0x17E2 JUMP JUMPDEST SWAP1 SWAP2 SSTORE POP POP POP POP POP POP POP POP POP JUMP JUMPDEST CALLER PUSH1 0x0 SWAP1 DUP2 MSTORE PUSH1 0x4 PUSH1 0x20 SWAP1 DUP2 MSTORE PUSH1 0x40 DUP1 DUP4 KECCAK256 SLOAD DUP2 MLOAD SWAP3 DUP4 ADD MSTORE ADD PUSH1 0x40 MLOAD PUSH1 0x20 DUP2 DUP4 SUB SUB DUP2 MSTORE SWAP1 PUSH1 0x40 MSTORE MLOAD GT PUSH2 0xD45 JUMPI PUSH1 0x40 MLOAD PUSH3 0x461BCD PUSH1 0xE5 SHL DUP2 MSTORE PUSH1 0x20 PUSH1 0x4 DUP3 ADD MSTORE PUSH1 0x1A PUSH1 0x24 DUP3 ADD MSTORE PUSH32 0x436F6E7472696275746F7220646F6573206E6F74206578697374000000000000 PUSH1 0x44 DUP3 ADD MSTORE PUSH1 0x64 ADD PUSH2 0x4BF JUMP JUMPDEST CALLER PUSH1 0x0 SWAP1 DUP2 MSTORE PUSH1 0x4 PUSH1 0x20 SWAP1 DUP2 MSTORE PUSH1 0x40 DUP1 DUP4 KECCAK256 SLOAD DUP1 DUP5 MSTORE PUSH1 0x5 SWAP1 SWAP3 MSTORE SWAP1 SWAP2 KECCAK256 PUSH1 0x2 DUP2 ADD SLOAD PUSH2 0xDB4 JUMPI PUSH1 0x40 MLOAD PUSH3 0x461BCD PUSH1 0xE5 SHL DUP2 MSTORE PUSH1 0x20 PUSH1 0x4 DUP3 ADD MSTORE PUSH1 0x18 PUSH1 0x24 DUP3 ADD MSTORE PUSH32 0x4E6F7420656E6F7567682066756E6420746F20636C61696D0000000000000000 PUSH1 0x44 DUP3 ADD MSTORE PUSH1 0x64 ADD PUSH2 0x4BF JUMP JUMPDEST PUSH1 0x2 DUP2 ADD SLOAD PUSH1 0x40 MLOAD CALLER SWAP2 DUP3 SWAP2 DUP2 ISZERO PUSH2 0x8FC MUL SWAP2 SWAP1 PUSH1 0x0 DUP2 DUP2 DUP2 DUP6 DUP9 DUP9 CALL SWAP4 POP POP POP POP ISZERO DUP1 ISZERO PUSH2 0xDE7 JUMPI RETURNDATASIZE PUSH1 0x0 DUP1 RETURNDATACOPY RETURNDATASIZE PUSH1 0x0 REVERT JUMPDEST POP POP PUSH1 0x0 PUSH1 0x2 SWAP1 SWAP2 ADD SSTORE POP JUMP JUMPDEST PUSH1 0x1 PUSH1 0x1 PUSH1 0xA0 SHL SUB DUP2 AND PUSH1 0x0 SWAP1 DUP2 MSTORE PUSH1 0x4 PUSH1 0x20 SWAP1 DUP2 MSTORE PUSH1 0x40 DUP1 DUP4 KECCAK256 SLOAD DUP2 MLOAD SWAP3 DUP4 ADD MSTORE DUP3 SWAP2 ADD PUSH1 0x40 MLOAD PUSH1 0x20 DUP2 DUP4 SUB SUB DUP2 MSTORE SWAP1 PUSH1 0x40 MSTORE MLOAD GT PUSH2 0xE76 JUMPI PUSH1 0x40 MLOAD PUSH3 0x461BCD PUSH1 0xE5 SHL DUP2 MSTORE PUSH1 0x20 PUSH1 0x4 DUP3 ADD MSTORE PUSH1 0x1A PUSH1 0x24 DUP3 ADD MSTORE PUSH32 0x436F6E7472696275746F7220646F6573206E6F74206578697374000000000000 PUSH1 0x44 DUP3 ADD MSTORE PUSH1 0x64 ADD PUSH2 0x4BF JUMP JUMPDEST POP PUSH1 0x1 PUSH1 0x1 PUSH1 0xA0 SHL SUB AND PUSH1 0x0 SWAP1 DUP2 MSTORE PUSH1 0x4 PUSH1 0x20 SWAP1 DUP2 MSTORE PUSH1 0x40 DUP1 DUP4 KECCAK256 SLOAD DUP4 MSTORE PUSH1 0x5 SWAP1 SWAP2 MSTORE SWAP1 KECCAK256 PUSH1 0x2 ADD SLOAD SWAP1 JUMP JUMPDEST PUSH1 0x3 DUP1 SLOAD CALLER PUSH1 0x0 SWAP1 DUP2 MSTORE PUSH1 0x1 PUSH1 0x20 MSTORE PUSH1 0x40 DUP2 KECCAK256 DUP3 SWAP1 SSTORE SWAP2 PUSH1 0x2 SWAP2 DUP4 SWAP2 DUP3 PUSH2 0xEC8 DUP4 PUSH2 0x179D JUMP JUMPDEST SWAP1 SWAP2 SSTORE POP DUP2 MSTORE PUSH1 0x20 DUP2 ADD SWAP2 SWAP1 SWAP2 MSTORE PUSH1 0x40 ADD PUSH1 0x0 KECCAK256 SWAP1 POP DUP1 PUSH2 0xEEA DUP7 DUP9 DUP4 PUSH2 0x18CC JUMP JUMPDEST POP PUSH1 0x2 DUP2 ADD PUSH2 0xEFA DUP5 DUP7 DUP4 PUSH2 0x18CC JUMP JUMPDEST POP PUSH1 0x1 DUP2 ADD DUP1 SLOAD PUSH1 0x1 PUSH1 0x1 PUSH1 0xA0 SHL SUB NOT AND CALLER OR SWAP1 SSTORE PUSH1 0x0 PUSH1 0x4 DUP3 ADD DUP2 SWAP1 SSTORE PUSH1 0x6 DUP3 ADD DUP2 SWAP1 SSTORE PUSH1 0x8 DUP3 ADD DUP2 SWAP1 SSTORE PUSH1 0x9 DUP3 ADD DUP2 SWAP1 SSTORE PUSH1 0xA DUP3 ADD DUP2 SWAP1 SSTORE PUSH1 0xB DUP3 ADD DUP2 SWAP1 SSTORE PUSH1 0xC DUP3 ADD DUP2 SWAP1 SSTORE PUSH1 0xD DUP3 ADD DUP2 SWAP1 SSTORE PUSH1 0x13 DUP3 ADD DUP2 SWAP1 SSTORE PUSH1 0xE DUP3 ADD SWAP3 SWAP1 SWAP3 SSTORE PUSH1 0xF DUP2 ADD DUP3 SWAP1 SSTORE PUSH1 0x11 ADD SSTORE POP POP POP POP JUMP JUMPDEST PUSH1 0x6 DUP1 SLOAD CALLER PUSH1 0x0 SWAP1 DUP2 MSTORE PUSH1 0x4 PUSH1 0x20 MSTORE PUSH1 0x40 DUP2 KECCAK256 PUSH7 0xFFFFFFFFFFFFFF SWAP3 DUP4 AND SWAP1 SSTORE DUP3 SLOAD SWAP1 SWAP3 PUSH1 0x5 SWAP3 DUP5 SWAP3 AND SWAP1 DUP3 PUSH2 0xF9E DUP4 PUSH2 0x198C JUMP JUMPDEST SWAP2 SWAP1 PUSH2 0x100 EXP DUP2 SLOAD DUP2 PUSH7 0xFFFFFFFFFFFFFF MUL NOT AND SWAP1 DUP4 PUSH7 0xFFFFFFFFFFFFFF AND MUL OR SWAP1 SSTORE POP PUSH7 0xFFFFFFFFFFFFFF AND DUP2 MSTORE PUSH1 0x20 ADD SWAP1 DUP2 MSTORE PUSH1 0x20 ADD PUSH1 0x0 KECCAK256 SWAP1 POP DUP3 DUP3 DUP3 PUSH1 0x0 ADD SWAP2 DUP3 PUSH2 0xFEE SWAP3 SWAP2 SWAP1 PUSH2 0x18CC JUMP JUMPDEST POP PUSH1 0x0 PUSH1 0x3 DUP3 ADD DUP2 SWAP1 SSTORE PUSH1 0x2 SWAP1 SWAP2 ADD SSTORE POP POP JUMP JUMPDEST CALLER PUSH1 0x0 SWAP1 DUP2 MSTORE PUSH1 0x1 PUSH1 0x20 SWAP1 DUP2 MSTORE PUSH1 0x40 DUP1 DUP4 KECCAK256 SLOAD DUP1 DUP5 MSTORE PUSH1 0x2 DUP4 MSTORE DUP2 DUP5 KECCAK256 PUSH1 0x4 DUP2 ADD SLOAD DUP6 MSTORE PUSH1 0x3 DUP2 ADD SWAP1 SWAP4 MSTORE SWAP3 KECCAK256 DUP1 PUSH2 0x103B DUP6 DUP8 DUP4 PUSH2 0x18CC JUMP JUMPDEST POP POP POP POP POP POP JUMP JUMPDEST CALLER PUSH1 0x0 SWAP1 DUP2 MSTORE PUSH1 0x4 PUSH1 0x20 SWAP1 DUP2 MSTORE PUSH1 0x40 DUP1 DUP4 KECCAK256 SLOAD PUSH1 0x1 PUSH1 0x1 PUSH1 0xA0 SHL SUB DUP7 AND DUP5 MSTORE PUSH1 0x1 DUP1 DUP5 MSTORE DUP3 DUP6 KECCAK256 SLOAD DUP1 DUP7 MSTORE PUSH1 0x2 SWAP1 SWAP5 MSTORE SWAP2 DUP5 KECCAK256 PUSH1 0x6 DUP2 ADD SLOAD SWAP2 SWAP5 SWAP3 PUSH1 0x5 SWAP1 SWAP2 ADD SWAP2 DUP4 SWAP2 PUSH2 0x108F SWAP2 PUSH2 0x1834 JUMP JUMPDEST DUP2 MSTORE PUSH1 0x20 DUP2 ADD SWAP2 SWAP1 SWAP2 MSTORE PUSH1 0x40 ADD PUSH1 0x0 KECCAK256 DUP1 SLOAD SWAP1 SWAP2 POP PUSH1 0xFF AND PUSH2 0x10F3 JUMPI PUSH1 0x40 MLOAD PUSH3 0x461BCD PUSH1 0xE5 SHL DUP2 MSTORE PUSH1 0x20 PUSH1 0x4 DUP3 ADD MSTORE PUSH1 0x1C PUSH1 0x24 DUP3 ADD MSTORE PUSH32 0x566F74696E672056656E74757265206973206E6F742061637469766500000000 PUSH1 0x44 DUP3 ADD MSTORE PUSH1 0x64 ADD PUSH2 0x4BF JUMP JUMPDEST PUSH1 0x0 DUP4 DUP2 MSTORE PUSH1 0x5 PUSH1 0x20 DUP2 DUP2 MSTORE PUSH1 0x40 DUP1 DUP5 KECCAK256 DUP7 DUP6 MSTORE SWAP1 SWAP3 ADD SWAP1 MSTORE SWAP1 KECCAK256 SLOAD PUSH2 0x1118 JUMPI PUSH1 0x0 DUP1 REVERT JUMPDEST CALLER PUSH1 0x0 SWAP1 DUP2 MSTORE PUSH1 0x5 DUP3 ADD PUSH1 0x20 MSTORE PUSH1 0x40 SWAP1 KECCAK256 SLOAD PUSH1 0xFF AND ISZERO PUSH2 0x1137 JUMPI PUSH1 0x0 DUP1 REVERT JUMPDEST PUSH1 0x0 SLOAD DUP2 PUSH1 0x1 ADD SLOAD PUSH2 0x1149 SWAP2 SWAP1 PUSH2 0x17E2 JUMP JUMPDEST TIMESTAMP LT PUSH2 0x1154 JUMPI PUSH1 0x0 DUP1 REVERT JUMPDEST CALLER PUSH1 0x0 SWAP1 DUP2 MSTORE PUSH1 0x5 DUP3 ADD PUSH1 0x20 MSTORE PUSH1 0x40 DUP2 KECCAK256 DUP1 SLOAD PUSH1 0xFF NOT AND PUSH1 0x1 OR SWAP1 SSTORE PUSH1 0x2 DUP3 ADD DUP1 SLOAD SWAP2 PUSH2 0x1180 DUP4 PUSH2 0x179D JUMP JUMPDEST SWAP2 SWAP1 POP SSTORE POP DUP4 ISZERO PUSH2 0x11C7 JUMPI PUSH1 0x0 DUP4 DUP2 MSTORE PUSH1 0x5 PUSH1 0x20 DUP2 DUP2 MSTORE PUSH1 0x40 DUP1 DUP5 KECCAK256 DUP7 DUP6 MSTORE SWAP1 SWAP3 ADD SWAP1 MSTORE DUP2 KECCAK256 SLOAD PUSH1 0x3 DUP4 ADD DUP1 SLOAD SWAP2 SWAP3 SWAP1 SWAP2 PUSH2 0x11BC SWAP1 DUP5 SWAP1 PUSH2 0x17E2 JUMP JUMPDEST SWAP1 SWAP2 SSTORE POP PUSH2 0x11FE SWAP1 POP JUMP JUMPDEST PUSH1 0x0 DUP4 DUP2 MSTORE PUSH1 0x5 PUSH1 0x20 DUP2 DUP2 MSTORE PUSH1 0x40 DUP1 DUP5 KECCAK256 DUP7 DUP6 MSTORE SWAP1 SWAP3 ADD SWAP1 MSTORE DUP2 KECCAK256 SLOAD PUSH1 0x4 DUP4 ADD DUP1 SLOAD SWAP2 SWAP3 SWAP1 SWAP2 PUSH2 0x11F8 SWAP1 DUP5 SWAP1 PUSH2 0x17E2 JUMP JUMPDEST SWAP1 SWAP2 SSTORE POP POP JUMPDEST PUSH1 0x0 DUP3 DUP2 MSTORE PUSH1 0x2 PUSH1 0x20 MSTORE PUSH1 0x40 SWAP1 KECCAK256 PUSH1 0xD ADD SLOAD PUSH2 0x121B SWAP1 PUSH1 0x1 PUSH2 0x17FB JUMP JUMPDEST PUSH1 0x0 DUP5 DUP2 MSTORE PUSH1 0x5 PUSH1 0x20 DUP2 DUP2 MSTORE PUSH1 0x40 DUP1 DUP5 KECCAK256 DUP8 DUP6 MSTORE SWAP1 SWAP3 ADD SWAP1 MSTORE DUP2 KECCAK256 DUP1 SLOAD SWAP1 SWAP2 SWAP1 PUSH2 0x1246 SWAP1 DUP5 SWAP1 PUSH2 0x17E2 JUMP JUMPDEST SWAP1 SWAP2 SSTORE POP POP POP POP POP POP POP JUMP JUMPDEST CALLER PUSH1 0x0 SWAP1 DUP2 MSTORE PUSH1 0x1 PUSH1 0x20 DUP2 DUP2 MSTORE PUSH1 0x40 DUP1 DUP5 KECCAK256 SLOAD DUP1 DUP6 MSTORE PUSH1 0x2 SWAP1 SWAP3 MSTORE DUP4 KECCAK256 PUSH1 0x6 DUP2 ADD SLOAD SWAP2 SWAP4 SWAP1 SWAP3 SWAP1 SWAP2 PUSH1 0x5 DUP5 ADD SWAP2 DUP4 SWAP2 PUSH2 0x128B SWAP2 SWAP1 PUSH2 0x1834 JUMP JUMPDEST DUP2 MSTORE PUSH1 0x20 DUP2 ADD SWAP2 SWAP1 SWAP2 MSTORE PUSH1 0x40 ADD PUSH1 0x0 KECCAK256 DUP1 SLOAD SWAP1 SWAP2 POP PUSH1 0xFF AND PUSH2 0x12E3 JUMPI PUSH1 0x40 MLOAD PUSH3 0x461BCD PUSH1 0xE5 SHL DUP2 MSTORE PUSH1 0x20 PUSH1 0x4 DUP3 ADD MSTORE PUSH1 0x11 PUSH1 0x24 DUP3 ADD MSTORE PUSH17 0x4E6F206163746976652076656E74757265 PUSH1 0x78 SHL PUSH1 0x44 DUP3 ADD MSTORE PUSH1 0x64 ADD PUSH2 0x4BF JUMP JUMPDEST PUSH1 0x2 DUP3 PUSH1 0x8 ADD SLOAD PUSH2 0x12F4 SWAP2 SWAP1 PUSH2 0x1812 JUMP JUMPDEST DUP2 PUSH1 0x2 ADD SLOAD GT PUSH2 0x133A JUMPI PUSH1 0x40 MLOAD PUSH3 0x461BCD PUSH1 0xE5 SHL DUP2 MSTORE PUSH1 0x20 PUSH1 0x4 DUP3 ADD MSTORE PUSH1 0x11 PUSH1 0x24 DUP3 ADD MSTORE PUSH17 0x4E6F7420656E6F75676820766F74657273 PUSH1 0x78 SHL PUSH1 0x44 DUP3 ADD MSTORE PUSH1 0x64 ADD PUSH2 0x4BF JUMP JUMPDEST DUP1 PUSH1 0x4 ADD SLOAD DUP2 PUSH1 0x3 ADD SLOAD GT ISZERO PUSH2 0x1386 JUMPI DUP1 PUSH1 0x6 ADD SLOAD DUP3 PUSH1 0xC ADD PUSH1 0x0 DUP3 DUP3 SLOAD PUSH2 0x1362 SWAP2 SWAP1 PUSH2 0x17E2 JUMP JUMPDEST SWAP1 SWAP2 SSTORE POP POP PUSH1 0x6 DUP2 ADD SLOAD PUSH1 0xA DUP4 ADD DUP1 SLOAD PUSH1 0x0 SWAP1 PUSH2 0x1380 SWAP1 DUP5 SWAP1 PUSH2 0x1834 JUMP JUMPDEST SWAP1 SWAP2 SSTORE POP POP JUMPDEST DUP1 SLOAD PUSH1 0xFF NOT AND SWAP1 SSTORE POP POP JUMP JUMPDEST PUSH1 0x1 PUSH1 0x1 PUSH1 0xA0 SHL SUB DUP2 AND PUSH1 0x0 SWAP1 DUP2 MSTORE PUSH1 0x1 PUSH1 0x20 SWAP1 DUP2 MSTORE PUSH1 0x40 DUP1 DUP4 KECCAK256 SLOAD DUP1 DUP5 MSTORE PUSH1 0x2 SWAP1 SWAP3 MSTORE DUP3 KECCAK256 PUSH1 0x6 DUP2 ADD SLOAD DUP4 SWAP3 DUP4 SWAP3 DUP4 SWAP3 DUP4 SWAP3 DUP4 SWAP3 SWAP1 SWAP2 PUSH2 0x13E9 JUMPI PUSH1 0x0 DUP1 PUSH1 0x0 DUP1 PUSH1 0x0 DUP1 SWAP8 POP SWAP8 POP SWAP8 POP SWAP8 POP SWAP8 POP SWAP8 POP POP POP PUSH2 0x1457 JUMP JUMPDEST PUSH1 0x0 DUP2 PUSH1 0x5 ADD PUSH1 0x0 PUSH1 0x1 DUP5 PUSH1 0x6 ADD SLOAD PUSH2 0x1402 SWAP2 SWAP1 PUSH2 0x1834 JUMP JUMPDEST DUP2 MSTORE PUSH1 0x20 DUP1 DUP3 ADD SWAP3 SWAP1 SWAP3 MSTORE PUSH1 0x40 SWAP1 DUP2 ADD PUSH1 0x0 SWAP1 DUP2 KECCAK256 DUP1 SLOAD PUSH1 0x2 DUP3 ADD SLOAD PUSH1 0x3 DUP4 ADD SLOAD PUSH1 0x4 DUP5 ADD SLOAD PUSH1 0x6 DUP6 ADD SLOAD CALLER DUP8 MSTORE PUSH1 0x5 SWAP1 SWAP6 ADD SWAP1 SWAP8 MSTORE SWAP5 SWAP1 SWAP4 KECCAK256 SLOAD PUSH1 0xFF SWAP2 DUP3 AND SWAP15 POP SWAP3 SWAP13 POP SWAP3 SWAP11 POP SWAP3 SWAP9 POP SWAP2 SWAP7 POP AND SWAP4 POP POP POP POP JUMPDEST SWAP2 SWAP4 SWAP6 POP SWAP2 SWAP4 SWAP6 JUMP JUMPDEST CALLER PUSH1 0x0 SWAP1 DUP2 MSTORE PUSH1 0x1 PUSH1 0x20 SWAP1 DUP2 MSTORE PUSH1 0x40 DUP1 DUP4 KECCAK256 SLOAD DUP1 DUP5 MSTORE PUSH1 0x2 SWAP1 SWAP3 MSTORE SWAP1 SWAP2 KECCAK256 PUSH1 0xC DUP2 ADD SLOAD PUSH2 0x14CF JUMPI PUSH1 0x40 MLOAD PUSH3 0x461BCD PUSH1 0xE5 SHL DUP2 MSTORE PUSH1 0x20 PUSH1 0x4 DUP3 ADD MSTORE PUSH1 0x17 PUSH1 0x24 DUP3 ADD MSTORE PUSH32 0x4E6F20616D6F756E7420746F20626520636C61696D6564000000000000000000 PUSH1 0x44 DUP3 ADD MSTORE PUSH1 0x64 ADD PUSH2 0x4BF JUMP JUMPDEST PUSH1 0xC DUP2 ADD DUP1 SLOAD PUSH1 0x0 SWAP2 DUP3 SWAP1 SSTORE PUSH1 0x40 MLOAD SWAP1 SWAP2 CALLER SWAP2 DUP3 SWAP2 DUP5 ISZERO PUSH2 0x8FC MUL SWAP2 DUP6 SWAP2 DUP2 DUP2 DUP2 DUP6 DUP9 DUP9 CALL SWAP4 POP POP POP POP ISZERO DUP1 ISZERO PUSH2 0x150A JUMPI RETURNDATASIZE PUSH1 0x0 DUP1 RETURNDATACOPY RETURNDATASIZE PUSH1 0x0 REVERT JUMPDEST POP POP POP POP POP JUMP JUMPDEST DUP3 DUP1 SLOAD DUP3 DUP3 SSTORE SWAP1 PUSH1 0x0 MSTORE PUSH1 0x20 PUSH1 0x0 KECCAK256 SWAP1 DUP2 ADD SWAP3 DUP3 ISZERO PUSH2 0x154C JUMPI SWAP2 PUSH1 0x20 MUL DUP3 ADD JUMPDEST DUP3 DUP2 GT ISZERO PUSH2 0x154C JUMPI DUP3 MLOAD DUP3 SSTORE SWAP2 PUSH1 0x20 ADD SWAP2 SWAP1 PUSH1 0x1 ADD SWAP1 PUSH2 0x1531 JUMP JUMPDEST POP PUSH2 0x1558 SWAP3 SWAP2 POP PUSH2 0x155C JUMP JUMPDEST POP SWAP1 JUMP JUMPDEST JUMPDEST DUP1 DUP3 GT ISZERO PUSH2 0x1558 JUMPI PUSH1 0x0 DUP2 SSTORE PUSH1 0x1 ADD PUSH2 0x155D JUMP JUMPDEST PUSH1 0x0 PUSH1 0x20 DUP3 DUP5 SUB SLT ISZERO PUSH2 0x1583 JUMPI PUSH1 0x0 DUP1 REVERT JUMPDEST POP CALLDATALOAD SWAP2 SWAP1 POP JUMP JUMPDEST PUSH1 0x40 DUP1 DUP3 MSTORE DUP4 MLOAD SWAP1 DUP3 ADD DUP2 SWAP1 MSTORE PUSH1 0x0 SWAP1 PUSH1 0x20 SWAP1 PUSH1 0x60 DUP5 ADD SWAP1 DUP3 DUP8 ADD DUP5 JUMPDEST DUP3 DUP2 LT ISZERO PUSH2 0x15C3 JUMPI DUP2 MLOAD DUP5 MSTORE SWAP3 DUP5 ADD SWAP3 SWAP1 DUP5 ADD SWAP1 PUSH1 0x1 ADD PUSH2 0x15A7 JUMP JUMPDEST POP POP POP DUP4 DUP2 SUB DUP3 DUP6 ADD MSTORE DUP5 MLOAD DUP1 DUP3 MSTORE DUP6 DUP4 ADD SWAP2 DUP4 ADD SWAP1 PUSH1 0x0 JUMPDEST DUP2 DUP2 LT ISZERO PUSH2 0x1601 JUMPI DUP4 MLOAD PUSH1 0x1 PUSH1 0x1 PUSH1 0xA0 SHL SUB AND DUP4 MSTORE SWAP3 DUP5 ADD SWAP3 SWAP2 DUP5 ADD SWAP2 PUSH1 0x1 ADD PUSH2 0x15DC JUMP JUMPDEST POP SWAP1 SWAP8 SWAP7 POP POP POP POP POP POP POP JUMP JUMPDEST DUP1 CALLDATALOAD PUSH1 0x1 PUSH1 0x1 PUSH1 0xA0 SHL SUB DUP2 AND DUP2 EQ PUSH2 0x1625 JUMPI PUSH1 0x0 DUP1 REVERT JUMPDEST SWAP2 SWAP1 POP JUMP JUMPDEST PUSH1 0x0 PUSH1 0x20 DUP3 DUP5 SUB SLT ISZERO PUSH2 0x163C JUMPI PUSH1 0x0 DUP1 REVERT JUMPDEST PUSH2 0x1645 DUP3 PUSH2 0x160E JUMP JUMPDEST SWAP4 SWAP3 POP POP POP JUMP JUMPDEST PUSH1 0x0 DUP1 DUP4 PUSH1 0x1F DUP5 ADD SLT PUSH2 0x165E JUMPI PUSH1 0x0 DUP1 REVERT JUMPDEST POP DUP2 CALLDATALOAD PUSH8 0xFFFFFFFFFFFFFFFF DUP2 GT ISZERO PUSH2 0x1676 JUMPI PUSH1 0x0 DUP1 REVERT JUMPDEST PUSH1 0x20 DUP4 ADD SWAP2 POP DUP4 PUSH1 0x20 DUP3 DUP6 ADD ADD GT ISZERO PUSH2 0x168E JUMPI PUSH1 0x0 DUP1 REVERT JUMPDEST SWAP3 POP SWAP3 SWAP1 POP JUMP JUMPDEST PUSH1 0x0 DUP1 PUSH1 0x0 DUP1 PUSH1 0x0 PUSH1 0x60 DUP7 DUP9 SUB SLT ISZERO PUSH2 0x16AD JUMPI PUSH1 0x0 DUP1 REVERT JUMPDEST DUP6 CALLDATALOAD PUSH8 0xFFFFFFFFFFFFFFFF DUP1 DUP3 GT ISZERO PUSH2 0x16C5 JUMPI PUSH1 0x0 DUP1 REVERT JUMPDEST PUSH2 0x16D1 DUP10 DUP4 DUP11 ADD PUSH2 0x164C JUMP JUMPDEST SWAP1 SWAP8 POP SWAP6 POP PUSH1 0x20 DUP9 ADD CALLDATALOAD SWAP2 POP DUP1 DUP3 GT ISZERO PUSH2 0x16EA JUMPI PUSH1 0x0 DUP1 REVERT JUMPDEST POP PUSH2 0x16F7 DUP9 DUP3 DUP10 ADD PUSH2 0x164C JUMP JUMPDEST SWAP7 SWAP10 SWAP6 SWAP9 POP SWAP7 PUSH1 0x40 ADD CALLDATALOAD SWAP5 SWAP4 POP POP POP POP JUMP JUMPDEST PUSH1 0x0 DUP1 PUSH1 0x20 DUP4 DUP6 SUB SLT ISZERO PUSH2 0x171C JUMPI PUSH1 0x0 DUP1 REVERT JUMPDEST DUP3 CALLDATALOAD PUSH8 0xFFFFFFFFFFFFFFFF DUP2 GT ISZERO PUSH2 0x1733 JUMPI PUSH1 0x0 DUP1 REVERT JUMPDEST PUSH2 0x173F DUP6 DUP3 DUP7 ADD PUSH2 0x164C JUMP JUMPDEST SWAP1 SWAP7 SWAP1 SWAP6 POP SWAP4 POP POP POP POP JUMP JUMPDEST PUSH1 0x0 DUP1 PUSH1 0x40 DUP4 DUP6 SUB SLT ISZERO PUSH2 0x175E JUMPI PUSH1 0x0 DUP1 REVERT JUMPDEST PUSH2 0x1767 DUP4 PUSH2 0x160E JUMP JUMPDEST SWAP2 POP PUSH1 0x20 DUP4 ADD CALLDATALOAD DUP1 ISZERO ISZERO DUP2 EQ PUSH2 0x177C JUMPI PUSH1 0x0 DUP1 REVERT JUMPDEST DUP1 SWAP2 POP POP SWAP3 POP SWAP3 SWAP1 POP JUMP JUMPDEST PUSH4 0x4E487B71 PUSH1 0xE0 SHL PUSH1 0x0 MSTORE PUSH1 0x11 PUSH1 0x4 MSTORE PUSH1 0x24 PUSH1 0x0 REVERT JUMPDEST PUSH1 0x0 PUSH1 0x1 DUP3 ADD PUSH2 0x17AF JUMPI PUSH2 0x17AF PUSH2 0x1787 JUMP JUMPDEST POP PUSH1 0x1 ADD SWAP1 JUMP JUMPDEST PUSH4 0x4E487B71 PUSH1 0xE0 SHL PUSH1 0x0 MSTORE PUSH1 0x41 PUSH1 0x4 MSTORE PUSH1 0x24 PUSH1 0x0 REVERT JUMPDEST PUSH4 0x4E487B71 PUSH1 0xE0 SHL PUSH1 0x0 MSTORE PUSH1 0x32 PUSH1 0x4 MSTORE PUSH1 0x24 PUSH1 0x0 REVERT JUMPDEST DUP1 DUP3 ADD DUP1 DUP3 GT ISZERO PUSH2 0x17F5 JUMPI PUSH2 0x17F5 PUSH2 0x1787 JUMP JUMPDEST SWAP3 SWAP2 POP POP JUMP JUMPDEST DUP1 DUP3 MUL DUP2 ISZERO DUP3 DUP3 DIV DUP5 EQ OR PUSH2 0x17F5 JUMPI PUSH2 0x17F5 PUSH2 0x1787 JUMP JUMPDEST PUSH1 0x0 DUP3 PUSH2 0x182F JUMPI PUSH4 0x4E487B71 PUSH1 0xE0 SHL PUSH1 0x0 MSTORE PUSH1 0x12 PUSH1 0x4 MSTORE PUSH1 0x24 PUSH1 0x0 REVERT JUMPDEST POP DIV SWAP1 JUMP JUMPDEST DUP2 DUP2 SUB DUP2 DUP2 GT ISZERO PUSH2 0x17F5 JUMPI PUSH2 0x17F5 PUSH2 0x1787 JUMP JUMPDEST PUSH1 0x1 DUP2 DUP2 SHR SWAP1 DUP3 AND DUP1 PUSH2 0x185B JUMPI PUSH1 0x7F DUP3 AND SWAP2 POP JUMPDEST PUSH1 0x20 DUP3 LT DUP2 SUB PUSH2 0x187B JUMPI PUSH4 0x4E487B71 PUSH1 0xE0 SHL PUSH1 0x0 MSTORE PUSH1 0x22 PUSH1 0x4 MSTORE PUSH1 0x24 PUSH1 0x0 REVERT JUMPDEST POP SWAP2 SWAP1 POP JUMP JUMPDEST PUSH1 0x1F DUP3 GT ISZERO PUSH2 0x18C7 JUMPI PUSH1 0x0 DUP2 DUP2 MSTORE PUSH1 0x20 DUP2 KECCAK256 PUSH1 0x1F DUP6 ADD PUSH1 0x5 SHR DUP2 ADD PUSH1 0x20 DUP7 LT ISZERO PUSH2 0x18A8 JUMPI POP DUP1 JUMPDEST PUSH1 0x1F DUP6 ADD PUSH1 0x5 SHR DUP3 ADD SWAP2 POP JUMPDEST DUP2 DUP2 LT ISZERO PUSH2 0x103B JUMPI DUP3 DUP2 SSTORE PUSH1 0x1 ADD PUSH2 0x18B4 JUMP JUMPDEST POP POP POP JUMP JUMPDEST PUSH8 0xFFFFFFFFFFFFFFFF DUP4 GT ISZERO PUSH2 0x18E4 JUMPI PUSH2 0x18E4 PUSH2 0x17B6 JUMP JUMPDEST PUSH2 0x18F8 DUP4 PUSH2 0x18F2 DUP4 SLOAD PUSH2 0x1847 JUMP JUMPDEST DUP4 PUSH2 0x1881 JUMP JUMPDEST PUSH1 0x0 PUSH1 0x1F DUP5 GT PUSH1 0x1 DUP2 EQ PUSH2 0x192C JUMPI PUSH1 0x0 DUP6 ISZERO PUSH2 0x1914 JUMPI POP DUP4 DUP3 ADD CALLDATALOAD JUMPDEST PUSH1 0x0 NOT PUSH1 0x3 DUP8 SWAP1 SHL SHR NOT AND PUSH1 0x1 DUP7 SWAP1 SHL OR DUP4 SSTORE PUSH2 0x150A JUMP JUMPDEST PUSH1 0x0 DUP4 DUP2 MSTORE PUSH1 0x20 SWAP1 KECCAK256 PUSH1 0x1F NOT DUP7 AND SWAP1 DUP4 JUMPDEST DUP3 DUP2 LT ISZERO PUSH2 0x195D JUMPI DUP7 DUP6 ADD CALLDATALOAD DUP3 SSTORE PUSH1 0x20 SWAP5 DUP6 ADD SWAP5 PUSH1 0x1 SWAP1 SWAP3 ADD SWAP2 ADD PUSH2 0x193D JUMP JUMPDEST POP DUP7 DUP3 LT ISZERO PUSH2 0x197A JUMPI PUSH1 0x0 NOT PUSH1 0xF8 DUP9 PUSH1 0x3 SHL AND SHR NOT DUP5 DUP8 ADD CALLDATALOAD AND DUP2 SSTORE JUMPDEST POP POP PUSH1 0x1 DUP6 PUSH1 0x1 SHL ADD DUP4 SSTORE POP POP POP POP POP JUMP JUMPDEST PUSH1 0x0 PUSH7 0xFFFFFFFFFFFFFF DUP1 DUP4 AND DUP2 DUP2 SUB PUSH2 0x19A8 JUMPI PUSH2 0x19A8 PUSH2 0x1787 JUMP JUMPDEST PUSH1 0x1 ADD SWAP4 SWAP3 POP POP POP JUMP INVALID LOG2 PUSH5 0x6970667358 0x22 SLT KECCAK256 0xCE DUP5 PUSH4 0x752BCD26 PUSH13 0x5A16CFDC685AAFC6A7A692C1C1 0xDF 0xEE EQ PUSH8 0xB981BB825C196D64 PUSH20 0x6F6C634300081100330000000000000000000000 "},"methodIdentifiers":{"InitiateVoting(uint256)":"05620695","RegisterContributor(string)":"abff0333","RegisterCreator(string,string,uint256)":"a99620db","UploadProject(string)":"b64ed3d9","claimAmount()":"830953ab","claimAmountForCreator()":"d96c8bb7","contribute(address)":"73e888fd","currentMilesoneNumber(uint256)":"c02d9e1a","endVoting()":"c3403ddf","getContributorClaimableBalance()":"ea722b73","getMemebershipStrength(uint256)":"22c4ec8d","getMilestoneDetails(address)":"adda00e4","getSubscriberList()":"51d5d80d","getVotingStatus(address)":"d867909a","setMilestoneGoal(uint256)":"439efb91","viewClaimAmount(address)":"9bc1a95d","viewCreatorInfo(address)":"8c6f8f3a","vote(address,bool)":"bd041c4d"}}}}}