{
  "_format": "hh-sol-artifact-1",
  "contractName": "TribeNFT",
  "sourceName": "contracts/TribeNFT.sol",
  "abi": [
    {
      "inputs": [
        {
          "internalType": "string",
          "name": "_symbol",
          "type": "string"
        },
        {
          "internalType": "string",
          "name": "_name",
          "type": "string"
        }
      ],
      "stateMutability": "nonpayable",
      "type": "constructor"
    },
    {
      "anonymous": false,
      "inputs": [
        {
          "indexed": true,
          "internalType": "address",
          "name": "account",
          "type": "address"
        },
        {
          "indexed": true,
          "internalType": "address",
          "name": "operator",
          "type": "address"
        },
        {
          "indexed": false,
          "internalType": "bool",
          "name": "approved",
          "type": "bool"
        }
      ],
      "name": "ApprovalForAll",
      "type": "event"
    },
    {
      "anonymous": false,
      "inputs": [
        {
          "indexed": true,
          "internalType": "address",
          "name": "previousOwner",
          "type": "address"
        },
        {
          "indexed": true,
          "internalType": "address",
          "name": "newOwner",
          "type": "address"
        }
      ],
      "name": "OwnershipTransferred",
      "type": "event"
    },
    {
      "anonymous": false,
      "inputs": [
        {
          "indexed": true,
          "internalType": "address",
          "name": "operator",
          "type": "address"
        },
        {
          "indexed": true,
          "internalType": "address",
          "name": "from",
          "type": "address"
        },
        {
          "indexed": true,
          "internalType": "address",
          "name": "to",
          "type": "address"
        },
        {
          "indexed": false,
          "internalType": "uint256[]",
          "name": "ids",
          "type": "uint256[]"
        },
        {
          "indexed": false,
          "internalType": "uint256[]",
          "name": "values",
          "type": "uint256[]"
        }
      ],
      "name": "TransferBatch",
      "type": "event"
    },
    {
      "anonymous": false,
      "inputs": [
        {
          "indexed": true,
          "internalType": "address",
          "name": "operator",
          "type": "address"
        },
        {
          "indexed": true,
          "internalType": "address",
          "name": "from",
          "type": "address"
        },
        {
          "indexed": true,
          "internalType": "address",
          "name": "to",
          "type": "address"
        },
        {
          "indexed": false,
          "internalType": "uint256",
          "name": "id",
          "type": "uint256"
        },
        {
          "indexed": false,
          "internalType": "uint256",
          "name": "value",
          "type": "uint256"
        }
      ],
      "name": "TransferSingle",
      "type": "event"
    },
    {
      "anonymous": false,
      "inputs": [
        {
          "indexed": false,
          "internalType": "string",
          "name": "value",
          "type": "string"
        },
        {
          "indexed": true,
          "internalType": "uint256",
          "name": "id",
          "type": "uint256"
        }
      ],
      "name": "URI",
      "type": "event"
    },
    {
      "inputs": [
        {
          "internalType": "address",
          "name": "account",
          "type": "address"
        },
        {
          "internalType": "uint256",
          "name": "id",
          "type": "uint256"
        }
      ],
      "name": "balanceOf",
      "outputs": [
        {
          "internalType": "uint256",
          "name": "",
          "type": "uint256"
        }
      ],
      "stateMutability": "view",
      "type": "function"
    },
    {
      "inputs": [
        {
          "internalType": "address[]",
          "name": "accounts",
          "type": "address[]"
        },
        {
          "internalType": "uint256[]",
          "name": "ids",
          "type": "uint256[]"
        }
      ],
      "name": "balanceOfBatch",
      "outputs": [
        {
          "internalType": "uint256[]",
          "name": "",
          "type": "uint256[]"
        }
      ],
      "stateMutability": "view",
      "type": "function"
    },
    {
      "inputs": [
        {
          "internalType": "address",
          "name": "account",
          "type": "address"
        },
        {
          "internalType": "uint256",
          "name": "id",
          "type": "uint256"
        },
        {
          "internalType": "uint256",
          "name": "amount",
          "type": "uint256"
        }
      ],
      "name": "burn",
      "outputs": [],
      "stateMutability": "nonpayable",
      "type": "function"
    },
    {
      "inputs": [
        {
          "internalType": "address",
          "name": "account",
          "type": "address"
        },
        {
          "internalType": "address",
          "name": "operator",
          "type": "address"
        }
      ],
      "name": "isApprovedForAll",
      "outputs": [
        {
          "internalType": "bool",
          "name": "",
          "type": "bool"
        }
      ],
      "stateMutability": "view",
      "type": "function"
    },
    {
      "inputs": [
        {
          "internalType": "address",
          "name": "account",
          "type": "address"
        },
        {
          "internalType": "uint256",
          "name": "id",
          "type": "uint256"
        },
        {
          "internalType": "uint256",
          "name": "amount",
          "type": "uint256"
        }
      ],
      "name": "mint",
      "outputs": [],
      "stateMutability": "nonpayable",
      "type": "function"
    },
    {
      "inputs": [],
      "name": "name",
      "outputs": [
        {
          "internalType": "string",
          "name": "",
          "type": "string"
        }
      ],
      "stateMutability": "view",
      "type": "function"
    },
    {
      "inputs": [],
      "name": "owner",
      "outputs": [
        {
          "internalType": "address",
          "name": "",
          "type": "address"
        }
      ],
      "stateMutability": "view",
      "type": "function"
    },
    {
      "inputs": [],
      "name": "renounceOwnership",
      "outputs": [],
      "stateMutability": "nonpayable",
      "type": "function"
    },
    {
      "inputs": [
        {
          "internalType": "address",
          "name": "from",
          "type": "address"
        },
        {
          "internalType": "address",
          "name": "to",
          "type": "address"
        },
        {
          "internalType": "uint256[]",
          "name": "ids",
          "type": "uint256[]"
        },
        {
          "internalType": "uint256[]",
          "name": "amounts",
          "type": "uint256[]"
        },
        {
          "internalType": "bytes",
          "name": "data",
          "type": "bytes"
        }
      ],
      "name": "safeBatchTransferFrom",
      "outputs": [],
      "stateMutability": "nonpayable",
      "type": "function"
    },
    {
      "inputs": [
        {
          "internalType": "address",
          "name": "from",
          "type": "address"
        },
        {
          "internalType": "address",
          "name": "to",
          "type": "address"
        },
        {
          "internalType": "uint256",
          "name": "id",
          "type": "uint256"
        },
        {
          "internalType": "uint256",
          "name": "amount",
          "type": "uint256"
        },
        {
          "internalType": "bytes",
          "name": "data",
          "type": "bytes"
        }
      ],
      "name": "safeTransferFrom",
      "outputs": [],
      "stateMutability": "nonpayable",
      "type": "function"
    },
    {
      "inputs": [
        {
          "internalType": "address",
          "name": "operator",
          "type": "address"
        },
        {
          "internalType": "bool",
          "name": "approved",
          "type": "bool"
        }
      ],
      "name": "setApprovalForAll",
      "outputs": [],
      "stateMutability": "nonpayable",
      "type": "function"
    },
    {
      "inputs": [
        {
          "internalType": "uint256",
          "name": "id",
          "type": "uint256"
        },
        {
          "internalType": "string",
          "name": "_metadata",
          "type": "string"
        }
      ],
      "name": "setTokenUri",
      "outputs": [],
      "stateMutability": "nonpayable",
      "type": "function"
    },
    {
      "inputs": [
        {
          "internalType": "bytes4",
          "name": "interfaceId",
          "type": "bytes4"
        }
      ],
      "name": "supportsInterface",
      "outputs": [
        {
          "internalType": "bool",
          "name": "",
          "type": "bool"
        }
      ],
      "stateMutability": "view",
      "type": "function"
    },
    {
      "inputs": [],
      "name": "symbol",
      "outputs": [
        {
          "internalType": "string",
          "name": "",
          "type": "string"
        }
      ],
      "stateMutability": "view",
      "type": "function"
    },
    {
      "inputs": [
        {
          "internalType": "address",
          "name": "_owner",
          "type": "address"
        }
      ],
      "name": "tokenTypesOf",
      "outputs": [
        {
          "internalType": "uint256[]",
          "name": "ids",
          "type": "uint256[]"
        }
      ],
      "stateMutability": "view",
      "type": "function"
    },
    {
      "inputs": [
        {
          "internalType": "address",
          "name": "_owner",
          "type": "address"
        }
      ],
      "name": "tokensOfOwner",
      "outputs": [
        {
          "internalType": "uint256[]",
          "name": "",
          "type": "uint256[]"
        }
      ],
      "stateMutability": "view",
      "type": "function"
    },
    {
      "inputs": [
        {
          "internalType": "address",
          "name": "_owner",
          "type": "address"
        }
      ],
      "name": "totalBalance",
      "outputs": [
        {
          "internalType": "uint256",
          "name": "",
          "type": "uint256"
        }
      ],
      "stateMutability": "view",
      "type": "function"
    },
    {
      "inputs": [
        {
          "internalType": "uint256",
          "name": "id",
          "type": "uint256"
        }
      ],
      "name": "totalSupply",
      "outputs": [
        {
          "internalType": "uint256",
          "name": "total_supply",
          "type": "uint256"
        }
      ],
      "stateMutability": "view",
      "type": "function"
    },
    {
      "inputs": [],
      "name": "totalTokenTypes",
      "outputs": [
        {
          "internalType": "uint256",
          "name": "",
          "type": "uint256"
        }
      ],
      "stateMutability": "view",
      "type": "function"
    },
    {
      "inputs": [
        {
          "internalType": "address",
          "name": "_owner",
          "type": "address"
        }
      ],
      "name": "totalTypes",
      "outputs": [
        {
          "internalType": "uint256",
          "name": "",
          "type": "uint256"
        }
      ],
      "stateMutability": "view",
      "type": "function"
    },
    {
      "inputs": [
        {
          "internalType": "address",
          "name": "newOwner",
          "type": "address"
        }
      ],
      "name": "transferOwnership",
      "outputs": [],
      "stateMutability": "nonpayable",
      "type": "function"
    },
    {
      "inputs": [
        {
          "internalType": "uint256",
          "name": "id",
          "type": "uint256"
        }
      ],
      "name": "uri",
      "outputs": [
        {
          "internalType": "string",
          "name": "",
          "type": "string"
        }
      ],
      "stateMutability": "view",
      "type": "function"
    },
    {
      "inputs": [
        {
          "internalType": "string",
          "name": "_metadata",
          "type": "string"
        }
      ],
      "name": "userMint",
      "outputs": [],
      "stateMutability": "nonpayable",
      "type": "function"
    }
  ],
  "bytecode": "0x60806040523480156200001157600080fd5b50604051620022ca380380620022ca8339810160408190526200003491620001ae565b6040805160208101909152600081526200004e8162000085565b506200005a3362000097565b6004620000688282620002a7565b506005620000778382620002a7565b505060006006555062000373565b6002620000938282620002a7565b5050565b600380546001600160a01b038381166001600160a01b0319831681179093556040519116919082907f8be0079c531659141344cd1fd0a4f28419497f9722a3daafe3b4186f6b6457e090600090a35050565b634e487b7160e01b600052604160045260246000fd5b600082601f8301126200011157600080fd5b81516001600160401b03808211156200012e576200012e620000e9565b604051601f8301601f19908116603f01168101908282118183101715620001595762000159620000e9565b816040528381526020925086838588010111156200017657600080fd5b600091505b838210156200019a57858201830151818301840152908201906200017b565b600093810190920192909252949350505050565b60008060408385031215620001c257600080fd5b82516001600160401b0380821115620001da57600080fd5b620001e886838701620000ff565b93506020850151915080821115620001ff57600080fd5b506200020e85828601620000ff565b9150509250929050565b600181811c908216806200022d57607f821691505b6020821081036200024e57634e487b7160e01b600052602260045260246000fd5b50919050565b601f821115620002a257600081815260208120601f850160051c810160208610156200027d5750805b601f850160051c820191505b818110156200029e5782815560010162000289565b5050505b505050565b81516001600160401b03811115620002c357620002c3620000e9565b620002db81620002d4845462000218565b8462000254565b602080601f831160018114620003135760008415620002fa5750858301515b600019600386901b1c1916600185901b1785556200029e565b600085815260208120601f198616915b82811015620003445788860151825594840194600190910190840162000323565b5085821015620003635787850151600019600388901b60f8161c191681555b5050505050600190811b01905550565b611f4780620003836000396000f3fe608060405234801561001057600080fd5b506004361061014c5760003560e01c80636eacd398116100c3578063a22cb4651161007c578063a22cb465146102af578063bd85b039146102c2578063e985e9c5146102e2578063f242432a1461031e578063f2fde38b14610331578063f5298aca1461034457600080fd5b80636eacd39814610256578063715018a6146102695780638462151c146102715780638da5cb5b146102845780638dfde3391461029f57806395d89b41146102a757600080fd5b80632c9609d5116101155780632c9609d5146101d75780632eb2c2d6146101ea5780632ff95d8c146101fd5780634e1273f41461021057806357f7789e146102305780636a05025f1461024357600080fd5b8062fdd58e1461015157806301ffc9a71461017757806306fdde031461019a5780630e89341c146101af578063156e29f6146101c2575b600080fd5b61016461015f36600461153c565b610357565b6040519081526020015b60405180910390f35b61018a61018536600461157c565b6103f0565b604051901515815260200161016e565b6101a2610440565b60405161016e91906115e6565b6101a26101bd3660046115f9565b6104ce565b6101d56101d0366004611612565b610570565b005b6101d56101e53660046116fa565b610588565b6101d56101f83660046117ca565b6105d3565b61016461020b366004611873565b61061f565b61022361021e36600461188e565b610666565b60405161016e9190611993565b6101d561023e3660046119a6565b61078f565b610223610251366004611873565b6107af565b610164610264366004611873565b610865565b6101d561089b565b61022361027f366004611873565b6108af565b6003546040516001600160a01b03909116815260200161016e565b610164610989565b6101a26109d1565b6101d56102bd3660046119e2565b6109de565b6101646102d03660046115f9565b60009081526008602052604090205490565b61018a6102f0366004611a1e565b6001600160a01b03918216600090815260016020908152604080832093909416825291909152205460ff1690565b6101d561032c366004611a51565b6109ed565b6101d561033f366004611873565b610a32565b6101d5610352366004611612565b610aa8565b60006001600160a01b0383166103c75760405162461bcd60e51b815260206004820152602a60248201527f455243313135353a2061646472657373207a65726f206973206e6f742061207660448201526930b634b21037bbb732b960b11b60648201526084015b60405180910390fd5b506000818152602081815260408083206001600160a01b03861684529091529020545b92915050565b60006001600160e01b03198216636cdb3d1360e11b148061042157506001600160e01b031982166303a24d0760e21b145b806103ea57506301ffc9a760e01b6001600160e01b03198316146103ea565b6004805461044d90611ab5565b80601f016020809104026020016040519081016040528092919081815260200182805461047990611ab5565b80156104c65780601f1061049b576101008083540402835291602001916104c6565b820191906000526020600020905b8154815290600101906020018083116104a957829003601f168201915b505050505081565b60008181526007602052604090208054606091906104eb90611ab5565b80601f016020809104026020016040519081016040528092919081815260200182805461051790611ab5565b80156105645780601f1061053957610100808354040283529160200191610564565b820191906000526020600020905b81548152906001019060200180831161054757829003601f168201915b50505050509050919050565b610578610b57565b610583838383610bb1565b505050565b8060076000600654600161059c9190611aff565b815260200190815260200160002090816105b69190611b58565b506105d0336006546105c9906001611aff565b6001610bb1565b50565b6001600160a01b0385163314806105ef57506105ef85336102f0565b61060b5760405162461bcd60e51b81526004016103be90611c17565b6106188585858585610bfa565b5050505050565b600080805b600654811161065f5760006106398583610357565b111561064d578161064981611c65565b9250505b8061065781611c65565b915050610624565b5092915050565b606081518351146106cb5760405162461bcd60e51b815260206004820152602960248201527f455243313135353a206163636f756e747320616e6420696473206c656e677468604482015268040dad2e6dac2e8c6d60bb1b60648201526084016103be565b600083516001600160401b038111156106e6576106e6611645565b60405190808252806020026020018201604052801561070f578160200160208202803683370190505b50905060005b84518110156107875761075a85828151811061073357610733611c7e565b602002602001015185838151811061074d5761074d611c7e565b6020026020010151610357565b82828151811061076c5761076c611c7e565b602090810291909101015261078081611c65565b9050610715565b509392505050565b610797610b57565b60008281526007602052604090206105838282611b58565b606060006107bc8361061f565b6001600160401b038111156107d3576107d3611645565b6040519080825280602002602001820160405280156107fc578160200160208202803683370190505b5090506000805b600654811161085c5760006108188683610357565b111561084a578083838151811061083157610831611c7e565b60209081029190910101528161084681611c65565b9250505b8061085481611c65565b915050610803565b50909392505050565b600080805b600654811161065f5761087d8482610357565b6108879083611aff565b91508061089381611c65565b91505061086a565b6108a3610b57565b6108ad6000610dd7565b565b606060006108bc8361061f565b9050806000036108dc576040805160008082526020820190925290610787565b6000816001600160401b038111156108f6576108f6611645565b60405190808252806020026020018201604052801561091f578160200160208202803683370190505b5090506000805b600654811161097f57600061093b8783610357565b111561096d578083838151811061095457610954611c7e565b60209081029190910101528161096981611c65565b9250505b8061097781611c65565b915050610926565b5090949350505050565b600080805b60065481116109cb57600081815260086020526040902054156109b957816109b581611c65565b9250505b806109c381611c65565b91505061098e565b50919050565b6005805461044d90611ab5565b6109e9338383610e29565b5050565b6001600160a01b038516331480610a095750610a0985336102f0565b610a255760405162461bcd60e51b81526004016103be90611c17565b6106188585858585610f09565b610a3a610b57565b6001600160a01b038116610a9f5760405162461bcd60e51b815260206004820152602660248201527f4f776e61626c653a206e6577206f776e657220697320746865207a65726f206160448201526564647265737360d01b60648201526084016103be565b6105d081610dd7565b6001600160a01b038316331480610ac45750610ac483336102f0565b610b245760405162461bcd60e51b815260206004820152602b60248201527f4e656564206f70657261746f7220617070726f76616c20666f7220337264207060448201526a30b93a3c90313ab937399760a91b60648201526084016103be565b610b2f838383611033565b60008281526008602052604081208054839290610b4d908490611c94565b9091555050505050565b6003546001600160a01b031633146108ad5760405162461bcd60e51b815260206004820181905260248201527f4f776e61626c653a2063616c6c6572206973206e6f7420746865206f776e657260448201526064016103be565b610bcc838383604051806020016040528060008152506111b4565b600654821115610bdc5760068290555b60008281526008602052604081208054839290610b4d908490611aff565b8151835114610c5c5760405162461bcd60e51b815260206004820152602860248201527f455243313135353a2069647320616e6420616d6f756e7473206c656e677468206044820152670dad2e6dac2e8c6d60c31b60648201526084016103be565b6001600160a01b038416610c825760405162461bcd60e51b81526004016103be90611ca7565b3360005b8451811015610d69576000858281518110610ca357610ca3611c7e565b602002602001015190506000858381518110610cc157610cc1611c7e565b602090810291909101810151600084815280835260408082206001600160a01b038e168352909352919091205490915081811015610d115760405162461bcd60e51b81526004016103be90611cec565b6000838152602081815260408083206001600160a01b038e8116855292528083208585039055908b16825281208054849290610d4e908490611aff565b9250508190555050505080610d6290611c65565b9050610c86565b50846001600160a01b0316866001600160a01b0316826001600160a01b03167f4a39dc06d4c0dbc64b70af90fd698a233a518aa5d07e595d983b8c0526c8f7fb8787604051610db9929190611d36565b60405180910390a4610dcf8187878787876112bf565b505050505050565b600380546001600160a01b038381166001600160a01b0319831681179093556040519116919082907f8be0079c531659141344cd1fd0a4f28419497f9722a3daafe3b4186f6b6457e090600090a35050565b816001600160a01b0316836001600160a01b031603610e9c5760405162461bcd60e51b815260206004820152602960248201527f455243313135353a2073657474696e6720617070726f76616c20737461747573604482015268103337b91039b2b63360b91b60648201526084016103be565b6001600160a01b03838116600081815260016020908152604080832094871680845294825291829020805460ff191686151590811790915591519182527f17307eab39ab6107e8899845ad3d59bd9653f200f220920489ca2b5937696c31910160405180910390a3505050565b6001600160a01b038416610f2f5760405162461bcd60e51b81526004016103be90611ca7565b336000610f3b8561141a565b90506000610f488561141a565b90506000868152602081815260408083206001600160a01b038c16845290915290205485811015610f8b5760405162461bcd60e51b81526004016103be90611cec565b6000878152602081815260408083206001600160a01b038d8116855292528083208985039055908a16825281208054889290610fc8908490611aff565b909155505060408051888152602081018890526001600160a01b03808b16928c821692918816917fc3d58168c5ae7397731d063d5bbf3d657854427343f4c083240f7aacaa2d0f62910160405180910390a4611028848a8a8a8a8a611465565b505050505050505050565b6001600160a01b0383166110955760405162461bcd60e51b815260206004820152602360248201527f455243313135353a206275726e2066726f6d20746865207a65726f206164647260448201526265737360e81b60648201526084016103be565b3360006110a18461141a565b905060006110ae8461141a565b60408051602080820183526000918290528882528181528282206001600160a01b038b16835290522054909150848110156111375760405162461bcd60e51b8152602060048201526024808201527f455243313135353a206275726e20616d6f756e7420657863656564732062616c604482015263616e636560e01b60648201526084016103be565b6000868152602081815260408083206001600160a01b038b81168086529184528285208a8703905582518b81529384018a90529092908816917fc3d58168c5ae7397731d063d5bbf3d657854427343f4c083240f7aacaa2d0f62910160405180910390a46040805160208101909152600090525b50505050505050565b6001600160a01b0384166112145760405162461bcd60e51b815260206004820152602160248201527f455243313135353a206d696e7420746f20746865207a65726f206164647265736044820152607360f81b60648201526084016103be565b3360006112208561141a565b9050600061122d8561141a565b90506000868152602081815260408083206001600160a01b038b1684529091528120805487929061125f908490611aff565b909155505060408051878152602081018790526001600160a01b03808a1692600092918716917fc3d58168c5ae7397731d063d5bbf3d657854427343f4c083240f7aacaa2d0f62910160405180910390a46111ab83600089898989611465565b6001600160a01b0384163b15610dcf5760405163bc197c8160e01b81526001600160a01b0385169063bc197c81906113039089908990889088908890600401611d64565b6020604051808303816000875af192505050801561133e575060408051601f3d908101601f1916820190925261133b91810190611dc2565b60015b6113ea5761134a611ddf565b806308c379a003611383575061135e611dfb565b806113695750611385565b8060405162461bcd60e51b81526004016103be91906115e6565b505b60405162461bcd60e51b815260206004820152603460248201527f455243313135353a207472616e7366657220746f206e6f6e2d455243313135356044820152732932b1b2b4bb32b91034b6b83632b6b2b73a32b960611b60648201526084016103be565b6001600160e01b0319811663bc197c8160e01b146111ab5760405162461bcd60e51b81526004016103be90611e84565b6040805160018082528183019092526060916000919060208083019080368337019050509050828160008151811061145457611454611c7e565b602090810291909101015292915050565b6001600160a01b0384163b15610dcf5760405163f23a6e6160e01b81526001600160a01b0385169063f23a6e61906114a99089908990889088908890600401611ecc565b6020604051808303816000875af19250505080156114e4575060408051601f3d908101601f191682019092526114e191810190611dc2565b60015b6114f05761134a611ddf565b6001600160e01b0319811663f23a6e6160e01b146111ab5760405162461bcd60e51b81526004016103be90611e84565b80356001600160a01b038116811461153757600080fd5b919050565b6000806040838503121561154f57600080fd5b61155883611520565b946020939093013593505050565b6001600160e01b0319811681146105d057600080fd5b60006020828403121561158e57600080fd5b813561159981611566565b9392505050565b6000815180845260005b818110156115c6576020818501810151868301820152016115aa565b506000602082860101526020601f19601f83011685010191505092915050565b60208152600061159960208301846115a0565b60006020828403121561160b57600080fd5b5035919050565b60008060006060848603121561162757600080fd5b61163084611520565b95602085013595506040909401359392505050565b634e487b7160e01b600052604160045260246000fd5b601f8201601f191681016001600160401b038111828210171561168057611680611645565b6040525050565b600082601f83011261169857600080fd5b81356001600160401b038111156116b1576116b1611645565b6040516116c8601f8301601f19166020018261165b565b8181528460208386010111156116dd57600080fd5b816020850160208301376000918101602001919091529392505050565b60006020828403121561170c57600080fd5b81356001600160401b0381111561172257600080fd5b61172e84828501611687565b949350505050565b60006001600160401b0382111561174f5761174f611645565b5060051b60200190565b600082601f83011261176a57600080fd5b8135602061177782611736565b604051611784828261165b565b83815260059390931b85018201928281019150868411156117a457600080fd5b8286015b848110156117bf57803583529183019183016117a8565b509695505050505050565b600080600080600060a086880312156117e257600080fd5b6117eb86611520565b94506117f960208701611520565b935060408601356001600160401b038082111561181557600080fd5b61182189838a01611759565b9450606088013591508082111561183757600080fd5b61184389838a01611759565b9350608088013591508082111561185957600080fd5b5061186688828901611687565b9150509295509295909350565b60006020828403121561188557600080fd5b61159982611520565b600080604083850312156118a157600080fd5b82356001600160401b03808211156118b857600080fd5b818501915085601f8301126118cc57600080fd5b813560206118d982611736565b6040516118e6828261165b565b83815260059390931b850182019282810191508984111561190657600080fd5b948201945b8386101561192b5761191c86611520565b8252948201949082019061190b565b9650508601359250508082111561194157600080fd5b5061194e85828601611759565b9150509250929050565b600081518084526020808501945080840160005b838110156119885781518752958201959082019060010161196c565b509495945050505050565b6020815260006115996020830184611958565b600080604083850312156119b957600080fd5b8235915060208301356001600160401b038111156119d657600080fd5b61194e85828601611687565b600080604083850312156119f557600080fd5b6119fe83611520565b915060208301358015158114611a1357600080fd5b809150509250929050565b60008060408385031215611a3157600080fd5b611a3a83611520565b9150611a4860208401611520565b90509250929050565b600080600080600060a08688031215611a6957600080fd5b611a7286611520565b9450611a8060208701611520565b9350604086013592506060860135915060808601356001600160401b03811115611aa957600080fd5b61186688828901611687565b600181811c90821680611ac957607f821691505b6020821081036109cb57634e487b7160e01b600052602260045260246000fd5b634e487b7160e01b600052601160045260246000fd5b808201808211156103ea576103ea611ae9565b601f82111561058357600081815260208120601f850160051c81016020861015611b395750805b601f850160051c820191505b81811015610dcf57828155600101611b45565b81516001600160401b03811115611b7157611b71611645565b611b8581611b7f8454611ab5565b84611b12565b602080601f831160018114611bba5760008415611ba25750858301515b600019600386901b1c1916600185901b178555610dcf565b600085815260208120601f198616915b82811015611be957888601518255948401946001909101908401611bca565b5085821015611c075787850151600019600388901b60f8161c191681555b5050505050600190811b01905550565b6020808252602e908201527f455243313135353a2063616c6c6572206973206e6f7420746f6b656e206f776e60408201526d195c881bdc88185c1c1c9bdd995960921b606082015260800190565b600060018201611c7757611c77611ae9565b5060010190565b634e487b7160e01b600052603260045260246000fd5b818103818111156103ea576103ea611ae9565b60208082526025908201527f455243313135353a207472616e7366657220746f20746865207a65726f206164604082015264647265737360d81b606082015260800190565b6020808252602a908201527f455243313135353a20696e73756666696369656e742062616c616e636520666f60408201526939103a3930b739b332b960b11b606082015260800190565b604081526000611d496040830185611958565b8281036020840152611d5b8185611958565b95945050505050565b6001600160a01b0386811682528516602082015260a060408201819052600090611d9090830186611958565b8281036060840152611da28186611958565b90508281036080840152611db681856115a0565b98975050505050505050565b600060208284031215611dd457600080fd5b815161159981611566565b600060033d1115611df85760046000803e5060005160e01c5b90565b600060443d1015611e095790565b6040516003193d81016004833e81513d6001600160401b038160248401118184111715611e3857505050505090565b8285019150815181811115611e505750505050505090565b843d8701016020828501011115611e6a5750505050505090565b611e796020828601018761165b565b509095945050505050565b60208082526028908201527f455243313135353a204552433131353552656365697665722072656a656374656040820152676420746f6b656e7360c01b606082015260800190565b6001600160a01b03868116825285166020820152604081018490526060810183905260a060808201819052600090611f06908301846115a0565b97965050505050505056fea26469706673582212206c1db3696f65715869b7dd71dc3a21ec6ff5f1814a3310bc6e5123c7556f11ac64736f6c63430008110033",
  "linkReferences": {},
  "deployedLinkReferences": {}
}