{
  "_format": "hh-sol-artifact-1",
  "contractName": "crowd_funding_gasless",
  "sourceName": "contracts/crowd_funding_gasless.sol",
  "abi": [
    {
      "inputs": [
        {
          "internalType": "address",
          "name": "_trustedForwarder",
          "type": "address"
        }
      ],
      "stateMutability": "nonpayable",
      "type": "constructor"
    },
    {
      "inputs": [
        {
          "internalType": "uint256",
          "name": "amount",
          "type": "uint256"
        }
      ],
      "name": "InitiateVoting",
      "outputs": [],
      "stateMutability": "nonpayable",
      "type": "function"
    },
    {
      "inputs": [
        {
          "internalType": "string",
          "name": "name",
          "type": "string"
        }
      ],
      "name": "RegisterContributor",
      "outputs": [],
      "stateMutability": "nonpayable",
      "type": "function"
    },
    {
      "inputs": [
        {
          "internalType": "string",
          "name": "name",
          "type": "string"
        },
        {
          "internalType": "string",
          "name": "category",
          "type": "string"
        },
        {
          "internalType": "uint256",
          "name": "milestoneGoal",
          "type": "uint256"
        }
      ],
      "name": "RegisterCreator",
      "outputs": [],
      "stateMutability": "nonpayable",
      "type": "function"
    },
    {
      "inputs": [
        {
          "internalType": "string",
          "name": "name",
          "type": "string"
        }
      ],
      "name": "UploadProject",
      "outputs": [],
      "stateMutability": "nonpayable",
      "type": "function"
    },
    {
      "inputs": [],
      "name": "claimAmount",
      "outputs": [],
      "stateMutability": "payable",
      "type": "function"
    },
    {
      "inputs": [],
      "name": "claimAmountForCreator",
      "outputs": [],
      "stateMutability": "payable",
      "type": "function"
    },
    {
      "inputs": [
        {
          "internalType": "address",
          "name": "creatorAddress",
          "type": "address"
        }
      ],
      "name": "contribute",
      "outputs": [],
      "stateMutability": "payable",
      "type": "function"
    },
    {
      "inputs": [
        {
          "internalType": "uint256",
          "name": "creatorId",
          "type": "uint256"
        }
      ],
      "name": "currentMilesoneNumber",
      "outputs": [
        {
          "internalType": "uint256",
          "name": "",
          "type": "uint256"
        }
      ],
      "stateMutability": "view",
      "type": "function"
    },
    {
      "inputs": [],
      "name": "endVoting",
      "outputs": [],
      "stateMutability": "nonpayable",
      "type": "function"
    },
    {
      "inputs": [],
      "name": "getContributorClaimableBalance",
      "outputs": [
        {
          "internalType": "uint256",
          "name": "",
          "type": "uint256"
        }
      ],
      "stateMutability": "view",
      "type": "function"
    },
    {
      "inputs": [
        {
          "internalType": "uint256",
          "name": "creatorId",
          "type": "uint256"
        }
      ],
      "name": "getMemebershipStrength",
      "outputs": [
        {
          "internalType": "uint256",
          "name": "",
          "type": "uint256"
        }
      ],
      "stateMutability": "view",
      "type": "function"
    },
    {
      "inputs": [
        {
          "internalType": "address",
          "name": "creatorAddress",
          "type": "address"
        }
      ],
      "name": "getMilestoneDetails",
      "outputs": [
        {
          "internalType": "uint256",
          "name": "goal",
          "type": "uint256"
        },
        {
          "internalType": "uint256",
          "name": "fundsRaised",
          "type": "uint256"
        },
        {
          "internalType": "uint256",
          "name": "milestoneNo",
          "type": "uint256"
        }
      ],
      "stateMutability": "view",
      "type": "function"
    },
    {
      "inputs": [],
      "name": "getTrustedForwarder",
      "outputs": [
        {
          "internalType": "address",
          "name": "forwarder",
          "type": "address"
        }
      ],
      "stateMutability": "view",
      "type": "function"
    },
    {
      "inputs": [
        {
          "internalType": "address",
          "name": "creatorAddress",
          "type": "address"
        }
      ],
      "name": "getVotingStatus",
      "outputs": [
        {
          "internalType": "bool",
          "name": "",
          "type": "bool"
        },
        {
          "internalType": "uint256",
          "name": "",
          "type": "uint256"
        },
        {
          "internalType": "uint256",
          "name": "",
          "type": "uint256"
        },
        {
          "internalType": "uint256",
          "name": "",
          "type": "uint256"
        },
        {
          "internalType": "uint256",
          "name": "",
          "type": "uint256"
        },
        {
          "internalType": "bool",
          "name": "",
          "type": "bool"
        }
      ],
      "stateMutability": "view",
      "type": "function"
    },
    {
      "inputs": [
        {
          "internalType": "address",
          "name": "forwarder",
          "type": "address"
        }
      ],
      "name": "isTrustedForwarder",
      "outputs": [
        {
          "internalType": "bool",
          "name": "",
          "type": "bool"
        }
      ],
      "stateMutability": "view",
      "type": "function"
    },
    {
      "inputs": [
        {
          "internalType": "uint256",
          "name": "newGoal",
          "type": "uint256"
        }
      ],
      "name": "setMilestoneGoal",
      "outputs": [],
      "stateMutability": "nonpayable",
      "type": "function"
    },
    {
      "inputs": [
        {
          "internalType": "address",
          "name": "owner",
          "type": "address"
        }
      ],
      "name": "viewClaimAmount",
      "outputs": [
        {
          "internalType": "uint256",
          "name": "",
          "type": "uint256"
        }
      ],
      "stateMutability": "view",
      "type": "function"
    },
    {
      "inputs": [
        {
          "internalType": "uint256",
          "name": "creatorId",
          "type": "uint256"
        }
      ],
      "name": "viewCreatorInfo",
      "outputs": [
        {
          "internalType": "uint256",
          "name": "",
          "type": "uint256"
        },
        {
          "internalType": "uint256",
          "name": "",
          "type": "uint256"
        },
        {
          "internalType": "uint256",
          "name": "",
          "type": "uint256"
        }
      ],
      "stateMutability": "view",
      "type": "function"
    },
    {
      "inputs": [
        {
          "internalType": "address",
          "name": "creatorAddress",
          "type": "address"
        },
        {
          "internalType": "bool",
          "name": "isUpvote",
          "type": "bool"
        }
      ],
      "name": "vote",
      "outputs": [],
      "stateMutability": "nonpayable",
      "type": "function"
    }
  ],
  "bytecode": "0x60806040526113886001556004805466ffffffffffffff1990811690915560078054909116905534801561003257600080fd5b506040516118b23803806118b283398101604081905261005191610072565b600080546001600160a01b0319166001600160a01b038316179055506100a2565b60006020828403121561008457600080fd5b81516001600160a01b038116811461009b57600080fd5b9392505050565b611801806100b16000396000f3fe6080604052600436106101145760003560e01c8063abff0333116100a0578063c3403ddf11610064578063c3403ddf14610388578063ce1b815f1461039d578063d867909a146103c5578063d96c8bb714610416578063ea722b731461041e57600080fd5b8063abff0333146102a5578063adda00e4146102c5578063b64ed3d914610318578063bd041c4d14610338578063c02d9e1a1461035857600080fd5b8063590a3143116100e7578063590a3143146101f257806373e888fd1461024a578063830953ab1461025d5780639bc1a95d14610265578063a99620db1461028557600080fd5b8063056206951461011957806322c4ec8d1461013b578063439efb9114610193578063572b6c05146101b3575b600080fd5b34801561012557600080fd5b5061013961013436600461140e565b610450565b005b34801561014757600080fd5b5061018061015636600461140e565b33600090815260056020818152604080842054845260068252808420948452939091019052205490565b6040519081526020015b60405180910390f35b34801561019f57600080fd5b506101396101ae36600461140e565b6105cd565b3480156101bf57600080fd5b506101e26101ce366004611443565b6000546001600160a01b0391821691161490565b604051901515815260200161018a565b3480156101fe57600080fd5b5061022f61020d36600461140e565b60009081526003602052604090206007810154600a8201546010909201549092565b6040805193845260208401929092529082015260600161018a565b610139610258366004611443565b61065f565b610139610b5c565b34801561027157600080fd5b50610180610280366004611443565b610c82565b34801561029157600080fd5b506101396102a03660046114ae565b610d30565b3480156102b157600080fd5b506101396102c0366004611522565b610e20565b3480156102d157600080fd5b5061022f6102e0366004611443565b6001600160a01b03166000908152600260209081526040808320548352600390915290206012810154600d820154600e909201549192565b34801561032457600080fd5b50610139610333366004611522565b610eb9565b34801561034457600080fd5b50610139610353366004611564565b610efa565b34801561036457600080fd5b5061018061037336600461140e565b60009081526003602052604090206012015490565b34801561039457600080fd5b5061013961110d565b3480156103a957600080fd5b506000546040516001600160a01b03909116815260200161018a565b3480156103d157600080fd5b506103e56103e0366004611443565b61122f565b60408051961515875260208701959095529385019290925260608401526080830152151560a082015260c00161018a565b6101396112fd565b34801561042a57600080fd5b503360009081526005602090815260408083205483526006909152902060020154610180565b33600090815260026020908152604080832054808452600390925290912060098101548084106104d75760405162461bcd60e51b815260206004820152602760248201527f596f7520646f6e6f74206861766520656e6f7567682072656465656d61626c6560448201526608185b5bdd5b9d60ca1b60648201526084015b60405180910390fd5b600582015460009081526004830160205260409020805460ff16156105645760405162461bcd60e51b815260206004820152603d60248201527f4120766f74696e672076656e7475726520697320616c7265616479206f6e206760448201527f6f696e67212043616e6e6f74206372656174652061206e6577206f6e6500000060648201526084016104ce565b600583018054600091600486019183918261057e836115b6565b9091555081526020810191909152604001600090812060068101979097556003870181905560048701819055426001808901919091556002880191909155865460ff1916179095555050505050565b3360009081526002602090815260408083205481519283015201604051602081830303815290604052511161063d5760405162461bcd60e51b815260206004820152601660248201527510dc99585d1bdc88191bd95cc81b9bdd08195e1a5cdd60521b60448201526064016104ce565b33600090815260026020908152604080832054835260039091529020600d0155565b600034116106995760405162461bcd60e51b81526020600482015260076024820152664761726565623f60c81b60448201526064016104ce565b336000908152600560209081526040808320546001600160a01b03851684526002835281842054818552600684528285208186526004810190945291842054349491939103610713576001808201805491820181556000908152602081209091018390556003820180549161070d836115b6565b91905055505b6000828152600482016020526040812080548692906107339084906115cf565b90915550506000828152600360205260408120600c810180549192879261075b9084906115cf565b925050819055508481600801600082825461077691906115cf565b909155506064905061078986605f6115e8565b61079391906115ff565b8160090160008282546107a691906115cf565b90915550606490506107b98660056115e8565b6107c391906115ff565b81600a0160008282546107d691906115cf565b9091555050600d81018054600e8301546107f19088906115cf565b1015610881578581600101600082825461080b91906115cf565b909155505060008581526004820160205260408120549003610856576002810180546001810182556000918252602082200186905560038201805491610850836115b6565b91905055505b6000858152600482016020526040812080548892906108769084906115cf565b90915550610b1f9050565b6001810154815460009161089491611621565b905060006108a28289611621565b9050818360010160008282546108b891906115cf565b9091555050600087815260048401602052604081205490036109035760028301805460018101825560009182526020822001889055600384018054916108fd836115b6565b91905055505b6000878152600484016020526040812080548492906109239084906115cf565b90915550600090505b83600301548110156109d357600084600201828154811061094f5761094f611634565b90600052602060002001549050606485600401600083815260200190815260200160002054600561098091906115e8565b61098a91906115ff565b600082815260066020526040812060020180549091906109ab9084906115cf565b90915550506000908152600485016020526040812055806109cb816115b6565b91505061092c565b5060408051600081526020810191829052516109f39160028601916113ae565b50600060038401819055600184018190558354610a1090836115ff565b610a1b9060016115cf565b905080856012016000828254610a3191906115cf565b909155505081610a475750505050505050505050565b600284018054600181810183556000928352602090922001899055845490610a6f9083611621565b610a7991906115e8565b610a839083611621565b6000898152600486016020526040902055610a9f600182611621565b8454610aab91906115e8565b610ab59083611621565b6001808601919091558454606491610acd9084611621565b610ad791906115e8565b610ae29060056115e8565b610aec91906115ff565b866002016000828254610aff91906115cf565b9091555050600384018054906000610b16836115b6565b91905055505050505b600c820154610b2e90876115e8565b600085815260058501602052604081208054909190610b4e9084906115cf565b909155505050505050505050565b33600090815260056020908152604080832054815192830152016040516020818303038152906040525111610bd35760405162461bcd60e51b815260206004820152601a60248201527f436f6e7472696275746f7220646f6573206e6f7420657869737400000000000060448201526064016104ce565b3360009081526005602090815260408083205480845260069092529091206002810154610c425760405162461bcd60e51b815260206004820152601860248201527f4e6f7420656e6f7567682066756e6420746f20636c61696d000000000000000060448201526064016104ce565b60028101546040513391829181156108fc0291906000818181858888f19350505050158015610c75573d6000803e3d6000fd5b5050600060029091015550565b6001600160a01b0381166000908152600560209081526040808320548151928301528291016040516020818303038152906040525111610d045760405162461bcd60e51b815260206004820152601a60248201527f436f6e7472696275746f7220646f6573206e6f7420657869737400000000000060448201526064016104ce565b506001600160a01b03166000908152600560209081526040808320548352600690915290206002015490565b6004805433600090815260026020526040812066ffffffffffffff9283169055825490926003928492169082610d6583611660565b91906101000a81548166ffffffffffffff021916908366ffffffffffffff16021790555066ffffffffffffff16815260200190815260200160002090508585826000019182610db592919061170b565b5060018101610dc584868361170b565b5060006003820181905560058201819055600782018190556008820181905560098201819055600a8201819055600b8201819055600c820181905560128201819055600d820192909255600e81018290556010015550505050565b6007805433600090815260056020526040812066ffffffffffffff9283169055825490926006928492169082610e5583611660565b91906101000a81548166ffffffffffffff021916908366ffffffffffffff16021790555066ffffffffffffff16815260200190815260200160002090508282826000019182610ea592919061170b565b506000600382018190556002909101555050565b33600090815260026020818152604080842054808552600380845282862090810154865293840190925290922080610ef285878361170b565b505050505050565b336000908152600560208181526040808420546001600160a01b0387168552600283528185205480865260039093529084209283015490939192600401908290610f4690600190611621565b81526020810191909152604001600020805490915060ff16610faa5760405162461bcd60e51b815260206004820152601c60248201527f566f74696e672056656e74757265206973206e6f74206163746976650000000060448201526064016104ce565b6000838152600660209081526040808320858452600501909152902054610fd057600080fd5b33600090815260058201602052604090205460ff1615610fef57600080fd5b600154816001015461100191906115cf565b421061100c57600080fd5b3360009081526005820160205260408120805460ff1916600117905560028201805491611038836115b6565b91905055508315611080576000838152600660209081526040808320858452600501909152812054600383018054919290916110759084906115cf565b909155506110b89050565b6000838152600660209081526040808320858452600501909152812054600483018054919290916110b29084906115cf565b90915550505b6000828152600360205260409020600c01546110d59060016115e8565b6000848152600660209081526040808320868452600501909152812080549091906111019084906115cf565b90915550505050505050565b33600090815260026020908152604080832054808452600390925282206005810154919290916004830190829061114690600190611621565b81526020810191909152604001600020805490915060ff1661119e5760405162461bcd60e51b81526020600482015260116024820152704e6f206163746976652076656e7475726560781b60448201526064016104ce565b600282600701546111af91906115ff565b8160020154116111f55760405162461bcd60e51b81526020600482015260116024820152704e6f7420656e6f75676820766f7465727360781b60448201526064016104ce565b80600401548160030154111561122357806006015482600b01600082825461121d91906115cf565b90915550505b805460ff191690555050565b6001600160a01b0381166000908152600260209081526040808320548084526003909252822060058101548392839283928392839290916112865760008060008060008097509750975097509750975050506112f4565b60008160040160006001846005015461129f9190611621565b815260208082019290925260409081016000908120805460028201546003830154600484015460068501543387526005909501909752949093205460ff9182169e50929c50929a509298509196501693505050505b91939550919395565b336000908152600260209081526040808320548084526003909252909120600b81015461136c5760405162461bcd60e51b815260206004820152601760248201527f4e6f20616d6f756e7420746f20626520636c61696d656400000000000000000060448201526064016104ce565b600b8101805460009182905560405190913391829184156108fc02918591818181858888f193505050501580156113a7573d6000803e3d6000fd5b5050505050565b8280548282559060005260206000209081019282156113e9579160200282015b828111156113e95782518255916020019190600101906113ce565b506113f59291506113f9565b5090565b5b808211156113f557600081556001016113fa565b60006020828403121561142057600080fd5b5035919050565b80356001600160a01b038116811461143e57600080fd5b919050565b60006020828403121561145557600080fd5b61145e82611427565b9392505050565b60008083601f84011261147757600080fd5b50813567ffffffffffffffff81111561148f57600080fd5b6020830191508360208285010111156114a757600080fd5b9250929050565b6000806000806000606086880312156114c657600080fd5b853567ffffffffffffffff808211156114de57600080fd5b6114ea89838a01611465565b9097509550602088013591508082111561150357600080fd5b5061151088828901611465565b96999598509660400135949350505050565b6000806020838503121561153557600080fd5b823567ffffffffffffffff81111561154c57600080fd5b61155885828601611465565b90969095509350505050565b6000806040838503121561157757600080fd5b61158083611427565b91506020830135801515811461159557600080fd5b809150509250929050565b634e487b7160e01b600052601160045260246000fd5b6000600182016115c8576115c86115a0565b5060010190565b808201808211156115e2576115e26115a0565b92915050565b80820281158282048414176115e2576115e26115a0565b60008261161c57634e487b7160e01b600052601260045260246000fd5b500490565b818103818111156115e2576115e26115a0565b634e487b7160e01b600052603260045260246000fd5b634e487b7160e01b600052604160045260246000fd5b600066ffffffffffffff80831681810361167c5761167c6115a0565b6001019392505050565b600181811c9082168061169a57607f821691505b6020821081036116ba57634e487b7160e01b600052602260045260246000fd5b50919050565b601f82111561170657600081815260208120601f850160051c810160208610156116e75750805b601f850160051c820191505b81811015610ef2578281556001016116f3565b505050565b67ffffffffffffffff8311156117235761172361164a565b611737836117318354611686565b836116c0565b6000601f84116001811461176b57600085156117535750838201355b600019600387901b1c1916600186901b1783556113a7565b600083815260209020601f19861690835b8281101561179c578685013582556020948501946001909201910161177c565b50868210156117b95760001960f88860031b161c19848701351681555b505060018560011b018355505050505056fea26469706673582212205ba7f81e5fc3559a1a454a84713d410a3c21f93f855e3e391dbc7ecbc718a75964736f6c63430008110033",
  "linkReferences": {},
  "deployedLinkReferences": {}
}