{
  "_format": "hh-sol-artifact-1",
  "contractName": "crowd_funding",
  "sourceName": "contracts/crowd_funding.sol",
  "abi": [
    {
      "inputs": [
        {
          "internalType": "uint256",
          "name": "amount",
          "type": "uint256"
        }
      ],
      "name": "InitiateVoting",
      "outputs": [],
      "stateMutability": "nonpayable",
      "type": "function"
    },
    {
      "inputs": [
        {
          "internalType": "string",
          "name": "name",
          "type": "string"
        }
      ],
      "name": "RegisterContributor",
      "outputs": [],
      "stateMutability": "nonpayable",
      "type": "function"
    },
    {
      "inputs": [
        {
          "internalType": "string",
          "name": "name",
          "type": "string"
        },
        {
          "internalType": "string",
          "name": "category",
          "type": "string"
        },
        {
          "internalType": "uint256",
          "name": "milestoneGoal",
          "type": "uint256"
        }
      ],
      "name": "RegisterCreator",
      "outputs": [],
      "stateMutability": "nonpayable",
      "type": "function"
    },
    {
      "inputs": [
        {
          "internalType": "string",
          "name": "name",
          "type": "string"
        }
      ],
      "name": "UploadProject",
      "outputs": [],
      "stateMutability": "nonpayable",
      "type": "function"
    },
    {
      "inputs": [],
      "name": "claimAmount",
      "outputs": [],
      "stateMutability": "payable",
      "type": "function"
    },
    {
      "inputs": [],
      "name": "claimAmountForCreator",
      "outputs": [],
      "stateMutability": "payable",
      "type": "function"
    },
    {
      "inputs": [
        {
          "internalType": "address",
          "name": "creatorAddress",
          "type": "address"
        }
      ],
      "name": "contribute",
      "outputs": [],
      "stateMutability": "payable",
      "type": "function"
    },
    {
      "inputs": [
        {
          "internalType": "uint256",
          "name": "creatorId",
          "type": "uint256"
        }
      ],
      "name": "currentMilesoneNumber",
      "outputs": [
        {
          "internalType": "uint256",
          "name": "",
          "type": "uint256"
        }
      ],
      "stateMutability": "view",
      "type": "function"
    },
    {
      "inputs": [],
      "name": "endVoting",
      "outputs": [],
      "stateMutability": "nonpayable",
      "type": "function"
    },
    {
      "inputs": [],
      "name": "getContributorClaimableBalance",
      "outputs": [
        {
          "internalType": "uint256",
          "name": "",
          "type": "uint256"
        }
      ],
      "stateMutability": "view",
      "type": "function"
    },
    {
      "inputs": [
        {
          "internalType": "uint256",
          "name": "creatorId",
          "type": "uint256"
        }
      ],
      "name": "getMemebershipStrength",
      "outputs": [
        {
          "internalType": "uint256",
          "name": "",
          "type": "uint256"
        }
      ],
      "stateMutability": "view",
      "type": "function"
    },
    {
      "inputs": [
        {
          "internalType": "address",
          "name": "creatorAddress",
          "type": "address"
        }
      ],
      "name": "getMilestoneDetails",
      "outputs": [
        {
          "internalType": "uint256",
          "name": "goal",
          "type": "uint256"
        },
        {
          "internalType": "uint256",
          "name": "fundsRaised",
          "type": "uint256"
        },
        {
          "internalType": "uint256",
          "name": "milestoneNo",
          "type": "uint256"
        }
      ],
      "stateMutability": "view",
      "type": "function"
    },
    {
      "inputs": [],
      "name": "getSubscriberList",
      "outputs": [
        {
          "internalType": "uint256[]",
          "name": "",
          "type": "uint256[]"
        },
        {
          "internalType": "address[]",
          "name": "",
          "type": "address[]"
        }
      ],
      "stateMutability": "view",
      "type": "function"
    },
    {
      "inputs": [
        {
          "internalType": "address",
          "name": "creatorAddress",
          "type": "address"
        }
      ],
      "name": "getVotingStatus",
      "outputs": [
        {
          "internalType": "bool",
          "name": "",
          "type": "bool"
        },
        {
          "internalType": "uint256",
          "name": "",
          "type": "uint256"
        },
        {
          "internalType": "uint256",
          "name": "",
          "type": "uint256"
        },
        {
          "internalType": "uint256",
          "name": "",
          "type": "uint256"
        },
        {
          "internalType": "uint256",
          "name": "",
          "type": "uint256"
        },
        {
          "internalType": "bool",
          "name": "",
          "type": "bool"
        }
      ],
      "stateMutability": "view",
      "type": "function"
    },
    {
      "inputs": [
        {
          "internalType": "uint256",
          "name": "newGoal",
          "type": "uint256"
        }
      ],
      "name": "setMilestoneGoal",
      "outputs": [],
      "stateMutability": "nonpayable",
      "type": "function"
    },
    {
      "inputs": [
        {
          "internalType": "address",
          "name": "owner",
          "type": "address"
        }
      ],
      "name": "viewClaimAmount",
      "outputs": [
        {
          "internalType": "uint256",
          "name": "",
          "type": "uint256"
        }
      ],
      "stateMutability": "view",
      "type": "function"
    },
    {
      "inputs": [
        {
          "internalType": "address",
          "name": "creatorAddress",
          "type": "address"
        }
      ],
      "name": "viewCreatorInfo",
      "outputs": [
        {
          "internalType": "uint256",
          "name": "",
          "type": "uint256"
        },
        {
          "internalType": "uint256",
          "name": "",
          "type": "uint256"
        },
        {
          "internalType": "uint256",
          "name": "",
          "type": "uint256"
        },
        {
          "internalType": "uint256",
          "name": "",
          "type": "uint256"
        }
      ],
      "stateMutability": "view",
      "type": "function"
    },
    {
      "inputs": [
        {
          "internalType": "address",
          "name": "creatorAddress",
          "type": "address"
        },
        {
          "internalType": "bool",
          "name": "isUpvote",
          "type": "bool"
        }
      ],
      "name": "vote",
      "outputs": [],
      "stateMutability": "nonpayable",
      "type": "function"
    }
  ],
  "bytecode": "0x608060405261138860009081556003556006805466ffffffffffffff1916905534801561002b57600080fd5b506119e88061003b6000396000f3fe6080604052600436106101095760003560e01c8063abff033311610095578063c02d9e1a11610064578063c02d9e1a14610371578063c3403ddf146103a1578063d867909a146103b6578063d96c8bb714610407578063ea722b731461040f57600080fd5b8063abff0333146102a3578063adda00e4146102c3578063b64ed3d914610331578063bd041c4d1461035157600080fd5b806373e888fd116100dc57806373e888fd146101cc578063830953ab146101df5780638c6f8f3a146101e75780639bc1a95d14610263578063a99620db1461028357600080fd5b8063056206951461010e57806322c4ec8d14610130578063439efb911461018957806351d5d80d146101a9575b600080fd5b34801561011a57600080fd5b5061012e610129366004611571565b610441565b005b34801561013c57600080fd5b5061017661014b366004611571565b3360009081526004602090815260408083205483526005808352818420948452939093019052205490565b6040519081526020015b60405180910390f35b34801561019557600080fd5b5061012e6101a4366004611571565b6105be565b3480156101b557600080fd5b506101be610650565b60405161018092919061158a565b61012e6101da36600461162a565b6107ad565b61012e610cce565b3480156101f357600080fd5b5061024361020236600461162a565b6001600160a01b03166000908152600160209081526040808320548352600290915290206008810154600a820154600b830154601190930154919390929190565b604080519485526020850193909352918301526060820152608001610180565b34801561026f57600080fd5b5061017661027e36600461162a565b610df4565b34801561028f57600080fd5b5061012e61029e366004611695565b610ea2565b3480156102af57600080fd5b5061012e6102be366004611709565b610f69565b3480156102cf57600080fd5b506103166102de36600461162a565b6001600160a01b03166000908152600160209081526040808320548352600290915290206013810154600e820154600f909201549192565b60408051938452602084019290925290820152606001610180565b34801561033d57600080fd5b5061012e61034c366004611709565b611002565b34801561035d57600080fd5b5061012e61036c36600461174b565b611043565b34801561037d57600080fd5b5061017661038c366004611571565b60009081526002602052604090206013015490565b3480156103ad57600080fd5b5061012e611252565b3480156103c257600080fd5b506103d66103d136600461162a565b611392565b60408051961515875260208701959095529385019290925260608401526080830152151560a082015260c001610180565b61012e611460565b34801561041b57600080fd5b503360009081526004602090815260408083205483526005909152902060020154610176565b336000908152600160209081526040808320548084526002909252909120600a8101548084106104c85760405162461bcd60e51b815260206004820152602760248201527f596f7520646f6e6f74206861766520656e6f7567682072656465656d61626c6560448201526608185b5bdd5b9d60ca1b60648201526084015b60405180910390fd5b600682015460009081526005830160205260409020805460ff16156105555760405162461bcd60e51b815260206004820152603d60248201527f4120766f74696e672076656e7475726520697320616c7265616479206f6e206760448201527f6f696e67212043616e6e6f74206372656174652061206e6577206f6e6500000060648201526084016104bf565b600683018054600091600586019183918261056f8361179d565b9091555081526020810191909152604001600090812060068101979097556003870181905560048701819055426001808901919091556002880191909155865460ff1916179095555050505050565b3360009081526001602090815260408083205481519283015201604051602081830303815290604052511161062e5760405162461bcd60e51b815260206004820152601660248201527510dc99585d1bdc88191bd95cc81b9bdd08195e1a5cdd60521b60448201526064016104bf565b33600090815260016020908152604080832054835260029091529020600e0155565b33600090815260046020908152604080832054808452600590925282206003546060938493929167ffffffffffffffff81111561068f5761068f6117b6565b6040519080825280602002602001820160405280156106b8578160200160208202803683370190505b509050600060035467ffffffffffffffff8111156106d8576106d86117b6565b604051908082528060200260200182016040528015610701578160200160208202803683370190505b50905060005b6003548110156107a15760008181526004850160205260409020548351849083908110610736576107366117cc565b60209081029190910181019190915260008281526002909152604090206001015482516001600160a01b0390911690839083908110610777576107776117cc565b6001600160a01b0390921660209283029190910190910152806107998161179d565b915050610707565b50909590945092505050565b600034116107e75760405162461bcd60e51b81526020600482015260076024820152664761726565623f60c81b60448201526064016104bf565b336000908152600460208181526040808420546001600160a01b038616855260018352818520548186526005845282862081875294850190935290842054349491939103610860576001808201805491820181556000908152602081209091018390556003820180549161085a8361179d565b91905055505b6000828152600482016020526040812080548692906108809084906117e2565b90915550506000828152600260205260408120600d81018054919287926108a89084906117e2565b92505081905550848160090160008282546108c391906117e2565b90915550606490506108d686605f6117fb565b6108e09190611812565b81600a0160008282546108f391906117e2565b90915550606490506109068660056117fb565b6109109190611812565b81600b01600082825461092391906117e2565b9091555050600e81018054600f83015461093e9088906117e2565b10156109ce578581600101600082825461095891906117e2565b9091555050600085815260048201602052604081205490036109a357600281018054600181018255600091825260208220018690556003820180549161099d8361179d565b91905055505b6000858152600482016020526040812080548892906109c39084906117e2565b90915550610c919050565b600181015481546000916109e191611834565b905060006109ef8289611834565b905081836001016000828254610a0591906117e2565b909155505060008781526004840160205260408120549003610a50576002830180546001810182556000918252602082200188905560038401805491610a4a8361179d565b91905055505b600087815260048401602052604081208054849290610a709084906117e2565b90915550600090505b8360030154811015610b45576000846002018281548110610a9c57610a9c6117cc565b9060005260206000200154905060006064866004016000848152602001908152602001600020546005610acf91906117fb565b610ad99190611812565b905080600560008481526020019081526020016000206002016000828254610b0191906117e2565b9250508190555080876009016000828254610b1c9190611834565b909155505050600090815260048501602052604081205580610b3d8161179d565b915050610a79565b506040805160008152602081019182905251610b65916002860191611511565b50600060038401819055600184018190558354610b829083611812565b610b8d9060016117e2565b905080856013016000828254610ba391906117e2565b909155505081610bb95750505050505050505050565b600284018054600181810183556000928352602090922001899055845490610be19083611834565b610beb91906117fb565b610bf59083611834565b6000898152600486016020526040902055610c11600182611834565b8454610c1d91906117fb565b610c279083611834565b6001808601919091558454606491610c3f9084611834565b610c4991906117fb565b610c549060056117fb565b610c5e9190611812565b866002016000828254610c7191906117e2565b9091555050600384018054906000610c888361179d565b91905055505050505b600d820154610ca090876117fb565b600085815260058501602052604081208054909190610cc09084906117e2565b909155505050505050505050565b33600090815260046020908152604080832054815192830152016040516020818303038152906040525111610d455760405162461bcd60e51b815260206004820152601a60248201527f436f6e7472696275746f7220646f6573206e6f7420657869737400000000000060448201526064016104bf565b3360009081526004602090815260408083205480845260059092529091206002810154610db45760405162461bcd60e51b815260206004820152601860248201527f4e6f7420656e6f7567682066756e6420746f20636c61696d000000000000000060448201526064016104bf565b60028101546040513391829181156108fc0291906000818181858888f19350505050158015610de7573d6000803e3d6000fd5b5050600060029091015550565b6001600160a01b0381166000908152600460209081526040808320548151928301528291016040516020818303038152906040525111610e765760405162461bcd60e51b815260206004820152601a60248201527f436f6e7472696275746f7220646f6573206e6f7420657869737400000000000060448201526064016104bf565b506001600160a01b03166000908152600460209081526040808320548352600590915290206002015490565b6003805433600090815260016020526040812082905591600291839182610ec88361179d565b9091555081526020810191909152604001600020905080610eea8688836118cc565b5060028101610efa8486836118cc565b506001810180546001600160a01b03191633179055600060048201819055600682018190556008820181905560098201819055600a8201819055600b8201819055600c8201819055600d820181905560138201819055600e820192909255600f81018290556011015550505050565b6006805433600090815260046020526040812066ffffffffffffff9283169055825490926005928492169082610f9e8361198c565b91906101000a81548166ffffffffffffff021916908366ffffffffffffff16021790555066ffffffffffffff16815260200190815260200160002090508282826000019182610fee9291906118cc565b506000600382018190556002909101555050565b3360009081526001602090815260408083205480845260028352818420600481015485526003810190935292208061103b8587836118cc565b505050505050565b336000908152600460209081526040808320546001600160a01b038616845260018084528285205480865260029094529184206006810154919492600590910191839161108f91611834565b81526020810191909152604001600020805490915060ff166110f35760405162461bcd60e51b815260206004820152601c60248201527f566f74696e672056656e74757265206973206e6f74206163746976650000000060448201526064016104bf565b6000838152600560208181526040808420868552909201905290205461111857600080fd5b33600090815260058201602052604090205460ff161561113757600080fd5b600054816001015461114991906117e2565b421061115457600080fd5b3360009081526005820160205260408120805460ff19166001179055600282018054916111808361179d565b919050555083156111c75760008381526005602081815260408084208685529092019052812054600383018054919290916111bc9084906117e2565b909155506111fe9050565b60008381526005602081815260408084208685529092019052812054600483018054919290916111f89084906117e2565b90915550505b6000828152600260205260409020600d015461121b9060016117fb565b60008481526005602081815260408084208785529092019052812080549091906112469084906117e2565b90915550505050505050565b336000908152600160208181526040808420548085526002909252832060068101549193909290916005840191839161128b9190611834565b81526020810191909152604001600020805490915060ff166112e35760405162461bcd60e51b81526020600482015260116024820152704e6f206163746976652076656e7475726560781b60448201526064016104bf565b600282600801546112f49190611812565b81600201541161133a5760405162461bcd60e51b81526020600482015260116024820152704e6f7420656e6f75676820766f7465727360781b60448201526064016104bf565b80600401548160030154111561138657806006015482600c01600082825461136291906117e2565b90915550506006810154600a83018054600090611380908490611834565b90915550505b805460ff191690555050565b6001600160a01b0381166000908152600160209081526040808320548084526002909252822060068101548392839283928392839290916113e9576000806000806000809750975097509750975097505050611457565b6000816005016000600184600601546114029190611834565b815260208082019290925260409081016000908120805460028201546003830154600484015460068501543387526005909501909752949093205460ff9182169e50929c50929a509298509196501693505050505b91939550919395565b336000908152600160209081526040808320548084526002909252909120600c8101546114cf5760405162461bcd60e51b815260206004820152601760248201527f4e6f20616d6f756e7420746f20626520636c61696d656400000000000000000060448201526064016104bf565b600c8101805460009182905560405190913391829184156108fc02918591818181858888f1935050505015801561150a573d6000803e3d6000fd5b5050505050565b82805482825590600052602060002090810192821561154c579160200282015b8281111561154c578251825591602001919060010190611531565b5061155892915061155c565b5090565b5b80821115611558576000815560010161155d565b60006020828403121561158357600080fd5b5035919050565b604080825283519082018190526000906020906060840190828701845b828110156115c3578151845292840192908401906001016115a7565b5050508381038285015284518082528583019183019060005b818110156116015783516001600160a01b0316835292840192918401916001016115dc565b5090979650505050505050565b80356001600160a01b038116811461162557600080fd5b919050565b60006020828403121561163c57600080fd5b6116458261160e565b9392505050565b60008083601f84011261165e57600080fd5b50813567ffffffffffffffff81111561167657600080fd5b60208301915083602082850101111561168e57600080fd5b9250929050565b6000806000806000606086880312156116ad57600080fd5b853567ffffffffffffffff808211156116c557600080fd5b6116d189838a0161164c565b909750955060208801359150808211156116ea57600080fd5b506116f78882890161164c565b96999598509660400135949350505050565b6000806020838503121561171c57600080fd5b823567ffffffffffffffff81111561173357600080fd5b61173f8582860161164c565b90969095509350505050565b6000806040838503121561175e57600080fd5b6117678361160e565b91506020830135801515811461177c57600080fd5b809150509250929050565b634e487b7160e01b600052601160045260246000fd5b6000600182016117af576117af611787565b5060010190565b634e487b7160e01b600052604160045260246000fd5b634e487b7160e01b600052603260045260246000fd5b808201808211156117f5576117f5611787565b92915050565b80820281158282048414176117f5576117f5611787565b60008261182f57634e487b7160e01b600052601260045260246000fd5b500490565b818103818111156117f5576117f5611787565b600181811c9082168061185b57607f821691505b60208210810361187b57634e487b7160e01b600052602260045260246000fd5b50919050565b601f8211156118c757600081815260208120601f850160051c810160208610156118a85750805b601f850160051c820191505b8181101561103b578281556001016118b4565b505050565b67ffffffffffffffff8311156118e4576118e46117b6565b6118f8836118f28354611847565b83611881565b6000601f84116001811461192c57600085156119145750838201355b600019600387901b1c1916600186901b17835561150a565b600083815260209020601f19861690835b8281101561195d578685013582556020948501946001909201910161193d565b508682101561197a5760001960f88860031b161c19848701351681555b505060018560011b0183555050505050565b600066ffffffffffffff8083168181036119a8576119a8611787565b600101939250505056fea2646970667358221220ce8463752bcd266c5a16cfdc685aafc6a7a692c1c1dfee1467b981bb825c196d64736f6c63430008110033",
  "linkReferences": {},
  "deployedLinkReferences": {}
}